{
	"Documents/GitHub/contract-token-cryptoMonster/backend/shared/lib/structures.sol": {
		"structures": {
			"abi": [
				{
					"inputs": [],
					"name": "tokenAmount_",
					"outputs": [
						{
							"internalType": "uint256",
							"name": "",
							"type": "uint256"
						}
					],
					"stateMutability": "view",
					"type": "function"
				},
				{
					"inputs": [],
					"name": "tokenPrice_",
					"outputs": [
						{
							"internalType": "uint256",
							"name": "",
							"type": "uint256"
						}
					],
					"stateMutability": "view",
					"type": "function"
				}
			],
			"devdoc": {
				"kind": "dev",
				"methods": {},
				"version": 1
			},
			"evm": {
				"assembly": "    /* \"Documents/GitHub/contract-token-cryptoMonster/backend/shared/lib/structures.sol\":72:3268  contract structures {\r... */\n  mstore(0x40, 0x80)\n    /* \"Documents/GitHub/contract-token-cryptoMonster/backend/shared/lib/structures.sol\":1145:1154  750000000 */\n  0x2cb41780\n    /* \"Documents/GitHub/contract-token-cryptoMonster/backend/shared/lib/structures.sol\":1116:1154  uint256 public tokenPrice_ = 750000000 */\n  0x02\n  sstore\n    /* \"Documents/GitHub/contract-token-cryptoMonster/backend/shared/lib/structures.sol\":1376:1382  100000 */\n  0x0186a0\n    /* \"Documents/GitHub/contract-token-cryptoMonster/backend/shared/lib/structures.sol\":1349:1382  uint public tokenAmount_ = 100000 */\n  0x03\n  sstore\n    /* \"Documents/GitHub/contract-token-cryptoMonster/backend/shared/lib/structures.sol\":72:3268  contract structures {\r... */\n  callvalue\n  dup1\n  iszero\n  tag_1\n  jumpi\n  0x00\n  dup1\n  revert\ntag_1:\n  pop\n  dataSize(sub_0)\n  dup1\n  dataOffset(sub_0)\n  0x00\n  codecopy\n  0x00\n  return\nstop\n\nsub_0: assembly {\n        /* \"Documents/GitHub/contract-token-cryptoMonster/backend/shared/lib/structures.sol\":72:3268  contract structures {\r... */\n      mstore(0x40, 0x80)\n      callvalue\n      dup1\n      iszero\n      tag_1\n      jumpi\n      0x00\n      dup1\n      revert\n    tag_1:\n      pop\n      jumpi(tag_2, lt(calldatasize, 0x04))\n      shr(0xe0, calldataload(0x00))\n      dup1\n      0x0761c8b9\n      eq\n      tag_3\n      jumpi\n      dup1\n      0x948942ad\n      eq\n      tag_4\n      jumpi\n    tag_2:\n      0x00\n      dup1\n      revert\n        /* \"Documents/GitHub/contract-token-cryptoMonster/backend/shared/lib/structures.sol\":1116:1154  uint256 public tokenPrice_ = 750000000 */\n    tag_3:\n      tag_5\n      sload(0x02)\n      dup2\n      jump\n    tag_5:\n      mload(0x40)\n        /* \"#utility.yul\":160:185   */\n      swap1\n      dup2\n      mstore\n        /* \"#utility.yul\":148:150   */\n      0x20\n        /* \"#utility.yul\":133:151   */\n      add\n        /* \"Documents/GitHub/contract-token-cryptoMonster/backend/shared/lib/structures.sol\":1116:1154  uint256 public tokenPrice_ = 750000000 */\n      mload(0x40)\n      dup1\n      swap2\n      sub\n      swap1\n      return\n        /* \"Documents/GitHub/contract-token-cryptoMonster/backend/shared/lib/structures.sol\":1349:1382  uint public tokenAmount_ = 100000 */\n    tag_4:\n      tag_5\n      sload(0x03)\n      dup2\n      jump\n\n    auxdata: 0xa26469706673582212204c821f37139f04b962f96290d9493492a8ec7a4c7b4292ed39521f1a46b610b764736f6c63430008070033\n}\n",
				"bytecode": {
					"linkReferences": {},
					"object": "6080604052632cb41780600255620186a0600355348015601e57600080fd5b50608f8061002d6000396000f3fe6080604052348015600f57600080fd5b506004361060325760003560e01c80630761c8b9146037578063948942ad146051575b600080fd5b603f60025481565b60405190815260200160405180910390f35b603f6003548156fea26469706673582212204c821f37139f04b962f96290d9493492a8ec7a4c7b4292ed39521f1a46b610b764736f6c63430008070033",
					"opcodes": "PUSH1 0x80 PUSH1 0x40 MSTORE PUSH4 0x2CB41780 PUSH1 0x2 SSTORE PUSH3 0x186A0 PUSH1 0x3 SSTORE CALLVALUE DUP1 ISZERO PUSH1 0x1E JUMPI PUSH1 0x0 DUP1 REVERT JUMPDEST POP PUSH1 0x8F DUP1 PUSH2 0x2D PUSH1 0x0 CODECOPY PUSH1 0x0 RETURN INVALID PUSH1 0x80 PUSH1 0x40 MSTORE CALLVALUE DUP1 ISZERO PUSH1 0xF JUMPI PUSH1 0x0 DUP1 REVERT JUMPDEST POP PUSH1 0x4 CALLDATASIZE LT PUSH1 0x32 JUMPI PUSH1 0x0 CALLDATALOAD PUSH1 0xE0 SHR DUP1 PUSH4 0x761C8B9 EQ PUSH1 0x37 JUMPI DUP1 PUSH4 0x948942AD EQ PUSH1 0x51 JUMPI JUMPDEST PUSH1 0x0 DUP1 REVERT JUMPDEST PUSH1 0x3F PUSH1 0x2 SLOAD DUP2 JUMP JUMPDEST PUSH1 0x40 MLOAD SWAP1 DUP2 MSTORE PUSH1 0x20 ADD PUSH1 0x40 MLOAD DUP1 SWAP2 SUB SWAP1 RETURN JUMPDEST PUSH1 0x3F PUSH1 0x3 SLOAD DUP2 JUMP INVALID LOG2 PUSH5 0x6970667358 0x22 SLT KECCAK256 0x4C DUP3 0x1F CALLDATACOPY SGT SWAP16 DIV 0xB9 PUSH3 0xF96290 0xD9 0x49 CALLVALUE SWAP3 0xA8 0xEC PUSH27 0x4C7B4292ED39521F1A46B610B764736F6C63430008070033000000 "
				},
				"gasEstimates": {
					"creation": {
						"codeDepositCost": "28600",
						"executionCost": "44293",
						"totalCost": "72893"
					},
					"external": {
						"tokenAmount_()": "2283",
						"tokenPrice_()": "2261"
					}
				},
				"methodIdentifiers": {
					"tokenAmount_()": "948942ad",
					"tokenPrice_()": "0761c8b9"
				}
			},
			"storageLayout": {
				"storage": [
					{
						"astId": 28,
						"contract": "Documents/GitHub/contract-token-cryptoMonster/backend/shared/lib/structures.sol:structures",
						"label": "structUsers_",
						"offset": 0,
						"slot": "0",
						"type": "t_mapping(t_address,t_struct(structUser)23_storage)"
					},
					{
						"astId": 34,
						"contract": "Documents/GitHub/contract-token-cryptoMonster/backend/shared/lib/structures.sol:structures",
						"label": "allowed",
						"offset": 0,
						"slot": "1",
						"type": "t_mapping(t_address,t_mapping(t_address,t_uint256))"
					},
					{
						"astId": 37,
						"contract": "Documents/GitHub/contract-token-cryptoMonster/backend/shared/lib/structures.sol:structures",
						"label": "tokenPrice_",
						"offset": 0,
						"slot": "2",
						"type": "t_uint256"
					},
					{
						"astId": 40,
						"contract": "Documents/GitHub/contract-token-cryptoMonster/backend/shared/lib/structures.sol:structures",
						"label": "tokenAmount_",
						"offset": 0,
						"slot": "3",
						"type": "t_uint256"
					},
					{
						"astId": 59,
						"contract": "Documents/GitHub/contract-token-cryptoMonster/backend/shared/lib/structures.sol:structures",
						"label": "structPhases_",
						"offset": 0,
						"slot": "4",
						"type": "t_mapping(t_address,t_struct(structPhase)54_storage)"
					},
					{
						"astId": 77,
						"contract": "Documents/GitHub/contract-token-cryptoMonster/backend/shared/lib/structures.sol:structures",
						"label": "strucApplications_",
						"offset": 0,
						"slot": "5",
						"type": "t_mapping(t_address,t_struct(structApplication)72_storage)"
					},
					{
						"astId": 80,
						"contract": "Documents/GitHub/contract-token-cryptoMonster/backend/shared/lib/structures.sol:structures",
						"label": "structApplicationsAmountAdr",
						"offset": 0,
						"slot": "6",
						"type": "t_array(t_address)dyn_storage"
					},
					{
						"astId": 83,
						"contract": "Documents/GitHub/contract-token-cryptoMonster/backend/shared/lib/structures.sol:structures",
						"label": "whiteList",
						"offset": 0,
						"slot": "7",
						"type": "t_array(t_address)dyn_storage"
					},
					{
						"astId": 86,
						"contract": "Documents/GitHub/contract-token-cryptoMonster/backend/shared/lib/structures.sol:structures",
						"label": "blackList",
						"offset": 0,
						"slot": "8",
						"type": "t_array(t_address)dyn_storage"
					}
				],
				"types": {
					"t_address": {
						"encoding": "inplace",
						"label": "address",
						"numberOfBytes": "20"
					},
					"t_array(t_address)dyn_storage": {
						"base": "t_address",
						"encoding": "dynamic_array",
						"label": "address[]",
						"numberOfBytes": "32"
					},
					"t_bool": {
						"encoding": "inplace",
						"label": "bool",
						"numberOfBytes": "1"
					},
					"t_bytes32": {
						"encoding": "inplace",
						"label": "bytes32",
						"numberOfBytes": "32"
					},
					"t_enum(Role)7": {
						"encoding": "inplace",
						"label": "enum structures.Role",
						"numberOfBytes": "1"
					},
					"t_mapping(t_address,t_mapping(t_address,t_uint256))": {
						"encoding": "mapping",
						"key": "t_address",
						"label": "mapping(address => mapping(address => uint256))",
						"numberOfBytes": "32",
						"value": "t_mapping(t_address,t_uint256)"
					},
					"t_mapping(t_address,t_struct(structApplication)72_storage)": {
						"encoding": "mapping",
						"key": "t_address",
						"label": "mapping(address => struct structures.structApplication)",
						"numberOfBytes": "32",
						"value": "t_struct(structApplication)72_storage"
					},
					"t_mapping(t_address,t_struct(structPhase)54_storage)": {
						"encoding": "mapping",
						"key": "t_address",
						"label": "mapping(address => struct structures.structPhase)",
						"numberOfBytes": "32",
						"value": "t_struct(structPhase)54_storage"
					},
					"t_mapping(t_address,t_struct(structUser)23_storage)": {
						"encoding": "mapping",
						"key": "t_address",
						"label": "mapping(address => struct structures.structUser)",
						"numberOfBytes": "32",
						"value": "t_struct(structUser)23_storage"
					},
					"t_mapping(t_address,t_uint256)": {
						"encoding": "mapping",
						"key": "t_address",
						"label": "mapping(address => uint256)",
						"numberOfBytes": "32",
						"value": "t_uint256"
					},
					"t_string_storage": {
						"encoding": "bytes",
						"label": "string",
						"numberOfBytes": "32"
					},
					"t_struct(structApplication)72_storage": {
						"encoding": "inplace",
						"label": "struct structures.structApplication",
						"members": [
							{
								"astId": 61,
								"contract": "Documents/GitHub/contract-token-cryptoMonster/backend/shared/lib/structures.sol:structures",
								"label": "name",
								"offset": 0,
								"slot": "0",
								"type": "t_string_storage"
							},
							{
								"astId": 63,
								"contract": "Documents/GitHub/contract-token-cryptoMonster/backend/shared/lib/structures.sol:structures",
								"label": "contactForCommunication",
								"offset": 0,
								"slot": "1",
								"type": "t_string_storage"
							},
							{
								"astId": 65,
								"contract": "Documents/GitHub/contract-token-cryptoMonster/backend/shared/lib/structures.sol:structures",
								"label": "userAdr",
								"offset": 0,
								"slot": "2",
								"type": "t_address"
							},
							{
								"astId": 67,
								"contract": "Documents/GitHub/contract-token-cryptoMonster/backend/shared/lib/structures.sol:structures",
								"label": "status",
								"offset": 20,
								"slot": "2",
								"type": "t_bool"
							},
							{
								"astId": 69,
								"contract": "Documents/GitHub/contract-token-cryptoMonster/backend/shared/lib/structures.sol:structures",
								"label": "reviewed",
								"offset": 21,
								"slot": "2",
								"type": "t_bool"
							},
							{
								"astId": 71,
								"contract": "Documents/GitHub/contract-token-cryptoMonster/backend/shared/lib/structures.sol:structures",
								"label": "exist",
								"offset": 22,
								"slot": "2",
								"type": "t_bool"
							}
						],
						"numberOfBytes": "96"
					},
					"t_struct(structPhase)54_storage": {
						"encoding": "inplace",
						"label": "struct structures.structPhase",
						"members": [
							{
								"astId": 51,
								"contract": "Documents/GitHub/contract-token-cryptoMonster/backend/shared/lib/structures.sol:structures",
								"label": "statusPhase",
								"offset": 0,
								"slot": "0",
								"type": "t_bool"
							},
							{
								"astId": 53,
								"contract": "Documents/GitHub/contract-token-cryptoMonster/backend/shared/lib/structures.sol:structures",
								"label": "reviewed",
								"offset": 1,
								"slot": "0",
								"type": "t_bool"
							}
						],
						"numberOfBytes": "32"
					},
					"t_struct(structUser)23_storage": {
						"encoding": "inplace",
						"label": "struct structures.structUser",
						"members": [
							{
								"astId": 10,
								"contract": "Documents/GitHub/contract-token-cryptoMonster/backend/shared/lib/structures.sol:structures",
								"label": "role",
								"offset": 0,
								"slot": "0",
								"type": "t_enum(Role)7"
							},
							{
								"astId": 12,
								"contract": "Documents/GitHub/contract-token-cryptoMonster/backend/shared/lib/structures.sol:structures",
								"label": "login",
								"offset": 0,
								"slot": "1",
								"type": "t_string_storage"
							},
							{
								"astId": 14,
								"contract": "Documents/GitHub/contract-token-cryptoMonster/backend/shared/lib/structures.sol:structures",
								"label": "password",
								"offset": 0,
								"slot": "2",
								"type": "t_bytes32"
							},
							{
								"astId": 16,
								"contract": "Documents/GitHub/contract-token-cryptoMonster/backend/shared/lib/structures.sol:structures",
								"label": "balance_overall",
								"offset": 0,
								"slot": "3",
								"type": "t_uint256"
							},
							{
								"astId": 18,
								"contract": "Documents/GitHub/contract-token-cryptoMonster/backend/shared/lib/structures.sol:structures",
								"label": "balance_seed",
								"offset": 0,
								"slot": "4",
								"type": "t_uint256"
							},
							{
								"astId": 20,
								"contract": "Documents/GitHub/contract-token-cryptoMonster/backend/shared/lib/structures.sol:structures",
								"label": "balance_private",
								"offset": 0,
								"slot": "5",
								"type": "t_uint256"
							},
							{
								"astId": 22,
								"contract": "Documents/GitHub/contract-token-cryptoMonster/backend/shared/lib/structures.sol:structures",
								"label": "balance_public",
								"offset": 0,
								"slot": "6",
								"type": "t_uint256"
							}
						],
						"numberOfBytes": "224"
					},
					"t_uint256": {
						"encoding": "inplace",
						"label": "uint256",
						"numberOfBytes": "32"
					}
				}
			},
			"userdoc": {
				"kind": "user",
				"methods": {},
				"version": 1
			}
		}
	}
}