{
	"GitHub/contract-token-cryptoMonster/backend/shared/lib/structures.sol": {
		"structures": {
			"abi": [
				{
					"inputs": [
						{
							"internalType": "address",
							"name": "",
							"type": "address"
						}
					],
					"name": "structUsers_",
					"outputs": [
						{
							"internalType": "enum structures.Role",
							"name": "role",
							"type": "uint8"
						},
						{
							"internalType": "string",
							"name": "login",
							"type": "string"
						},
						{
							"internalType": "bytes32",
							"name": "password",
							"type": "bytes32"
						},
						{
							"internalType": "uint256",
							"name": "balance_overall",
							"type": "uint256"
						},
						{
							"internalType": "uint256",
							"name": "balance_seed",
							"type": "uint256"
						},
						{
							"internalType": "uint256",
							"name": "balance_private",
							"type": "uint256"
						},
						{
							"internalType": "uint256",
							"name": "balance_public",
							"type": "uint256"
						}
					],
					"stateMutability": "view",
					"type": "function"
				},
				{
					"inputs": [],
					"name": "tokenAmount_",
					"outputs": [
						{
							"internalType": "uint256",
							"name": "",
							"type": "uint256"
						}
					],
					"stateMutability": "view",
					"type": "function"
				},
				{
					"inputs": [],
					"name": "tokenPrice_",
					"outputs": [
						{
							"internalType": "uint256",
							"name": "",
							"type": "uint256"
						}
					],
					"stateMutability": "view",
					"type": "function"
				}
			],
			"devdoc": {
				"kind": "dev",
				"methods": {},
				"version": 1
			},
			"evm": {
				"assembly": "    /* \"GitHub/contract-token-cryptoMonster/backend/shared/lib/structures.sol\":72:3445  contract structures {\r... */\n  mstore(0x40, 0x80)\n    /* \"GitHub/contract-token-cryptoMonster/backend/shared/lib/structures.sol\":1152:1161  750000000 */\n  0x2cb41780\n    /* \"GitHub/contract-token-cryptoMonster/backend/shared/lib/structures.sol\":1123:1161  uint256 public tokenPrice_ = 750000000 */\n  0x02\n  sstore\n    /* \"GitHub/contract-token-cryptoMonster/backend/shared/lib/structures.sol\":1412:1418  100000 */\n  0x0186a0\n    /* \"GitHub/contract-token-cryptoMonster/backend/shared/lib/structures.sol\":1385:1418  uint public tokenAmount_ = 100000 */\n  0x03\n  sstore\n    /* \"GitHub/contract-token-cryptoMonster/backend/shared/lib/structures.sol\":72:3445  contract structures {\r... */\n  callvalue\n  dup1\n  iszero\n  tag_1\n  jumpi\n  0x00\n  dup1\n  revert\ntag_1:\n  pop\n  dataSize(sub_0)\n  dup1\n  dataOffset(sub_0)\n  0x00\n  codecopy\n  0x00\n  return\nstop\n\nsub_0: assembly {\n        /* \"GitHub/contract-token-cryptoMonster/backend/shared/lib/structures.sol\":72:3445  contract structures {\r... */\n      mstore(0x40, 0x80)\n      callvalue\n      dup1\n      iszero\n      tag_1\n      jumpi\n      0x00\n      dup1\n      revert\n    tag_1:\n      pop\n      jumpi(tag_2, lt(calldatasize, 0x04))\n      shr(0xe0, calldataload(0x00))\n      dup1\n      0x0761c8b9\n      eq\n      tag_3\n      jumpi\n      dup1\n      0x948942ad\n      eq\n      tag_4\n      jumpi\n      dup1\n      0xfc837259\n      eq\n      tag_5\n      jumpi\n    tag_2:\n      0x00\n      dup1\n      revert\n        /* \"GitHub/contract-token-cryptoMonster/backend/shared/lib/structures.sol\":1123:1161  uint256 public tokenPrice_ = 750000000 */\n    tag_3:\n      tag_6\n      tag_7\n      jump\t// in\n    tag_6:\n      mload(0x40)\n      tag_8\n      swap2\n      swap1\n      tag_9\n      jump\t// in\n    tag_8:\n      mload(0x40)\n      dup1\n      swap2\n      sub\n      swap1\n      return\n        /* \"GitHub/contract-token-cryptoMonster/backend/shared/lib/structures.sol\":1385:1418  uint public tokenAmount_ = 100000 */\n    tag_4:\n      tag_10\n      tag_11\n      jump\t// in\n    tag_10:\n      mload(0x40)\n      tag_12\n      swap2\n      swap1\n      tag_9\n      jump\t// in\n    tag_12:\n      mload(0x40)\n      dup1\n      swap2\n      sub\n      swap1\n      return\n        /* \"GitHub/contract-token-cryptoMonster/backend/shared/lib/structures.sol\":836:887  mapping (address => structUser) public structUsers_ */\n    tag_5:\n      tag_13\n      0x04\n      dup1\n      calldatasize\n      sub\n      dup2\n      add\n      swap1\n      tag_14\n      swap2\n      swap1\n      tag_15\n      jump\t// in\n    tag_14:\n      tag_16\n      jump\t// in\n    tag_13:\n      mload(0x40)\n      tag_17\n      swap8\n      swap7\n      swap6\n      swap5\n      swap4\n      swap3\n      swap2\n      swap1\n      tag_18\n      jump\t// in\n    tag_17:\n      mload(0x40)\n      dup1\n      swap2\n      sub\n      swap1\n      return\n        /* \"GitHub/contract-token-cryptoMonster/backend/shared/lib/structures.sol\":1123:1161  uint256 public tokenPrice_ = 750000000 */\n    tag_7:\n      sload(0x02)\n      dup2\n      jump\t// out\n        /* \"GitHub/contract-token-cryptoMonster/backend/shared/lib/structures.sol\":1385:1418  uint public tokenAmount_ = 100000 */\n    tag_11:\n      sload(0x03)\n      dup2\n      jump\t// out\n        /* \"GitHub/contract-token-cryptoMonster/backend/shared/lib/structures.sol\":836:887  mapping (address => structUser) public structUsers_ */\n    tag_16:\n      mstore(0x20, 0x00)\n      dup1\n      0x00\n      mstore\n      keccak256(0x00, 0x40)\n      0x00\n      swap2\n      pop\n      swap1\n      pop\n      dup1\n      0x00\n      add\n      0x00\n      swap1\n      sload\n      swap1\n      0x0100\n      exp\n      swap1\n      div\n      0xff\n      and\n      swap1\n      dup1\n      0x01\n      add\n      dup1\n      sload\n      tag_19\n      swap1\n      tag_20\n      jump\t// in\n    tag_19:\n      dup1\n      0x1f\n      add\n      0x20\n      dup1\n      swap2\n      div\n      mul\n      0x20\n      add\n      mload(0x40)\n      swap1\n      dup2\n      add\n      0x40\n      mstore\n      dup1\n      swap3\n      swap2\n      swap1\n      dup2\n      dup2\n      mstore\n      0x20\n      add\n      dup3\n      dup1\n      sload\n      tag_21\n      swap1\n      tag_20\n      jump\t// in\n    tag_21:\n      dup1\n      iszero\n      tag_22\n      jumpi\n      dup1\n      0x1f\n      lt\n      tag_23\n      jumpi\n      0x0100\n      dup1\n      dup4\n      sload\n      div\n      mul\n      dup4\n      mstore\n      swap2\n      0x20\n      add\n      swap2\n      jump(tag_22)\n    tag_23:\n      dup3\n      add\n      swap2\n      swap1\n      0x00\n      mstore\n      keccak256(0x00, 0x20)\n      swap1\n    tag_24:\n      dup2\n      sload\n      dup2\n      mstore\n      swap1\n      0x01\n      add\n      swap1\n      0x20\n      add\n      dup1\n      dup4\n      gt\n      tag_24\n      jumpi\n      dup3\n      swap1\n      sub\n      0x1f\n      and\n      dup3\n      add\n      swap2\n    tag_22:\n      pop\n      pop\n      pop\n      pop\n      pop\n      swap1\n      dup1\n      0x02\n      add\n      sload\n      swap1\n      dup1\n      0x03\n      add\n      sload\n      swap1\n      dup1\n      0x04\n      add\n      sload\n      swap1\n      dup1\n      0x05\n      add\n      sload\n      swap1\n      dup1\n      0x06\n      add\n      sload\n      swap1\n      pop\n      dup8\n      jump\t// out\n        /* \"#utility.yul\":7:146   */\n    tag_26:\n        /* \"#utility.yul\":53:58   */\n      0x00\n        /* \"#utility.yul\":91:97   */\n      dup2\n        /* \"#utility.yul\":78:98   */\n      calldataload\n        /* \"#utility.yul\":69:98   */\n      swap1\n      pop\n        /* \"#utility.yul\":107:140   */\n      tag_28\n        /* \"#utility.yul\":134:139   */\n      dup2\n        /* \"#utility.yul\":107:140   */\n      tag_29\n      jump\t// in\n    tag_28:\n        /* \"#utility.yul\":7:146   */\n      swap3\n      swap2\n      pop\n      pop\n      jump\t// out\n        /* \"#utility.yul\":152:481   */\n    tag_15:\n        /* \"#utility.yul\":211:217   */\n      0x00\n        /* \"#utility.yul\":260:262   */\n      0x20\n        /* \"#utility.yul\":248:257   */\n      dup3\n        /* \"#utility.yul\":239:246   */\n      dup5\n        /* \"#utility.yul\":235:258   */\n      sub\n        /* \"#utility.yul\":231:263   */\n      slt\n        /* \"#utility.yul\":228:347   */\n      iszero\n      tag_31\n      jumpi\n        /* \"#utility.yul\":266:345   */\n      tag_32\n      tag_33\n      jump\t// in\n    tag_32:\n        /* \"#utility.yul\":228:347   */\n    tag_31:\n        /* \"#utility.yul\":386:387   */\n      0x00\n        /* \"#utility.yul\":411:464   */\n      tag_34\n        /* \"#utility.yul\":456:463   */\n      dup5\n        /* \"#utility.yul\":447:453   */\n      dup3\n        /* \"#utility.yul\":436:445   */\n      dup6\n        /* \"#utility.yul\":432:454   */\n      add\n        /* \"#utility.yul\":411:464   */\n      tag_26\n      jump\t// in\n    tag_34:\n        /* \"#utility.yul\":401:464   */\n      swap2\n      pop\n        /* \"#utility.yul\":357:474   */\n      pop\n        /* \"#utility.yul\":152:481   */\n      swap3\n      swap2\n      pop\n      pop\n      jump\t// out\n        /* \"#utility.yul\":487:605   */\n    tag_35:\n        /* \"#utility.yul\":574:598   */\n      tag_37\n        /* \"#utility.yul\":592:597   */\n      dup2\n        /* \"#utility.yul\":574:598   */\n      tag_38\n      jump\t// in\n    tag_37:\n        /* \"#utility.yul\":569:572   */\n      dup3\n        /* \"#utility.yul\":562:599   */\n      mstore\n        /* \"#utility.yul\":487:605   */\n      pop\n      pop\n      jump\t// out\n        /* \"#utility.yul\":611:750   */\n    tag_39:\n        /* \"#utility.yul\":702:743   */\n      tag_41\n        /* \"#utility.yul\":737:742   */\n      dup2\n        /* \"#utility.yul\":702:743   */\n      tag_42\n      jump\t// in\n    tag_41:\n        /* \"#utility.yul\":697:700   */\n      dup3\n        /* \"#utility.yul\":690:744   */\n      mstore\n        /* \"#utility.yul\":611:750   */\n      pop\n      pop\n      jump\t// out\n        /* \"#utility.yul\":756:1120   */\n    tag_43:\n        /* \"#utility.yul\":844:847   */\n      0x00\n        /* \"#utility.yul\":872:911   */\n      tag_45\n        /* \"#utility.yul\":905:910   */\n      dup3\n        /* \"#utility.yul\":872:911   */\n      tag_46\n      jump\t// in\n    tag_45:\n        /* \"#utility.yul\":927:998   */\n      tag_47\n        /* \"#utility.yul\":991:997   */\n      dup2\n        /* \"#utility.yul\":986:989   */\n      dup6\n        /* \"#utility.yul\":927:998   */\n      tag_48\n      jump\t// in\n    tag_47:\n        /* \"#utility.yul\":920:998   */\n      swap4\n      pop\n        /* \"#utility.yul\":1007:1059   */\n      tag_49\n        /* \"#utility.yul\":1052:1058   */\n      dup2\n        /* \"#utility.yul\":1047:1050   */\n      dup6\n        /* \"#utility.yul\":1040:1044   */\n      0x20\n        /* \"#utility.yul\":1033:1038   */\n      dup7\n        /* \"#utility.yul\":1029:1045   */\n      add\n        /* \"#utility.yul\":1007:1059   */\n      tag_50\n      jump\t// in\n    tag_49:\n        /* \"#utility.yul\":1084:1113   */\n      tag_51\n        /* \"#utility.yul\":1106:1112   */\n      dup2\n        /* \"#utility.yul\":1084:1113   */\n      tag_52\n      jump\t// in\n    tag_51:\n        /* \"#utility.yul\":1079:1082   */\n      dup5\n        /* \"#utility.yul\":1075:1114   */\n      add\n        /* \"#utility.yul\":1068:1114   */\n      swap2\n      pop\n        /* \"#utility.yul\":848:1120   */\n      pop\n        /* \"#utility.yul\":756:1120   */\n      swap3\n      swap2\n      pop\n      pop\n      jump\t// out\n        /* \"#utility.yul\":1126:1244   */\n    tag_53:\n        /* \"#utility.yul\":1213:1237   */\n      tag_55\n        /* \"#utility.yul\":1231:1236   */\n      dup2\n        /* \"#utility.yul\":1213:1237   */\n      tag_56\n      jump\t// in\n    tag_55:\n        /* \"#utility.yul\":1208:1211   */\n      dup3\n        /* \"#utility.yul\":1201:1238   */\n      mstore\n        /* \"#utility.yul\":1126:1244   */\n      pop\n      pop\n      jump\t// out\n        /* \"#utility.yul\":1250:2235   */\n    tag_18:\n        /* \"#utility.yul\":1535:1539   */\n      0x00\n        /* \"#utility.yul\":1573:1576   */\n      0xe0\n        /* \"#utility.yul\":1562:1571   */\n      dup3\n        /* \"#utility.yul\":1558:1577   */\n      add\n        /* \"#utility.yul\":1550:1577   */\n      swap1\n      pop\n        /* \"#utility.yul\":1587:1662   */\n      tag_58\n        /* \"#utility.yul\":1659:1660   */\n      0x00\n        /* \"#utility.yul\":1648:1657   */\n      dup4\n        /* \"#utility.yul\":1644:1661   */\n      add\n        /* \"#utility.yul\":1635:1641   */\n      dup11\n        /* \"#utility.yul\":1587:1662   */\n      tag_39\n      jump\t// in\n    tag_58:\n        /* \"#utility.yul\":1709:1718   */\n      dup2\n        /* \"#utility.yul\":1703:1707   */\n      dup2\n        /* \"#utility.yul\":1699:1719   */\n      sub\n        /* \"#utility.yul\":1694:1696   */\n      0x20\n        /* \"#utility.yul\":1683:1692   */\n      dup4\n        /* \"#utility.yul\":1679:1697   */\n      add\n        /* \"#utility.yul\":1672:1720   */\n      mstore\n        /* \"#utility.yul\":1737:1815   */\n      tag_59\n        /* \"#utility.yul\":1810:1814   */\n      dup2\n        /* \"#utility.yul\":1801:1807   */\n      dup10\n        /* \"#utility.yul\":1737:1815   */\n      tag_43\n      jump\t// in\n    tag_59:\n        /* \"#utility.yul\":1729:1815   */\n      swap1\n      pop\n        /* \"#utility.yul\":1825:1897   */\n      tag_60\n        /* \"#utility.yul\":1893:1895   */\n      0x40\n        /* \"#utility.yul\":1882:1891   */\n      dup4\n        /* \"#utility.yul\":1878:1896   */\n      add\n        /* \"#utility.yul\":1869:1875   */\n      dup9\n        /* \"#utility.yul\":1825:1897   */\n      tag_35\n      jump\t// in\n    tag_60:\n        /* \"#utility.yul\":1907:1979   */\n      tag_61\n        /* \"#utility.yul\":1975:1977   */\n      0x60\n        /* \"#utility.yul\":1964:1973   */\n      dup4\n        /* \"#utility.yul\":1960:1978   */\n      add\n        /* \"#utility.yul\":1951:1957   */\n      dup8\n        /* \"#utility.yul\":1907:1979   */\n      tag_53\n      jump\t// in\n    tag_61:\n        /* \"#utility.yul\":1989:2062   */\n      tag_62\n        /* \"#utility.yul\":2057:2060   */\n      0x80\n        /* \"#utility.yul\":2046:2055   */\n      dup4\n        /* \"#utility.yul\":2042:2061   */\n      add\n        /* \"#utility.yul\":2033:2039   */\n      dup7\n        /* \"#utility.yul\":1989:2062   */\n      tag_53\n      jump\t// in\n    tag_62:\n        /* \"#utility.yul\":2072:2145   */\n      tag_63\n        /* \"#utility.yul\":2140:2143   */\n      0xa0\n        /* \"#utility.yul\":2129:2138   */\n      dup4\n        /* \"#utility.yul\":2125:2144   */\n      add\n        /* \"#utility.yul\":2116:2122   */\n      dup6\n        /* \"#utility.yul\":2072:2145   */\n      tag_53\n      jump\t// in\n    tag_63:\n        /* \"#utility.yul\":2155:2228   */\n      tag_64\n        /* \"#utility.yul\":2223:2226   */\n      0xc0\n        /* \"#utility.yul\":2212:2221   */\n      dup4\n        /* \"#utility.yul\":2208:2227   */\n      add\n        /* \"#utility.yul\":2199:2205   */\n      dup5\n        /* \"#utility.yul\":2155:2228   */\n      tag_53\n      jump\t// in\n    tag_64:\n        /* \"#utility.yul\":1250:2235   */\n      swap9\n      swap8\n      pop\n      pop\n      pop\n      pop\n      pop\n      pop\n      pop\n      pop\n      jump\t// out\n        /* \"#utility.yul\":2241:2463   */\n    tag_9:\n        /* \"#utility.yul\":2334:2338   */\n      0x00\n        /* \"#utility.yul\":2372:2374   */\n      0x20\n        /* \"#utility.yul\":2361:2370   */\n      dup3\n        /* \"#utility.yul\":2357:2375   */\n      add\n        /* \"#utility.yul\":2349:2375   */\n      swap1\n      pop\n        /* \"#utility.yul\":2385:2456   */\n      tag_66\n        /* \"#utility.yul\":2453:2454   */\n      0x00\n        /* \"#utility.yul\":2442:2451   */\n      dup4\n        /* \"#utility.yul\":2438:2455   */\n      add\n        /* \"#utility.yul\":2429:2435   */\n      dup5\n        /* \"#utility.yul\":2385:2456   */\n      tag_53\n      jump\t// in\n    tag_66:\n        /* \"#utility.yul\":2241:2463   */\n      swap3\n      swap2\n      pop\n      pop\n      jump\t// out\n        /* \"#utility.yul\":2550:2649   */\n    tag_46:\n        /* \"#utility.yul\":2602:2608   */\n      0x00\n        /* \"#utility.yul\":2636:2641   */\n      dup2\n        /* \"#utility.yul\":2630:2642   */\n      mload\n        /* \"#utility.yul\":2620:2642   */\n      swap1\n      pop\n        /* \"#utility.yul\":2550:2649   */\n      swap2\n      swap1\n      pop\n      jump\t// out\n        /* \"#utility.yul\":2655:2824   */\n    tag_48:\n        /* \"#utility.yul\":2739:2750   */\n      0x00\n        /* \"#utility.yul\":2773:2779   */\n      dup3\n        /* \"#utility.yul\":2768:2771   */\n      dup3\n        /* \"#utility.yul\":2761:2780   */\n      mstore\n        /* \"#utility.yul\":2813:2817   */\n      0x20\n        /* \"#utility.yul\":2808:2811   */\n      dup3\n        /* \"#utility.yul\":2804:2818   */\n      add\n        /* \"#utility.yul\":2789:2818   */\n      swap1\n      pop\n        /* \"#utility.yul\":2655:2824   */\n      swap3\n      swap2\n      pop\n      pop\n      jump\t// out\n        /* \"#utility.yul\":2830:2926   */\n    tag_71:\n        /* \"#utility.yul\":2867:2874   */\n      0x00\n        /* \"#utility.yul\":2896:2920   */\n      tag_73\n        /* \"#utility.yul\":2914:2919   */\n      dup3\n        /* \"#utility.yul\":2896:2920   */\n      tag_74\n      jump\t// in\n    tag_73:\n        /* \"#utility.yul\":2885:2920   */\n      swap1\n      pop\n        /* \"#utility.yul\":2830:2926   */\n      swap2\n      swap1\n      pop\n      jump\t// out\n        /* \"#utility.yul\":2932:3009   */\n    tag_38:\n        /* \"#utility.yul\":2969:2976   */\n      0x00\n        /* \"#utility.yul\":2998:3003   */\n      dup2\n        /* \"#utility.yul\":2987:3003   */\n      swap1\n      pop\n        /* \"#utility.yul\":2932:3009   */\n      swap2\n      swap1\n      pop\n      jump\t// out\n        /* \"#utility.yul\":3015:3138   */\n    tag_76:\n        /* \"#utility.yul\":3058:3065   */\n      0x00\n        /* \"#utility.yul\":3087:3092   */\n      dup2\n        /* \"#utility.yul\":3076:3092   */\n      swap1\n      pop\n        /* \"#utility.yul\":3093:3132   */\n      tag_78\n        /* \"#utility.yul\":3126:3131   */\n      dup3\n        /* \"#utility.yul\":3093:3132   */\n      tag_79\n      jump\t// in\n    tag_78:\n        /* \"#utility.yul\":3015:3138   */\n      swap2\n      swap1\n      pop\n      jump\t// out\n        /* \"#utility.yul\":3144:3270   */\n    tag_74:\n        /* \"#utility.yul\":3181:3188   */\n      0x00\n        /* \"#utility.yul\":3221:3263   */\n      0xffffffffffffffffffffffffffffffffffffffff\n        /* \"#utility.yul\":3214:3219   */\n      dup3\n        /* \"#utility.yul\":3210:3264   */\n      and\n        /* \"#utility.yul\":3199:3264   */\n      swap1\n      pop\n        /* \"#utility.yul\":3144:3270   */\n      swap2\n      swap1\n      pop\n      jump\t// out\n        /* \"#utility.yul\":3276:3353   */\n    tag_56:\n        /* \"#utility.yul\":3313:3320   */\n      0x00\n        /* \"#utility.yul\":3342:3347   */\n      dup2\n        /* \"#utility.yul\":3331:3347   */\n      swap1\n      pop\n        /* \"#utility.yul\":3276:3353   */\n      swap2\n      swap1\n      pop\n      jump\t// out\n        /* \"#utility.yul\":3359:3482   */\n    tag_42:\n        /* \"#utility.yul\":3413:3422   */\n      0x00\n        /* \"#utility.yul\":3446:3476   */\n      tag_83\n        /* \"#utility.yul\":3470:3475   */\n      dup3\n        /* \"#utility.yul\":3446:3476   */\n      tag_76\n      jump\t// in\n    tag_83:\n        /* \"#utility.yul\":3433:3476   */\n      swap1\n      pop\n        /* \"#utility.yul\":3359:3482   */\n      swap2\n      swap1\n      pop\n      jump\t// out\n        /* \"#utility.yul\":3488:3795   */\n    tag_50:\n        /* \"#utility.yul\":3556:3557   */\n      0x00\n        /* \"#utility.yul\":3566:3679   */\n    tag_85:\n        /* \"#utility.yul\":3580:3586   */\n      dup4\n        /* \"#utility.yul\":3577:3578   */\n      dup2\n        /* \"#utility.yul\":3574:3587   */\n      lt\n        /* \"#utility.yul\":3566:3679   */\n      iszero\n      tag_87\n      jumpi\n        /* \"#utility.yul\":3665:3666   */\n      dup1\n        /* \"#utility.yul\":3660:3663   */\n      dup3\n        /* \"#utility.yul\":3656:3667   */\n      add\n        /* \"#utility.yul\":3650:3668   */\n      mload\n        /* \"#utility.yul\":3646:3647   */\n      dup2\n        /* \"#utility.yul\":3641:3644   */\n      dup5\n        /* \"#utility.yul\":3637:3648   */\n      add\n        /* \"#utility.yul\":3630:3669   */\n      mstore\n        /* \"#utility.yul\":3602:3604   */\n      0x20\n        /* \"#utility.yul\":3599:3600   */\n      dup2\n        /* \"#utility.yul\":3595:3605   */\n      add\n        /* \"#utility.yul\":3590:3605   */\n      swap1\n      pop\n        /* \"#utility.yul\":3566:3679   */\n      jump(tag_85)\n    tag_87:\n        /* \"#utility.yul\":3697:3703   */\n      dup4\n        /* \"#utility.yul\":3694:3695   */\n      dup2\n        /* \"#utility.yul\":3691:3704   */\n      gt\n        /* \"#utility.yul\":3688:3789   */\n      iszero\n      tag_88\n      jumpi\n        /* \"#utility.yul\":3777:3778   */\n      0x00\n        /* \"#utility.yul\":3768:3774   */\n      dup5\n        /* \"#utility.yul\":3763:3766   */\n      dup5\n        /* \"#utility.yul\":3759:3775   */\n      add\n        /* \"#utility.yul\":3752:3779   */\n      mstore\n        /* \"#utility.yul\":3688:3789   */\n    tag_88:\n        /* \"#utility.yul\":3537:3795   */\n      pop\n        /* \"#utility.yul\":3488:3795   */\n      pop\n      pop\n      pop\n      jump\t// out\n        /* \"#utility.yul\":3801:4121   */\n    tag_20:\n        /* \"#utility.yul\":3845:3851   */\n      0x00\n        /* \"#utility.yul\":3882:3883   */\n      0x02\n        /* \"#utility.yul\":3876:3880   */\n      dup3\n        /* \"#utility.yul\":3872:3884   */\n      div\n        /* \"#utility.yul\":3862:3884   */\n      swap1\n      pop\n        /* \"#utility.yul\":3929:3930   */\n      0x01\n        /* \"#utility.yul\":3923:3927   */\n      dup3\n        /* \"#utility.yul\":3919:3931   */\n      and\n        /* \"#utility.yul\":3950:3968   */\n      dup1\n        /* \"#utility.yul\":3940:4021   */\n      tag_90\n      jumpi\n        /* \"#utility.yul\":4006:4010   */\n      0x7f\n        /* \"#utility.yul\":3998:4004   */\n      dup3\n        /* \"#utility.yul\":3994:4011   */\n      and\n        /* \"#utility.yul\":3984:4011   */\n      swap2\n      pop\n        /* \"#utility.yul\":3940:4021   */\n    tag_90:\n        /* \"#utility.yul\":4068:4070   */\n      0x20\n        /* \"#utility.yul\":4060:4066   */\n      dup3\n        /* \"#utility.yul\":4057:4071   */\n      lt\n        /* \"#utility.yul\":4037:4055   */\n      dup2\n        /* \"#utility.yul\":4034:4072   */\n      eq\n        /* \"#utility.yul\":4031:4115   */\n      iszero\n      tag_91\n      jumpi\n        /* \"#utility.yul\":4087:4105   */\n      tag_92\n      tag_93\n      jump\t// in\n    tag_92:\n        /* \"#utility.yul\":4031:4115   */\n    tag_91:\n        /* \"#utility.yul\":3852:4121   */\n      pop\n        /* \"#utility.yul\":3801:4121   */\n      swap2\n      swap1\n      pop\n      jump\t// out\n        /* \"#utility.yul\":4127:4307   */\n    tag_94:\n        /* \"#utility.yul\":4175:4252   */\n      0x4e487b7100000000000000000000000000000000000000000000000000000000\n        /* \"#utility.yul\":4172:4173   */\n      0x00\n        /* \"#utility.yul\":4165:4253   */\n      mstore\n        /* \"#utility.yul\":4272:4276   */\n      0x21\n        /* \"#utility.yul\":4269:4270   */\n      0x04\n        /* \"#utility.yul\":4262:4277   */\n      mstore\n        /* \"#utility.yul\":4296:4300   */\n      0x24\n        /* \"#utility.yul\":4293:4294   */\n      0x00\n        /* \"#utility.yul\":4286:4301   */\n      revert\n        /* \"#utility.yul\":4313:4493   */\n    tag_93:\n        /* \"#utility.yul\":4361:4438   */\n      0x4e487b7100000000000000000000000000000000000000000000000000000000\n        /* \"#utility.yul\":4358:4359   */\n      0x00\n        /* \"#utility.yul\":4351:4439   */\n      mstore\n        /* \"#utility.yul\":4458:4462   */\n      0x22\n        /* \"#utility.yul\":4455:4456   */\n      0x04\n        /* \"#utility.yul\":4448:4463   */\n      mstore\n        /* \"#utility.yul\":4482:4486   */\n      0x24\n        /* \"#utility.yul\":4479:4480   */\n      0x00\n        /* \"#utility.yul\":4472:4487   */\n      revert\n        /* \"#utility.yul\":4622:4739   */\n    tag_33:\n        /* \"#utility.yul\":4731:4732   */\n      0x00\n        /* \"#utility.yul\":4728:4729   */\n      dup1\n        /* \"#utility.yul\":4721:4733   */\n      revert\n        /* \"#utility.yul\":4745:4847   */\n    tag_52:\n        /* \"#utility.yul\":4786:4792   */\n      0x00\n        /* \"#utility.yul\":4837:4839   */\n      0x1f\n        /* \"#utility.yul\":4833:4840   */\n      not\n        /* \"#utility.yul\":4828:4830   */\n      0x1f\n        /* \"#utility.yul\":4821:4826   */\n      dup4\n        /* \"#utility.yul\":4817:4831   */\n      add\n        /* \"#utility.yul\":4813:4841   */\n      and\n        /* \"#utility.yul\":4803:4841   */\n      swap1\n      pop\n        /* \"#utility.yul\":4745:4847   */\n      swap2\n      swap1\n      pop\n      jump\t// out\n        /* \"#utility.yul\":4853:4964   */\n    tag_79:\n        /* \"#utility.yul\":4932:4933   */\n      0x05\n        /* \"#utility.yul\":4925:4930   */\n      dup2\n        /* \"#utility.yul\":4922:4934   */\n      lt\n        /* \"#utility.yul\":4912:4958   */\n      tag_102\n      jumpi\n        /* \"#utility.yul\":4938:4956   */\n      tag_103\n      tag_94\n      jump\t// in\n    tag_103:\n        /* \"#utility.yul\":4912:4958   */\n    tag_102:\n        /* \"#utility.yul\":4853:4964   */\n      pop\n      jump\t// out\n        /* \"#utility.yul\":4970:5092   */\n    tag_29:\n        /* \"#utility.yul\":5043:5067   */\n      tag_105\n        /* \"#utility.yul\":5061:5066   */\n      dup2\n        /* \"#utility.yul\":5043:5067   */\n      tag_71\n      jump\t// in\n    tag_105:\n        /* \"#utility.yul\":5036:5041   */\n      dup2\n        /* \"#utility.yul\":5033:5068   */\n      eq\n        /* \"#utility.yul\":5023:5086   */\n      tag_106\n      jumpi\n        /* \"#utility.yul\":5082:5083   */\n      0x00\n        /* \"#utility.yul\":5079:5080   */\n      dup1\n        /* \"#utility.yul\":5072:5084   */\n      revert\n        /* \"#utility.yul\":5023:5086   */\n    tag_106:\n        /* \"#utility.yul\":4970:5092   */\n      pop\n      jump\t// out\n\n    auxdata: 0xa2646970667358221220bddead9e3385e06d6f47f8e955439bb4fa02d9449c4e64fdc217de92cd7495ad64736f6c63430008070033\n}\n",
				"bytecode": {
					"linkReferences": {},
					"object": "6080604052632cb41780600255620186a060035534801561001f57600080fd5b506104958061002f6000396000f3fe608060405234801561001057600080fd5b50600436106100415760003560e01c80630761c8b914610046578063948942ad14610064578063fc83725914610082575b600080fd5b61004e6100b8565b60405161005b91906102b9565b60405180910390f35b61006c6100be565b60405161007991906102b9565b60405180910390f35b61009c600480360381019061009791906101b0565b6100c4565b6040516100af9796959493929190610243565b60405180910390f35b60025481565b60035481565b60006020528060005260406000206000915090508060000160009054906101000a900460ff16908060010180546100fa9061038e565b80601f01602080910402602001604051908101604052809291908181526020018280546101269061038e565b80156101735780601f1061014857610100808354040283529160200191610173565b820191906000526020600020905b81548152906001019060200180831161015657829003601f168201915b5050505050908060020154908060030154908060040154908060050154908060060154905087565b6000813590506101aa81610448565b92915050565b6000602082840312156101c6576101c561041e565b5b60006101d48482850161019b565b91505092915050565b6101e681610302565b82525050565b6101f581610349565b82525050565b6000610206826102d4565b61021081856102df565b935061022081856020860161035b565b61022981610423565b840191505092915050565b61023d8161033f565b82525050565b600060e082019050610258600083018a6101ec565b818103602083015261026a81896101fb565b905061027960408301886101dd565b6102866060830187610234565b6102936080830186610234565b6102a060a0830185610234565b6102ad60c0830184610234565b98975050505050505050565b60006020820190506102ce6000830184610234565b92915050565b600081519050919050565b600082825260208201905092915050565b60006102fb8261031f565b9050919050565b6000819050919050565b600081905061031a82610434565b919050565b600073ffffffffffffffffffffffffffffffffffffffff82169050919050565b6000819050919050565b60006103548261030c565b9050919050565b60005b8381101561037957808201518184015260208101905061035e565b83811115610388576000848401525b50505050565b600060028204905060018216806103a657607f821691505b602082108114156103ba576103b96103ef565b5b50919050565b7f4e487b7100000000000000000000000000000000000000000000000000000000600052602160045260246000fd5b7f4e487b7100000000000000000000000000000000000000000000000000000000600052602260045260246000fd5b600080fd5b6000601f19601f8301169050919050565b60058110610445576104446103c0565b5b50565b610451816102f0565b811461045c57600080fd5b5056fea2646970667358221220bddead9e3385e06d6f47f8e955439bb4fa02d9449c4e64fdc217de92cd7495ad64736f6c63430008070033",
					"opcodes": "PUSH1 0x80 PUSH1 0x40 MSTORE PUSH4 0x2CB41780 PUSH1 0x2 SSTORE PUSH3 0x186A0 PUSH1 0x3 SSTORE CALLVALUE DUP1 ISZERO PUSH2 0x1F JUMPI PUSH1 0x0 DUP1 REVERT JUMPDEST POP PUSH2 0x495 DUP1 PUSH2 0x2F PUSH1 0x0 CODECOPY PUSH1 0x0 RETURN INVALID PUSH1 0x80 PUSH1 0x40 MSTORE CALLVALUE DUP1 ISZERO PUSH2 0x10 JUMPI PUSH1 0x0 DUP1 REVERT JUMPDEST POP PUSH1 0x4 CALLDATASIZE LT PUSH2 0x41 JUMPI PUSH1 0x0 CALLDATALOAD PUSH1 0xE0 SHR DUP1 PUSH4 0x761C8B9 EQ PUSH2 0x46 JUMPI DUP1 PUSH4 0x948942AD EQ PUSH2 0x64 JUMPI DUP1 PUSH4 0xFC837259 EQ PUSH2 0x82 JUMPI JUMPDEST PUSH1 0x0 DUP1 REVERT JUMPDEST PUSH2 0x4E PUSH2 0xB8 JUMP JUMPDEST PUSH1 0x40 MLOAD PUSH2 0x5B SWAP2 SWAP1 PUSH2 0x2B9 JUMP JUMPDEST PUSH1 0x40 MLOAD DUP1 SWAP2 SUB SWAP1 RETURN JUMPDEST PUSH2 0x6C PUSH2 0xBE JUMP JUMPDEST PUSH1 0x40 MLOAD PUSH2 0x79 SWAP2 SWAP1 PUSH2 0x2B9 JUMP JUMPDEST PUSH1 0x40 MLOAD DUP1 SWAP2 SUB SWAP1 RETURN JUMPDEST PUSH2 0x9C PUSH1 0x4 DUP1 CALLDATASIZE SUB DUP2 ADD SWAP1 PUSH2 0x97 SWAP2 SWAP1 PUSH2 0x1B0 JUMP JUMPDEST PUSH2 0xC4 JUMP JUMPDEST PUSH1 0x40 MLOAD PUSH2 0xAF SWAP8 SWAP7 SWAP6 SWAP5 SWAP4 SWAP3 SWAP2 SWAP1 PUSH2 0x243 JUMP JUMPDEST PUSH1 0x40 MLOAD DUP1 SWAP2 SUB SWAP1 RETURN JUMPDEST PUSH1 0x2 SLOAD DUP2 JUMP JUMPDEST PUSH1 0x3 SLOAD DUP2 JUMP JUMPDEST PUSH1 0x0 PUSH1 0x20 MSTORE DUP1 PUSH1 0x0 MSTORE PUSH1 0x40 PUSH1 0x0 KECCAK256 PUSH1 0x0 SWAP2 POP SWAP1 POP DUP1 PUSH1 0x0 ADD PUSH1 0x0 SWAP1 SLOAD SWAP1 PUSH2 0x100 EXP SWAP1 DIV PUSH1 0xFF AND SWAP1 DUP1 PUSH1 0x1 ADD DUP1 SLOAD PUSH2 0xFA SWAP1 PUSH2 0x38E JUMP JUMPDEST DUP1 PUSH1 0x1F ADD PUSH1 0x20 DUP1 SWAP2 DIV MUL PUSH1 0x20 ADD PUSH1 0x40 MLOAD SWAP1 DUP2 ADD PUSH1 0x40 MSTORE DUP1 SWAP3 SWAP2 SWAP1 DUP2 DUP2 MSTORE PUSH1 0x20 ADD DUP3 DUP1 SLOAD PUSH2 0x126 SWAP1 PUSH2 0x38E JUMP JUMPDEST DUP1 ISZERO PUSH2 0x173 JUMPI DUP1 PUSH1 0x1F LT PUSH2 0x148 JUMPI PUSH2 0x100 DUP1 DUP4 SLOAD DIV MUL DUP4 MSTORE SWAP2 PUSH1 0x20 ADD SWAP2 PUSH2 0x173 JUMP JUMPDEST DUP3 ADD SWAP2 SWAP1 PUSH1 0x0 MSTORE PUSH1 0x20 PUSH1 0x0 KECCAK256 SWAP1 JUMPDEST DUP2 SLOAD DUP2 MSTORE SWAP1 PUSH1 0x1 ADD SWAP1 PUSH1 0x20 ADD DUP1 DUP4 GT PUSH2 0x156 JUMPI DUP3 SWAP1 SUB PUSH1 0x1F AND DUP3 ADD SWAP2 JUMPDEST POP POP POP POP POP SWAP1 DUP1 PUSH1 0x2 ADD SLOAD SWAP1 DUP1 PUSH1 0x3 ADD SLOAD SWAP1 DUP1 PUSH1 0x4 ADD SLOAD SWAP1 DUP1 PUSH1 0x5 ADD SLOAD SWAP1 DUP1 PUSH1 0x6 ADD SLOAD SWAP1 POP DUP8 JUMP JUMPDEST PUSH1 0x0 DUP2 CALLDATALOAD SWAP1 POP PUSH2 0x1AA DUP2 PUSH2 0x448 JUMP JUMPDEST SWAP3 SWAP2 POP POP JUMP JUMPDEST PUSH1 0x0 PUSH1 0x20 DUP3 DUP5 SUB SLT ISZERO PUSH2 0x1C6 JUMPI PUSH2 0x1C5 PUSH2 0x41E JUMP JUMPDEST JUMPDEST PUSH1 0x0 PUSH2 0x1D4 DUP5 DUP3 DUP6 ADD PUSH2 0x19B JUMP JUMPDEST SWAP2 POP POP SWAP3 SWAP2 POP POP JUMP JUMPDEST PUSH2 0x1E6 DUP2 PUSH2 0x302 JUMP JUMPDEST DUP3 MSTORE POP POP JUMP JUMPDEST PUSH2 0x1F5 DUP2 PUSH2 0x349 JUMP JUMPDEST DUP3 MSTORE POP POP JUMP JUMPDEST PUSH1 0x0 PUSH2 0x206 DUP3 PUSH2 0x2D4 JUMP JUMPDEST PUSH2 0x210 DUP2 DUP6 PUSH2 0x2DF JUMP JUMPDEST SWAP4 POP PUSH2 0x220 DUP2 DUP6 PUSH1 0x20 DUP7 ADD PUSH2 0x35B JUMP JUMPDEST PUSH2 0x229 DUP2 PUSH2 0x423 JUMP JUMPDEST DUP5 ADD SWAP2 POP POP SWAP3 SWAP2 POP POP JUMP JUMPDEST PUSH2 0x23D DUP2 PUSH2 0x33F JUMP JUMPDEST DUP3 MSTORE POP POP JUMP JUMPDEST PUSH1 0x0 PUSH1 0xE0 DUP3 ADD SWAP1 POP PUSH2 0x258 PUSH1 0x0 DUP4 ADD DUP11 PUSH2 0x1EC JUMP JUMPDEST DUP2 DUP2 SUB PUSH1 0x20 DUP4 ADD MSTORE PUSH2 0x26A DUP2 DUP10 PUSH2 0x1FB JUMP JUMPDEST SWAP1 POP PUSH2 0x279 PUSH1 0x40 DUP4 ADD DUP9 PUSH2 0x1DD JUMP JUMPDEST PUSH2 0x286 PUSH1 0x60 DUP4 ADD DUP8 PUSH2 0x234 JUMP JUMPDEST PUSH2 0x293 PUSH1 0x80 DUP4 ADD DUP7 PUSH2 0x234 JUMP JUMPDEST PUSH2 0x2A0 PUSH1 0xA0 DUP4 ADD DUP6 PUSH2 0x234 JUMP JUMPDEST PUSH2 0x2AD PUSH1 0xC0 DUP4 ADD DUP5 PUSH2 0x234 JUMP JUMPDEST SWAP9 SWAP8 POP POP POP POP POP POP POP POP JUMP JUMPDEST PUSH1 0x0 PUSH1 0x20 DUP3 ADD SWAP1 POP PUSH2 0x2CE PUSH1 0x0 DUP4 ADD DUP5 PUSH2 0x234 JUMP JUMPDEST SWAP3 SWAP2 POP POP JUMP JUMPDEST PUSH1 0x0 DUP2 MLOAD SWAP1 POP SWAP2 SWAP1 POP JUMP JUMPDEST PUSH1 0x0 DUP3 DUP3 MSTORE PUSH1 0x20 DUP3 ADD SWAP1 POP SWAP3 SWAP2 POP POP JUMP JUMPDEST PUSH1 0x0 PUSH2 0x2FB DUP3 PUSH2 0x31F JUMP JUMPDEST SWAP1 POP SWAP2 SWAP1 POP JUMP JUMPDEST PUSH1 0x0 DUP2 SWAP1 POP SWAP2 SWAP1 POP JUMP JUMPDEST PUSH1 0x0 DUP2 SWAP1 POP PUSH2 0x31A DUP3 PUSH2 0x434 JUMP JUMPDEST SWAP2 SWAP1 POP JUMP JUMPDEST PUSH1 0x0 PUSH20 0xFFFFFFFFFFFFFFFFFFFFFFFFFFFFFFFFFFFFFFFF DUP3 AND SWAP1 POP SWAP2 SWAP1 POP JUMP JUMPDEST PUSH1 0x0 DUP2 SWAP1 POP SWAP2 SWAP1 POP JUMP JUMPDEST PUSH1 0x0 PUSH2 0x354 DUP3 PUSH2 0x30C JUMP JUMPDEST SWAP1 POP SWAP2 SWAP1 POP JUMP JUMPDEST PUSH1 0x0 JUMPDEST DUP4 DUP2 LT ISZERO PUSH2 0x379 JUMPI DUP1 DUP3 ADD MLOAD DUP2 DUP5 ADD MSTORE PUSH1 0x20 DUP2 ADD SWAP1 POP PUSH2 0x35E JUMP JUMPDEST DUP4 DUP2 GT ISZERO PUSH2 0x388 JUMPI PUSH1 0x0 DUP5 DUP5 ADD MSTORE JUMPDEST POP POP POP POP JUMP JUMPDEST PUSH1 0x0 PUSH1 0x2 DUP3 DIV SWAP1 POP PUSH1 0x1 DUP3 AND DUP1 PUSH2 0x3A6 JUMPI PUSH1 0x7F DUP3 AND SWAP2 POP JUMPDEST PUSH1 0x20 DUP3 LT DUP2 EQ ISZERO PUSH2 0x3BA JUMPI PUSH2 0x3B9 PUSH2 0x3EF JUMP JUMPDEST JUMPDEST POP SWAP2 SWAP1 POP JUMP JUMPDEST PUSH32 0x4E487B7100000000000000000000000000000000000000000000000000000000 PUSH1 0x0 MSTORE PUSH1 0x21 PUSH1 0x4 MSTORE PUSH1 0x24 PUSH1 0x0 REVERT JUMPDEST PUSH32 0x4E487B7100000000000000000000000000000000000000000000000000000000 PUSH1 0x0 MSTORE PUSH1 0x22 PUSH1 0x4 MSTORE PUSH1 0x24 PUSH1 0x0 REVERT JUMPDEST PUSH1 0x0 DUP1 REVERT JUMPDEST PUSH1 0x0 PUSH1 0x1F NOT PUSH1 0x1F DUP4 ADD AND SWAP1 POP SWAP2 SWAP1 POP JUMP JUMPDEST PUSH1 0x5 DUP2 LT PUSH2 0x445 JUMPI PUSH2 0x444 PUSH2 0x3C0 JUMP JUMPDEST JUMPDEST POP JUMP JUMPDEST PUSH2 0x451 DUP2 PUSH2 0x2F0 JUMP JUMPDEST DUP2 EQ PUSH2 0x45C JUMPI PUSH1 0x0 DUP1 REVERT JUMPDEST POP JUMP INVALID LOG2 PUSH5 0x6970667358 0x22 SLT KECCAK256 0xBD 0xDE 0xAD SWAP15 CALLER DUP6 0xE0 PUSH14 0x6F47F8E955439BB4FA02D9449C4E PUSH5 0xFDC217DE92 0xCD PUSH21 0x95AD64736F6C634300080700330000000000000000 "
				},
				"gasEstimates": {
					"creation": {
						"codeDepositCost": "234600",
						"executionCost": "44487",
						"totalCost": "279087"
					},
					"external": {
						"structUsers_(address)": "infinite",
						"tokenAmount_()": "2429",
						"tokenPrice_()": "2407"
					}
				},
				"methodIdentifiers": {
					"structUsers_(address)": "fc837259",
					"tokenAmount_()": "948942ad",
					"tokenPrice_()": "0761c8b9"
				}
			},
			"storageLayout": {
				"storage": [
					{
						"astId": 28,
						"contract": "GitHub/contract-token-cryptoMonster/backend/shared/lib/structures.sol:structures",
						"label": "structUsers_",
						"offset": 0,
						"slot": "0",
						"type": "t_mapping(t_address,t_struct(structUser)23_storage)"
					},
					{
						"astId": 34,
						"contract": "GitHub/contract-token-cryptoMonster/backend/shared/lib/structures.sol:structures",
						"label": "allowed",
						"offset": 0,
						"slot": "1",
						"type": "t_mapping(t_address,t_mapping(t_address,t_uint256))"
					},
					{
						"astId": 37,
						"contract": "GitHub/contract-token-cryptoMonster/backend/shared/lib/structures.sol:structures",
						"label": "tokenPrice_",
						"offset": 0,
						"slot": "2",
						"type": "t_uint256"
					},
					{
						"astId": 40,
						"contract": "GitHub/contract-token-cryptoMonster/backend/shared/lib/structures.sol:structures",
						"label": "tokenAmount_",
						"offset": 0,
						"slot": "3",
						"type": "t_uint256"
					},
					{
						"astId": 59,
						"contract": "GitHub/contract-token-cryptoMonster/backend/shared/lib/structures.sol:structures",
						"label": "structPhases_",
						"offset": 0,
						"slot": "4",
						"type": "t_mapping(t_address,t_struct(structPhase)54_storage)"
					},
					{
						"astId": 77,
						"contract": "GitHub/contract-token-cryptoMonster/backend/shared/lib/structures.sol:structures",
						"label": "strucApplications_",
						"offset": 0,
						"slot": "5",
						"type": "t_mapping(t_address,t_struct(structApplication)72_storage)"
					},
					{
						"astId": 80,
						"contract": "GitHub/contract-token-cryptoMonster/backend/shared/lib/structures.sol:structures",
						"label": "structApplicationsAmountAdr",
						"offset": 0,
						"slot": "6",
						"type": "t_array(t_address)dyn_storage"
					},
					{
						"astId": 83,
						"contract": "GitHub/contract-token-cryptoMonster/backend/shared/lib/structures.sol:structures",
						"label": "whiteList",
						"offset": 0,
						"slot": "7",
						"type": "t_array(t_address)dyn_storage"
					},
					{
						"astId": 86,
						"contract": "GitHub/contract-token-cryptoMonster/backend/shared/lib/structures.sol:structures",
						"label": "blackList",
						"offset": 0,
						"slot": "8",
						"type": "t_array(t_address)dyn_storage"
					}
				],
				"types": {
					"t_address": {
						"encoding": "inplace",
						"label": "address",
						"numberOfBytes": "20"
					},
					"t_array(t_address)dyn_storage": {
						"base": "t_address",
						"encoding": "dynamic_array",
						"label": "address[]",
						"numberOfBytes": "32"
					},
					"t_bool": {
						"encoding": "inplace",
						"label": "bool",
						"numberOfBytes": "1"
					},
					"t_bytes32": {
						"encoding": "inplace",
						"label": "bytes32",
						"numberOfBytes": "32"
					},
					"t_enum(Role)7": {
						"encoding": "inplace",
						"label": "enum structures.Role",
						"numberOfBytes": "1"
					},
					"t_mapping(t_address,t_mapping(t_address,t_uint256))": {
						"encoding": "mapping",
						"key": "t_address",
						"label": "mapping(address => mapping(address => uint256))",
						"numberOfBytes": "32",
						"value": "t_mapping(t_address,t_uint256)"
					},
					"t_mapping(t_address,t_struct(structApplication)72_storage)": {
						"encoding": "mapping",
						"key": "t_address",
						"label": "mapping(address => struct structures.structApplication)",
						"numberOfBytes": "32",
						"value": "t_struct(structApplication)72_storage"
					},
					"t_mapping(t_address,t_struct(structPhase)54_storage)": {
						"encoding": "mapping",
						"key": "t_address",
						"label": "mapping(address => struct structures.structPhase)",
						"numberOfBytes": "32",
						"value": "t_struct(structPhase)54_storage"
					},
					"t_mapping(t_address,t_struct(structUser)23_storage)": {
						"encoding": "mapping",
						"key": "t_address",
						"label": "mapping(address => struct structures.structUser)",
						"numberOfBytes": "32",
						"value": "t_struct(structUser)23_storage"
					},
					"t_mapping(t_address,t_uint256)": {
						"encoding": "mapping",
						"key": "t_address",
						"label": "mapping(address => uint256)",
						"numberOfBytes": "32",
						"value": "t_uint256"
					},
					"t_string_storage": {
						"encoding": "bytes",
						"label": "string",
						"numberOfBytes": "32"
					},
					"t_struct(structApplication)72_storage": {
						"encoding": "inplace",
						"label": "struct structures.structApplication",
						"members": [
							{
								"astId": 61,
								"contract": "GitHub/contract-token-cryptoMonster/backend/shared/lib/structures.sol:structures",
								"label": "name",
								"offset": 0,
								"slot": "0",
								"type": "t_string_storage"
							},
							{
								"astId": 63,
								"contract": "GitHub/contract-token-cryptoMonster/backend/shared/lib/structures.sol:structures",
								"label": "contactForCommunication",
								"offset": 0,
								"slot": "1",
								"type": "t_string_storage"
							},
							{
								"astId": 65,
								"contract": "GitHub/contract-token-cryptoMonster/backend/shared/lib/structures.sol:structures",
								"label": "userAdr",
								"offset": 0,
								"slot": "2",
								"type": "t_address"
							},
							{
								"astId": 67,
								"contract": "GitHub/contract-token-cryptoMonster/backend/shared/lib/structures.sol:structures",
								"label": "status",
								"offset": 20,
								"slot": "2",
								"type": "t_bool"
							},
							{
								"astId": 69,
								"contract": "GitHub/contract-token-cryptoMonster/backend/shared/lib/structures.sol:structures",
								"label": "reviewed",
								"offset": 21,
								"slot": "2",
								"type": "t_bool"
							},
							{
								"astId": 71,
								"contract": "GitHub/contract-token-cryptoMonster/backend/shared/lib/structures.sol:structures",
								"label": "exist",
								"offset": 22,
								"slot": "2",
								"type": "t_bool"
							}
						],
						"numberOfBytes": "96"
					},
					"t_struct(structPhase)54_storage": {
						"encoding": "inplace",
						"label": "struct structures.structPhase",
						"members": [
							{
								"astId": 51,
								"contract": "GitHub/contract-token-cryptoMonster/backend/shared/lib/structures.sol:structures",
								"label": "statusPhase",
								"offset": 0,
								"slot": "0",
								"type": "t_bool"
							},
							{
								"astId": 53,
								"contract": "GitHub/contract-token-cryptoMonster/backend/shared/lib/structures.sol:structures",
								"label": "reviewed",
								"offset": 1,
								"slot": "0",
								"type": "t_bool"
							}
						],
						"numberOfBytes": "32"
					},
					"t_struct(structUser)23_storage": {
						"encoding": "inplace",
						"label": "struct structures.structUser",
						"members": [
							{
								"astId": 10,
								"contract": "GitHub/contract-token-cryptoMonster/backend/shared/lib/structures.sol:structures",
								"label": "role",
								"offset": 0,
								"slot": "0",
								"type": "t_enum(Role)7"
							},
							{
								"astId": 12,
								"contract": "GitHub/contract-token-cryptoMonster/backend/shared/lib/structures.sol:structures",
								"label": "login",
								"offset": 0,
								"slot": "1",
								"type": "t_string_storage"
							},
							{
								"astId": 14,
								"contract": "GitHub/contract-token-cryptoMonster/backend/shared/lib/structures.sol:structures",
								"label": "password",
								"offset": 0,
								"slot": "2",
								"type": "t_bytes32"
							},
							{
								"astId": 16,
								"contract": "GitHub/contract-token-cryptoMonster/backend/shared/lib/structures.sol:structures",
								"label": "balance_overall",
								"offset": 0,
								"slot": "3",
								"type": "t_uint256"
							},
							{
								"astId": 18,
								"contract": "GitHub/contract-token-cryptoMonster/backend/shared/lib/structures.sol:structures",
								"label": "balance_seed",
								"offset": 0,
								"slot": "4",
								"type": "t_uint256"
							},
							{
								"astId": 20,
								"contract": "GitHub/contract-token-cryptoMonster/backend/shared/lib/structures.sol:structures",
								"label": "balance_private",
								"offset": 0,
								"slot": "5",
								"type": "t_uint256"
							},
							{
								"astId": 22,
								"contract": "GitHub/contract-token-cryptoMonster/backend/shared/lib/structures.sol:structures",
								"label": "balance_public",
								"offset": 0,
								"slot": "6",
								"type": "t_uint256"
							}
						],
						"numberOfBytes": "224"
					},
					"t_uint256": {
						"encoding": "inplace",
						"label": "uint256",
						"numberOfBytes": "32"
					}
				}
			},
			"userdoc": {
				"kind": "user",
				"methods": {},
				"version": 1
			}
		}
	}
}