{
	"GitHub/contract-token-cryptoMonster/backend/components/PhasePrivate.sol": {
		"PhasePrivate": {
			"abi": [
				{
					"inputs": [
						{
							"internalType": "address",
							"name": "_userAdr",
							"type": "address"
						}
					],
					"name": "acceptApplication",
					"outputs": [],
					"stateMutability": "nonpayable",
					"type": "function"
				},
				{
					"inputs": [
						{
							"internalType": "string",
							"name": "_name",
							"type": "string"
						},
						{
							"internalType": "string",
							"name": "_contactForCommunication",
							"type": "string"
						},
						{
							"internalType": "address",
							"name": "_userAdr",
							"type": "address"
						}
					],
					"name": "application",
					"outputs": [],
					"stateMutability": "nonpayable",
					"type": "function"
				},
				{
					"inputs": [
						{
							"internalType": "uint256",
							"name": "_price",
							"type": "uint256"
						}
					],
					"name": "changeTokenAmountPricePrivate",
					"outputs": [],
					"stateMutability": "nonpayable",
					"type": "function"
				},
				{
					"inputs": [
						{
							"internalType": "address",
							"name": "_userAdr",
							"type": "address"
						}
					],
					"name": "deviationApplication",
					"outputs": [],
					"stateMutability": "nonpayable",
					"type": "function"
				},
				{
					"inputs": [],
					"name": "endPrivatePhase",
					"outputs": [],
					"stateMutability": "nonpayable",
					"type": "function"
				},
				{
					"inputs": [],
					"name": "getApplicationAmountAdr",
					"outputs": [
						{
							"internalType": "address[]",
							"name": "",
							"type": "address[]"
						}
					],
					"stateMutability": "view",
					"type": "function"
				},
				{
					"inputs": [
						{
							"internalType": "address",
							"name": "adr",
							"type": "address"
						}
					],
					"name": "getBalanceEth",
					"outputs": [
						{
							"internalType": "uint256",
							"name": "",
							"type": "uint256"
						}
					],
					"stateMutability": "view",
					"type": "function"
				},
				{
					"inputs": [
						{
							"internalType": "address",
							"name": "_userAdr",
							"type": "address"
						}
					],
					"name": "getBalancePrivateToken",
					"outputs": [
						{
							"internalType": "uint256",
							"name": "",
							"type": "uint256"
						}
					],
					"stateMutability": "view",
					"type": "function"
				},
				{
					"inputs": [
						{
							"internalType": "address",
							"name": "_userAdr",
							"type": "address"
						}
					],
					"name": "getBalancePublicToken",
					"outputs": [
						{
							"internalType": "uint256",
							"name": "",
							"type": "uint256"
						}
					],
					"stateMutability": "view",
					"type": "function"
				},
				{
					"inputs": [
						{
							"internalType": "address",
							"name": "_userAdr",
							"type": "address"
						}
					],
					"name": "getBalanceSeedToken",
					"outputs": [
						{
							"internalType": "uint256",
							"name": "",
							"type": "uint256"
						}
					],
					"stateMutability": "view",
					"type": "function"
				},
				{
					"inputs": [],
					"name": "get_blackList",
					"outputs": [
						{
							"internalType": "address[]",
							"name": "",
							"type": "address[]"
						}
					],
					"stateMutability": "view",
					"type": "function"
				},
				{
					"inputs": [
						{
							"internalType": "string",
							"name": "_hash",
							"type": "string"
						}
					],
					"name": "get_keccak256",
					"outputs": [
						{
							"internalType": "bytes32",
							"name": "",
							"type": "bytes32"
						}
					],
					"stateMutability": "pure",
					"type": "function"
				},
				{
					"inputs": [],
					"name": "get_whiteList",
					"outputs": [
						{
							"internalType": "address[]",
							"name": "",
							"type": "address[]"
						}
					],
					"stateMutability": "view",
					"type": "function"
				},
				{
					"inputs": [],
					"name": "startPrivatePhase",
					"outputs": [],
					"stateMutability": "nonpayable",
					"type": "function"
				},
				{
					"inputs": [
						{
							"internalType": "address",
							"name": "",
							"type": "address"
						}
					],
					"name": "structUsers_",
					"outputs": [
						{
							"internalType": "enum structures.Role",
							"name": "role",
							"type": "uint8"
						},
						{
							"internalType": "string",
							"name": "login",
							"type": "string"
						},
						{
							"internalType": "bytes32",
							"name": "password",
							"type": "bytes32"
						},
						{
							"internalType": "uint256",
							"name": "balance_overall",
							"type": "uint256"
						},
						{
							"internalType": "uint256",
							"name": "balance_seed",
							"type": "uint256"
						},
						{
							"internalType": "uint256",
							"name": "balance_private",
							"type": "uint256"
						},
						{
							"internalType": "uint256",
							"name": "balance_public",
							"type": "uint256"
						}
					],
					"stateMutability": "view",
					"type": "function"
				},
				{
					"inputs": [],
					"name": "tokenAmount_",
					"outputs": [
						{
							"internalType": "uint256",
							"name": "",
							"type": "uint256"
						}
					],
					"stateMutability": "view",
					"type": "function"
				},
				{
					"inputs": [],
					"name": "tokenPrice_",
					"outputs": [
						{
							"internalType": "uint256",
							"name": "",
							"type": "uint256"
						}
					],
					"stateMutability": "view",
					"type": "function"
				}
			],
			"devdoc": {
				"kind": "dev",
				"methods": {},
				"version": 1
			},
			"evm": {
				"assembly": "    /* \"GitHub/contract-token-cryptoMonster/backend/components/PhasePrivate.sol\":158:4124  contract PhasePrivate is validateFuncs {\r... */\n  mstore(0x40, 0x80)\n    /* \"GitHub/contract-token-cryptoMonster/backend/shared/lib/structures.sol\":1152:1161  750000000 */\n  0x2cb41780\n    /* \"GitHub/contract-token-cryptoMonster/backend/shared/lib/structures.sol\":1123:1161  uint256 public tokenPrice_ = 750000000 */\n  0x02\n  sstore\n    /* \"GitHub/contract-token-cryptoMonster/backend/shared/lib/structures.sol\":1412:1418  100000 */\n  0x0186a0\n    /* \"GitHub/contract-token-cryptoMonster/backend/shared/lib/structures.sol\":1385:1418  uint public tokenAmount_ = 100000 */\n  0x03\n  sstore\n    /* \"GitHub/contract-token-cryptoMonster/backend/components/PhasePrivate.sol\":158:4124  contract PhasePrivate is validateFuncs {\r... */\n  callvalue\n  dup1\n  iszero\n  tag_1\n  jumpi\n  0x00\n  dup1\n  revert\ntag_1:\n  pop\n  dataSize(sub_0)\n  dup1\n  dataOffset(sub_0)\n  0x00\n  codecopy\n  0x00\n  return\nstop\n\nsub_0: assembly {\n        /* \"GitHub/contract-token-cryptoMonster/backend/components/PhasePrivate.sol\":158:4124  contract PhasePrivate is validateFuncs {\r... */\n      mstore(0x40, 0x80)\n      callvalue\n      dup1\n      iszero\n      tag_1\n      jumpi\n      0x00\n      dup1\n      revert\n    tag_1:\n      pop\n      jumpi(tag_2, lt(calldatasize, 0x04))\n      shr(0xe0, calldataload(0x00))\n      dup1\n      0x0691615d\n      eq\n      tag_3\n      jumpi\n      dup1\n      0x0761c8b9\n      eq\n      tag_4\n      jumpi\n      dup1\n      0x1d3eea35\n      eq\n      tag_5\n      jumpi\n      dup1\n      0x2599d6d0\n      eq\n      tag_6\n      jumpi\n      dup1\n      0x686c4cea\n      eq\n      tag_7\n      jumpi\n      dup1\n      0x72f0d72b\n      eq\n      tag_8\n      jumpi\n      dup1\n      0x785963c3\n      eq\n      tag_9\n      jumpi\n      dup1\n      0x7f4b8df0\n      eq\n      tag_10\n      jumpi\n      dup1\n      0x7f89128f\n      eq\n      tag_11\n      jumpi\n      dup1\n      0x8aa7cc0b\n      eq\n      tag_12\n      jumpi\n      dup1\n      0x8e4f8c6b\n      eq\n      tag_13\n      jumpi\n      dup1\n      0x948942ad\n      eq\n      tag_14\n      jumpi\n      dup1\n      0x99067ede\n      eq\n      tag_15\n      jumpi\n      dup1\n      0xa678b65b\n      eq\n      tag_16\n      jumpi\n      dup1\n      0xb06cdc12\n      eq\n      tag_17\n      jumpi\n      dup1\n      0xc10e3911\n      eq\n      tag_18\n      jumpi\n      dup1\n      0xfc837259\n      eq\n      tag_19\n      jumpi\n    tag_2:\n      0x00\n      dup1\n      revert\n        /* \"GitHub/contract-token-cryptoMonster/backend/components/PhasePrivate.sol\":3110:3374  function startPrivatePhase () public onlyPrivateProvider {\r... */\n    tag_3:\n      tag_20\n      tag_21\n      jump\t// in\n    tag_20:\n      stop\n        /* \"GitHub/contract-token-cryptoMonster/backend/shared/lib/structures.sol\":1123:1161  uint256 public tokenPrice_ = 750000000 */\n    tag_4:\n      tag_22\n      sload(0x02)\n      dup2\n      jump\n    tag_22:\n      mload(0x40)\n        /* \"#utility.yul\":3331:3356   */\n      swap1\n      dup2\n      mstore\n        /* \"#utility.yul\":3319:3321   */\n      0x20\n        /* \"#utility.yul\":3304:3322   */\n      add\n        /* \"GitHub/contract-token-cryptoMonster/backend/shared/lib/structures.sol\":1123:1161  uint256 public tokenPrice_ = 750000000 */\n    tag_24:\n      mload(0x40)\n      dup1\n      swap2\n      sub\n      swap1\n      return\n        /* \"GitHub/contract-token-cryptoMonster/backend/components/PhasePrivate.sol\":2875:3013  function deviationApplication (address _userAdr) public onlyPrivateProvider {\r... */\n    tag_5:\n      tag_20\n      tag_27\n      calldatasize\n      0x04\n      tag_28\n      jump\t// in\n    tag_27:\n      tag_29\n      jump\t// in\n        /* \"GitHub/contract-token-cryptoMonster/backend/shared/helpers/helpresFunc.sol\":849:988  function getBalanceSeedToken (address _userAdr) public view returns (uint256) {\r... */\n    tag_6:\n      tag_22\n      tag_31\n      calldatasize\n      0x04\n      tag_28\n      jump\t// in\n    tag_31:\n      sub(shl(0xa0, 0x01), 0x01)\n        /* \"GitHub/contract-token-cryptoMonster/backend/shared/helpers/helpresFunc.sol\":945:967  structUsers_[_userAdr] */\n      and\n        /* \"GitHub/contract-token-cryptoMonster/backend/shared/helpers/helpresFunc.sol\":918:925  uint256 */\n      0x00\n        /* \"GitHub/contract-token-cryptoMonster/backend/shared/helpers/helpresFunc.sol\":945:967  structUsers_[_userAdr] */\n      swap1\n      dup2\n      mstore\n      0x20\n      dup2\n      swap1\n      mstore\n      0x40\n      swap1\n      keccak256\n        /* \"GitHub/contract-token-cryptoMonster/backend/shared/helpers/helpresFunc.sol\":945:980  structUsers_[_userAdr].balance_seed */\n      0x04\n      add\n      sload\n      swap1\n        /* \"GitHub/contract-token-cryptoMonster/backend/shared/helpers/helpresFunc.sol\":849:988  function getBalanceSeedToken (address _userAdr) public view returns (uint256) {\r... */\n      jump\n        /* \"GitHub/contract-token-cryptoMonster/backend/components/PhasePrivate.sol\":1861:2106  function getApplicationAmountAdr () public onlyPrivateProvider view returns (address[] memory) {\r... */\n    tag_7:\n      tag_34\n      tag_35\n      jump\t// in\n    tag_34:\n      mload(0x40)\n      tag_24\n      swap2\n      swap1\n      tag_37\n      jump\t// in\n        /* \"GitHub/contract-token-cryptoMonster/backend/shared/helpers/helpresFunc.sol\":1352:1495  function getBalancePublicToken (address _userAdr) public view returns (uint256) {\r... */\n    tag_8:\n      tag_22\n      tag_39\n      calldatasize\n      0x04\n      tag_28\n      jump\t// in\n    tag_39:\n      sub(shl(0xa0, 0x01), 0x01)\n        /* \"GitHub/contract-token-cryptoMonster/backend/shared/helpers/helpresFunc.sol\":1450:1472  structUsers_[_userAdr] */\n      and\n        /* \"GitHub/contract-token-cryptoMonster/backend/shared/helpers/helpresFunc.sol\":1423:1430  uint256 */\n      0x00\n        /* \"GitHub/contract-token-cryptoMonster/backend/shared/helpers/helpresFunc.sol\":1450:1472  structUsers_[_userAdr] */\n      swap1\n      dup2\n      mstore\n      0x20\n      dup2\n      swap1\n      mstore\n      0x40\n      swap1\n      keccak256\n        /* \"GitHub/contract-token-cryptoMonster/backend/shared/helpers/helpresFunc.sol\":1450:1487  structUsers_[_userAdr].balance_public */\n      0x06\n      add\n      sload\n      swap1\n        /* \"GitHub/contract-token-cryptoMonster/backend/shared/helpers/helpresFunc.sol\":1352:1495  function getBalancePublicToken (address _userAdr) public view returns (uint256) {\r... */\n      jump\n        /* \"GitHub/contract-token-cryptoMonster/backend/components/PhasePrivate.sol\":297:1747  function application(string memory _name, string memory _contactForCommunication, address _userAdr) public onlyUser {\r... */\n    tag_9:\n      tag_20\n      tag_43\n      calldatasize\n      0x04\n      tag_44\n      jump\t// in\n    tag_43:\n      tag_45\n      jump\t// in\n        /* \"GitHub/contract-token-cryptoMonster/backend/components/PhasePrivate.sol\":3469:3901  function endPrivatePhase () public onlyPrivateProvider {\r... */\n    tag_10:\n      tag_20\n      tag_47\n      jump\t// in\n        /* \"GitHub/contract-token-cryptoMonster/backend/shared/helpers/helpresFunc.sol\":632:742  function get_blackList() public onlyOwner view returns (address[] memory) {\r... */\n    tag_11:\n      tag_34\n      tag_49\n      jump\t// in\n        /* \"GitHub/contract-token-cryptoMonster/backend/components/PhasePrivate.sol\":4002:4121  function changeTokenAmountPricePrivate (uint _price) public onlyPrivateProvider {\r... */\n    tag_12:\n      tag_20\n      tag_52\n      calldatasize\n      0x04\n      tag_53\n      jump\t// in\n    tag_52:\n      tag_54\n      jump\t// in\n        /* \"GitHub/contract-token-cryptoMonster/backend/shared/helpers/helpresFunc.sol\":212:350  function get_keccak256(string memory _hash) public pure returns(bytes32) {\r... */\n    tag_13:\n      tag_22\n      tag_56\n      calldatasize\n      0x04\n      tag_57\n      jump\t// in\n    tag_56:\n      tag_58\n      jump\t// in\n        /* \"GitHub/contract-token-cryptoMonster/backend/shared/lib/structures.sol\":1385:1418  uint public tokenAmount_ = 100000 */\n    tag_14:\n      tag_22\n      sload(0x03)\n      dup2\n      jump\n        /* \"GitHub/contract-token-cryptoMonster/backend/shared/helpers/helpresFunc.sol\":1595:1706  function getBalanceEth(address adr) public view returns(uint256) {\r... */\n    tag_15:\n      tag_22\n      tag_65\n      calldatasize\n      0x04\n      tag_28\n      jump\t// in\n    tag_65:\n      sub(shl(0xa0, 0x01), 0x01)\n        /* \"GitHub/contract-token-cryptoMonster/backend/shared/helpers/helpresFunc.sol\":1678:1698  address(adr).balance */\n      and\n      balance\n      swap1\n        /* \"GitHub/contract-token-cryptoMonster/backend/shared/helpers/helpresFunc.sol\":1595:1706  function getBalanceEth(address adr) public view returns(uint256) {\r... */\n      jump\n        /* \"GitHub/contract-token-cryptoMonster/backend/components/PhasePrivate.sol\":2182:2791  function acceptApplication (address _userAdr) public onlyPrivateProvider {\r... */\n    tag_16:\n      tag_20\n      tag_69\n      calldatasize\n      0x04\n      tag_28\n      jump\t// in\n    tag_69:\n      tag_70\n      jump\t// in\n        /* \"GitHub/contract-token-cryptoMonster/backend/shared/helpers/helpresFunc.sol\":1098:1243  function getBalancePrivateToken (address _userAdr) public view returns (uint256) {\r... */\n    tag_17:\n      tag_22\n      tag_72\n      calldatasize\n      0x04\n      tag_28\n      jump\t// in\n    tag_72:\n      sub(shl(0xa0, 0x01), 0x01)\n        /* \"GitHub/contract-token-cryptoMonster/backend/shared/helpers/helpresFunc.sol\":1197:1219  structUsers_[_userAdr] */\n      and\n        /* \"GitHub/contract-token-cryptoMonster/backend/shared/helpers/helpresFunc.sol\":1170:1177  uint256 */\n      0x00\n        /* \"GitHub/contract-token-cryptoMonster/backend/shared/helpers/helpresFunc.sol\":1197:1219  structUsers_[_userAdr] */\n      swap1\n      dup2\n      mstore\n      0x20\n      dup2\n      swap1\n      mstore\n      0x40\n      swap1\n      keccak256\n        /* \"GitHub/contract-token-cryptoMonster/backend/shared/helpers/helpresFunc.sol\":1197:1235  structUsers_[_userAdr].balance_private */\n      0x05\n      add\n      sload\n      swap1\n        /* \"GitHub/contract-token-cryptoMonster/backend/shared/helpers/helpresFunc.sol\":1098:1243  function getBalancePrivateToken (address _userAdr) public view returns (uint256) {\r... */\n      jump\n        /* \"GitHub/contract-token-cryptoMonster/backend/shared/helpers/helpresFunc.sol\":426:554  function get_whiteList() public onlyOwnerAndPrivateProvider view returns (address[] memory) {\r... */\n    tag_18:\n      tag_34\n      tag_76\n      jump\t// in\n        /* \"GitHub/contract-token-cryptoMonster/backend/shared/lib/structures.sol\":836:887  mapping (address => structUser) public structUsers_ */\n    tag_19:\n      tag_78\n      tag_79\n      calldatasize\n      0x04\n      tag_28\n      jump\t// in\n    tag_79:\n      tag_80\n      jump\t// in\n    tag_78:\n      mload(0x40)\n      tag_24\n      swap8\n      swap7\n      swap6\n      swap5\n      swap4\n      swap3\n      swap2\n      swap1\n      tag_82\n      jump\t// in\n        /* \"GitHub/contract-token-cryptoMonster/backend/components/PhasePrivate.sol\":3110:3374  function startPrivatePhase () public onlyPrivateProvider {\r... */\n    tag_21:\n        /* \"GitHub/contract-token-cryptoMonster/backend/shared/helpers/modifireFunc.sol\":567:586  Role.SYSTEM_PRIVATE */\n      0x02\n        /* \"GitHub/contract-token-cryptoMonster/backend/shared/helpers/modifireFunc.sol\":547:557  msg.sender */\n      caller\n        /* \"GitHub/contract-token-cryptoMonster/backend/shared/helpers/modifireFunc.sol\":534:546  structUsers_ */\n      0x00\n        /* \"GitHub/contract-token-cryptoMonster/backend/shared/helpers/modifireFunc.sol\":534:558  structUsers_[msg.sender] */\n      swap1\n      dup2\n      mstore\n      0x20\n      dup2\n      swap1\n      mstore\n      0x40\n      swap1\n      keccak256\n        /* \"GitHub/contract-token-cryptoMonster/backend/shared/helpers/modifireFunc.sol\":534:563  structUsers_[msg.sender].role */\n      sload\n      0xff\n      and\n        /* \"GitHub/contract-token-cryptoMonster/backend/shared/helpers/modifireFunc.sol\":534:586  structUsers_[msg.sender].role == Role.SYSTEM_PRIVATE */\n      0x04\n      dup2\n      gt\n      iszero\n      tag_88\n      jumpi\n      tag_88\n      tag_86\n      jump\t// in\n    tag_88:\n      eq\n        /* \"GitHub/contract-token-cryptoMonster/backend/shared/helpers/modifireFunc.sol\":526:616  require(structUsers_[msg.sender].role == Role.SYSTEM_PRIVATE, \"Your not Private provider\") */\n      tag_89\n      jumpi\n      mload(0x40)\n      shl(0xe5, 0x461bcd)\n      dup2\n      mstore\n      0x04\n      add\n      tag_90\n      swap1\n      tag_91\n      jump\t// in\n    tag_90:\n      mload(0x40)\n      dup1\n      swap2\n      sub\n      swap1\n      revert\n    tag_89:\n        /* \"GitHub/contract-token-cryptoMonster/backend/components/PhasePrivate.sol\":3200:3210  msg.sender */\n      caller\n        /* \"GitHub/contract-token-cryptoMonster/backend/components/PhasePrivate.sol\":3186:3211  structPhases_[msg.sender] */\n      0x00\n      swap1\n      dup2\n      mstore\n        /* \"GitHub/contract-token-cryptoMonster/backend/components/PhasePrivate.sol\":3186:3199  structPhases_ */\n      0x04\n        /* \"GitHub/contract-token-cryptoMonster/backend/components/PhasePrivate.sol\":3186:3211  structPhases_[msg.sender] */\n      0x20\n      mstore\n      0x40\n      swap1\n      keccak256\n        /* \"GitHub/contract-token-cryptoMonster/backend/components/PhasePrivate.sol\":3186:3223  structPhases_[msg.sender].statusPhase */\n      sload\n      0xff\n      and\n        /* \"GitHub/contract-token-cryptoMonster/backend/components/PhasePrivate.sol\":3186:3232  structPhases_[msg.sender].statusPhase == false */\n      iszero\n      dup1\n      iszero\n        /* \"GitHub/contract-token-cryptoMonster/backend/components/PhasePrivate.sol\":3186:3279  structPhases_[msg.sender].statusPhase == false && structPhases_[msg.sender].reviewed == false */\n      tag_93\n      jumpi\n      pop\n        /* \"GitHub/contract-token-cryptoMonster/backend/components/PhasePrivate.sol\":3250:3260  msg.sender */\n      caller\n        /* \"GitHub/contract-token-cryptoMonster/backend/components/PhasePrivate.sol\":3236:3261  structPhases_[msg.sender] */\n      0x00\n      swap1\n      dup2\n      mstore\n        /* \"GitHub/contract-token-cryptoMonster/backend/components/PhasePrivate.sol\":3236:3249  structPhases_ */\n      0x04\n        /* \"GitHub/contract-token-cryptoMonster/backend/components/PhasePrivate.sol\":3236:3261  structPhases_[msg.sender] */\n      0x20\n      mstore\n      0x40\n      swap1\n      keccak256\n        /* \"GitHub/contract-token-cryptoMonster/backend/components/PhasePrivate.sol\":3236:3270  structPhases_[msg.sender].reviewed */\n      sload\n      0x0100\n      swap1\n      div\n      0xff\n      and\n        /* \"GitHub/contract-token-cryptoMonster/backend/components/PhasePrivate.sol\":3236:3279  structPhases_[msg.sender].reviewed == false */\n      iszero\n        /* \"GitHub/contract-token-cryptoMonster/backend/components/PhasePrivate.sol\":3186:3279  structPhases_[msg.sender].statusPhase == false && structPhases_[msg.sender].reviewed == false */\n    tag_93:\n        /* \"GitHub/contract-token-cryptoMonster/backend/components/PhasePrivate.sol\":3178:3304  require(structPhases_[msg.sender].statusPhase == false && structPhases_[msg.sender].reviewed == false, \"Phase already active\") */\n      tag_94\n      jumpi\n      mload(0x40)\n      shl(0xe5, 0x461bcd)\n      dup2\n      mstore\n        /* \"#utility.yul\":4569:4571   */\n      0x20\n        /* \"GitHub/contract-token-cryptoMonster/backend/components/PhasePrivate.sol\":3178:3304  require(structPhases_[msg.sender].statusPhase == false && structPhases_[msg.sender].reviewed == false, \"Phase already active\") */\n      0x04\n      dup3\n      add\n        /* \"#utility.yul\":4551:4572   */\n      mstore\n        /* \"#utility.yul\":4608:4610   */\n      0x14\n        /* \"#utility.yul\":4588:4606   */\n      0x24\n      dup3\n      add\n        /* \"#utility.yul\":4581:4611   */\n      mstore\n      shl(0x60, 0x506861736520616c726561647920616374697665)\n        /* \"#utility.yul\":4627:4645   */\n      0x44\n      dup3\n      add\n        /* \"#utility.yul\":4620:4670   */\n      mstore\n        /* \"#utility.yul\":4687:4705   */\n      0x64\n      add\n        /* \"GitHub/contract-token-cryptoMonster/backend/components/PhasePrivate.sol\":3178:3304  require(structPhases_[msg.sender].statusPhase == false && structPhases_[msg.sender].reviewed == false, \"Phase already active\") */\n      tag_90\n        /* \"#utility.yul\":4367:4711   */\n      jump\n        /* \"GitHub/contract-token-cryptoMonster/backend/components/PhasePrivate.sol\":3178:3304  require(structPhases_[msg.sender].statusPhase == false && structPhases_[msg.sender].reviewed == false, \"Phase already active\") */\n    tag_94:\n        /* \"GitHub/contract-token-cryptoMonster/backend/components/PhasePrivate.sol\":3343:3366  structPhase(true, true) */\n      0x40\n      dup1\n      mload\n      dup1\n      dup3\n      add\n      dup3\n      mstore\n        /* \"GitHub/contract-token-cryptoMonster/backend/components/PhasePrivate.sol\":3355:3359  true */\n      0x01\n        /* \"GitHub/contract-token-cryptoMonster/backend/components/PhasePrivate.sol\":3343:3366  structPhase(true, true) */\n      dup1\n      dup3\n      mstore\n      0x20\n      dup1\n      dup4\n      add\n      swap2\n      dup3\n      mstore\n        /* \"GitHub/contract-token-cryptoMonster/backend/components/PhasePrivate.sol\":3329:3339  msg.sender */\n      caller\n      0x00\n        /* \"GitHub/contract-token-cryptoMonster/backend/components/PhasePrivate.sol\":3315:3340  structPhases_[msg.sender] */\n      swap1\n      dup2\n      mstore\n        /* \"GitHub/contract-token-cryptoMonster/backend/components/PhasePrivate.sol\":3315:3328  structPhases_ */\n      0x04\n        /* \"GitHub/contract-token-cryptoMonster/backend/components/PhasePrivate.sol\":3315:3340  structPhases_[msg.sender] */\n      swap1\n      swap2\n      mstore\n      swap3\n      swap1\n      swap3\n      keccak256\n        /* \"GitHub/contract-token-cryptoMonster/backend/components/PhasePrivate.sol\":3315:3366  structPhases_[msg.sender] = structPhase(true, true) */\n      swap1\n      mload\n      dup2\n      sload\n      swap3\n      mload\n      not(0xffff)\n      swap1\n      swap4\n      and\n      swap1\n      iszero\n      iszero\n      not(0xff00)\n      and\n      or\n      0x0100\n      swap3\n      iszero\n      iszero\n      swap3\n      swap1\n      swap3\n      mul\n      swap2\n      swap1\n      swap2\n      or\n      swap1\n      sstore\n        /* \"GitHub/contract-token-cryptoMonster/backend/components/PhasePrivate.sol\":3110:3374  function startPrivatePhase () public onlyPrivateProvider {\r... */\n      jump\t// out\n        /* \"GitHub/contract-token-cryptoMonster/backend/components/PhasePrivate.sol\":2875:3013  function deviationApplication (address _userAdr) public onlyPrivateProvider {\r... */\n    tag_29:\n        /* \"GitHub/contract-token-cryptoMonster/backend/shared/helpers/modifireFunc.sol\":567:586  Role.SYSTEM_PRIVATE */\n      0x02\n        /* \"GitHub/contract-token-cryptoMonster/backend/shared/helpers/modifireFunc.sol\":547:557  msg.sender */\n      caller\n        /* \"GitHub/contract-token-cryptoMonster/backend/shared/helpers/modifireFunc.sol\":534:546  structUsers_ */\n      0x00\n        /* \"GitHub/contract-token-cryptoMonster/backend/shared/helpers/modifireFunc.sol\":534:558  structUsers_[msg.sender] */\n      swap1\n      dup2\n      mstore\n      0x20\n      dup2\n      swap1\n      mstore\n      0x40\n      swap1\n      keccak256\n        /* \"GitHub/contract-token-cryptoMonster/backend/shared/helpers/modifireFunc.sol\":534:563  structUsers_[msg.sender].role */\n      sload\n      0xff\n      and\n        /* \"GitHub/contract-token-cryptoMonster/backend/shared/helpers/modifireFunc.sol\":534:586  structUsers_[msg.sender].role == Role.SYSTEM_PRIVATE */\n      0x04\n      dup2\n      gt\n      iszero\n      tag_101\n      jumpi\n      tag_101\n      tag_86\n      jump\t// in\n    tag_101:\n      eq\n        /* \"GitHub/contract-token-cryptoMonster/backend/shared/helpers/modifireFunc.sol\":526:616  require(structUsers_[msg.sender].role == Role.SYSTEM_PRIVATE, \"Your not Private provider\") */\n      tag_102\n      jumpi\n      mload(0x40)\n      shl(0xe5, 0x461bcd)\n      dup2\n      mstore\n      0x04\n      add\n      tag_90\n      swap1\n      tag_91\n      jump\t// in\n    tag_102:\n      sub(shl(0xa0, 0x01), 0x01)\n        /* \"GitHub/contract-token-cryptoMonster/backend/components/PhasePrivate.sol\":2962:2990  strucApplications_[_userAdr] */\n      and\n        /* \"GitHub/contract-token-cryptoMonster/backend/components/PhasePrivate.sol\":3000:3005  false */\n      0x00\n        /* \"GitHub/contract-token-cryptoMonster/backend/components/PhasePrivate.sol\":2962:2990  strucApplications_[_userAdr] */\n      swap1\n      dup2\n      mstore\n        /* \"GitHub/contract-token-cryptoMonster/backend/components/PhasePrivate.sol\":2962:2980  strucApplications_ */\n      0x05\n        /* \"GitHub/contract-token-cryptoMonster/backend/components/PhasePrivate.sol\":2962:2990  strucApplications_[_userAdr] */\n      0x20\n      mstore\n      0x40\n      swap1\n      keccak256\n        /* \"GitHub/contract-token-cryptoMonster/backend/components/PhasePrivate.sol\":2962:2997  strucApplications_[_userAdr].status */\n      0x02\n      add\n        /* \"GitHub/contract-token-cryptoMonster/backend/components/PhasePrivate.sol\":2962:3005  strucApplications_[_userAdr].status = false */\n      dup1\n      sload\n      not(shl(0xa0, 0xff))\n      and\n      swap1\n      sstore\n        /* \"GitHub/contract-token-cryptoMonster/backend/components/PhasePrivate.sol\":2875:3013  function deviationApplication (address _userAdr) public onlyPrivateProvider {\r... */\n      jump\t// out\n        /* \"GitHub/contract-token-cryptoMonster/backend/components/PhasePrivate.sol\":1861:2106  function getApplicationAmountAdr () public onlyPrivateProvider view returns (address[] memory) {\r... */\n    tag_35:\n        /* \"GitHub/contract-token-cryptoMonster/backend/components/PhasePrivate.sol\":1938:1954  address[] memory */\n      0x60\n        /* \"GitHub/contract-token-cryptoMonster/backend/shared/helpers/modifireFunc.sol\":567:586  Role.SYSTEM_PRIVATE */\n      0x02\n        /* \"GitHub/contract-token-cryptoMonster/backend/shared/helpers/modifireFunc.sol\":547:557  msg.sender */\n      caller\n        /* \"GitHub/contract-token-cryptoMonster/backend/shared/helpers/modifireFunc.sol\":534:546  structUsers_ */\n      0x00\n        /* \"GitHub/contract-token-cryptoMonster/backend/shared/helpers/modifireFunc.sol\":534:558  structUsers_[msg.sender] */\n      swap1\n      dup2\n      mstore\n      0x20\n      dup2\n      swap1\n      mstore\n      0x40\n      swap1\n      keccak256\n        /* \"GitHub/contract-token-cryptoMonster/backend/shared/helpers/modifireFunc.sol\":534:563  structUsers_[msg.sender].role */\n      sload\n      0xff\n      and\n        /* \"GitHub/contract-token-cryptoMonster/backend/shared/helpers/modifireFunc.sol\":534:586  structUsers_[msg.sender].role == Role.SYSTEM_PRIVATE */\n      0x04\n      dup2\n      gt\n      iszero\n      tag_110\n      jumpi\n      tag_110\n      tag_86\n      jump\t// in\n    tag_110:\n      eq\n        /* \"GitHub/contract-token-cryptoMonster/backend/shared/helpers/modifireFunc.sol\":526:616  require(structUsers_[msg.sender].role == Role.SYSTEM_PRIVATE, \"Your not Private provider\") */\n      tag_111\n      jumpi\n      mload(0x40)\n      shl(0xe5, 0x461bcd)\n      dup2\n      mstore\n      0x04\n      add\n      tag_90\n      swap1\n      tag_91\n      jump\t// in\n    tag_111:\n        /* \"GitHub/contract-token-cryptoMonster/backend/components/PhasePrivate.sol\":1974:2001  structApplicationsAmountAdr */\n      0x06\n        /* \"GitHub/contract-token-cryptoMonster/backend/components/PhasePrivate.sol\":1967:2001  return structApplicationsAmountAdr */\n      dup1\n      sload\n      dup1\n      0x20\n      mul\n      0x20\n      add\n      mload(0x40)\n      swap1\n      dup2\n      add\n      0x40\n      mstore\n      dup1\n      swap3\n      swap2\n      swap1\n      dup2\n      dup2\n      mstore\n      0x20\n      add\n      dup3\n      dup1\n      sload\n      dup1\n      iszero\n      tag_114\n      jumpi\n      0x20\n      mul\n      dup3\n      add\n      swap2\n      swap1\n      0x00\n      mstore\n      keccak256(0x00, 0x20)\n      swap1\n    tag_115:\n      dup2\n      sload\n      sub(shl(0xa0, 0x01), 0x01)\n      and\n      dup2\n      mstore\n      0x01\n      swap1\n      swap2\n      add\n      swap1\n      0x20\n      add\n      dup1\n      dup4\n      gt\n      tag_115\n      jumpi\n    tag_114:\n      pop\n      pop\n      pop\n      pop\n      pop\n      swap1\n      pop\n        /* \"GitHub/contract-token-cryptoMonster/backend/components/PhasePrivate.sol\":1861:2106  function getApplicationAmountAdr () public onlyPrivateProvider view returns (address[] memory) {\r... */\n      swap1\n      jump\t// out\n        /* \"GitHub/contract-token-cryptoMonster/backend/components/PhasePrivate.sol\":297:1747  function application(string memory _name, string memory _contactForCommunication, address _userAdr) public onlyUser {\r... */\n    tag_45:\n        /* \"GitHub/contract-token-cryptoMonster/backend/shared/helpers/modifireFunc.sol\":1454:1464  msg.sender */\n      caller\n        /* \"GitHub/contract-token-cryptoMonster/backend/shared/helpers/modifireFunc.sol\":1474:1491  Role.SYSTEM_OWNER */\n      0x00\n        /* \"GitHub/contract-token-cryptoMonster/backend/shared/helpers/modifireFunc.sol\":1441:1465  structUsers_[msg.sender] */\n      swap1\n      dup2\n      mstore\n      0x20\n      dup2\n      swap1\n      mstore\n      0x40\n      dup2\n      keccak256\n        /* \"GitHub/contract-token-cryptoMonster/backend/shared/helpers/modifireFunc.sol\":1441:1470  structUsers_[msg.sender].role */\n      sload\n      0xff\n      and\n        /* \"GitHub/contract-token-cryptoMonster/backend/shared/helpers/modifireFunc.sol\":1441:1491  structUsers_[msg.sender].role != Role.SYSTEM_OWNER */\n      0x04\n      dup2\n      gt\n      iszero\n      tag_121\n      jumpi\n      tag_121\n      tag_86\n      jump\t// in\n    tag_121:\n      eq\n      iszero\n        /* \"GitHub/contract-token-cryptoMonster/backend/shared/helpers/modifireFunc.sol\":1441:1559  structUsers_[msg.sender].role != Role.SYSTEM_OWNER ||\r... */\n      dup1\n      tag_122\n      jumpi\n      pop\n        /* \"GitHub/contract-token-cryptoMonster/backend/shared/helpers/modifireFunc.sol\":1541:1559  Role.SYSTEM_PUBLIC */\n      0x01\n        /* \"GitHub/contract-token-cryptoMonster/backend/shared/helpers/modifireFunc.sol\":1521:1531  msg.sender */\n      caller\n        /* \"GitHub/contract-token-cryptoMonster/backend/shared/helpers/modifireFunc.sol\":1508:1520  structUsers_ */\n      0x00\n        /* \"GitHub/contract-token-cryptoMonster/backend/shared/helpers/modifireFunc.sol\":1508:1532  structUsers_[msg.sender] */\n      swap1\n      dup2\n      mstore\n      0x20\n      dup2\n      swap1\n      mstore\n      0x40\n      swap1\n      keccak256\n        /* \"GitHub/contract-token-cryptoMonster/backend/shared/helpers/modifireFunc.sol\":1508:1537  structUsers_[msg.sender].role */\n      sload\n      0xff\n      and\n        /* \"GitHub/contract-token-cryptoMonster/backend/shared/helpers/modifireFunc.sol\":1508:1559  structUsers_[msg.sender].role != Role.SYSTEM_PUBLIC */\n      0x04\n      dup2\n      gt\n      iszero\n      tag_126\n      jumpi\n      tag_126\n      tag_86\n      jump\t// in\n    tag_126:\n      eq\n      iszero\n        /* \"GitHub/contract-token-cryptoMonster/backend/shared/helpers/modifireFunc.sol\":1441:1559  structUsers_[msg.sender].role != Role.SYSTEM_OWNER ||\r... */\n    tag_122:\n        /* \"GitHub/contract-token-cryptoMonster/backend/shared/helpers/modifireFunc.sol\":1441:1628  structUsers_[msg.sender].role != Role.SYSTEM_OWNER ||\r... */\n      dup1\n      tag_127\n      jumpi\n      pop\n        /* \"GitHub/contract-token-cryptoMonster/backend/shared/helpers/modifireFunc.sol\":1609:1628  Role.SYSTEM_PRIVATE */\n      0x02\n        /* \"GitHub/contract-token-cryptoMonster/backend/shared/helpers/modifireFunc.sol\":1589:1599  msg.sender */\n      caller\n        /* \"GitHub/contract-token-cryptoMonster/backend/shared/helpers/modifireFunc.sol\":1576:1588  structUsers_ */\n      0x00\n        /* \"GitHub/contract-token-cryptoMonster/backend/shared/helpers/modifireFunc.sol\":1576:1600  structUsers_[msg.sender] */\n      swap1\n      dup2\n      mstore\n      0x20\n      dup2\n      swap1\n      mstore\n      0x40\n      swap1\n      keccak256\n        /* \"GitHub/contract-token-cryptoMonster/backend/shared/helpers/modifireFunc.sol\":1576:1605  structUsers_[msg.sender].role */\n      sload\n      0xff\n      and\n        /* \"GitHub/contract-token-cryptoMonster/backend/shared/helpers/modifireFunc.sol\":1576:1628  structUsers_[msg.sender].role != Role.SYSTEM_PRIVATE */\n      0x04\n      dup2\n      gt\n      iszero\n      tag_131\n      jumpi\n      tag_131\n      tag_86\n      jump\t// in\n    tag_131:\n      eq\n      iszero\n        /* \"GitHub/contract-token-cryptoMonster/backend/shared/helpers/modifireFunc.sol\":1441:1628  structUsers_[msg.sender].role != Role.SYSTEM_OWNER ||\r... */\n    tag_127:\n        /* \"GitHub/contract-token-cryptoMonster/backend/shared/helpers/modifireFunc.sol\":1441:1691  structUsers_[msg.sender].role != Role.SYSTEM_OWNER ||\r... */\n      dup1\n      tag_132\n      jumpi\n      pop\n        /* \"GitHub/contract-token-cryptoMonster/backend/shared/helpers/modifireFunc.sol\":1678:1691  Role.INVESTOR */\n      0x03\n        /* \"GitHub/contract-token-cryptoMonster/backend/shared/helpers/modifireFunc.sol\":1658:1668  msg.sender */\n      caller\n        /* \"GitHub/contract-token-cryptoMonster/backend/shared/helpers/modifireFunc.sol\":1645:1657  structUsers_ */\n      0x00\n        /* \"GitHub/contract-token-cryptoMonster/backend/shared/helpers/modifireFunc.sol\":1645:1669  structUsers_[msg.sender] */\n      swap1\n      dup2\n      mstore\n      0x20\n      dup2\n      swap1\n      mstore\n      0x40\n      swap1\n      keccak256\n        /* \"GitHub/contract-token-cryptoMonster/backend/shared/helpers/modifireFunc.sol\":1645:1674  structUsers_[msg.sender].role */\n      sload\n      0xff\n      and\n        /* \"GitHub/contract-token-cryptoMonster/backend/shared/helpers/modifireFunc.sol\":1645:1691  structUsers_[msg.sender].role != Role.INVESTOR */\n      0x04\n      dup2\n      gt\n      iszero\n      tag_136\n      jumpi\n      tag_136\n      tag_86\n      jump\t// in\n    tag_136:\n      eq\n      iszero\n        /* \"GitHub/contract-token-cryptoMonster/backend/shared/helpers/modifireFunc.sol\":1441:1691  structUsers_[msg.sender].role != Role.SYSTEM_OWNER ||\r... */\n    tag_132:\n        /* \"GitHub/contract-token-cryptoMonster/backend/shared/helpers/modifireFunc.sol\":1419:1756  require(\r... */\n      tag_137\n      jumpi\n      mload(0x40)\n      shl(0xe5, 0x461bcd)\n      dup2\n      mstore\n        /* \"#utility.yul\":6092:6094   */\n      0x20\n        /* \"GitHub/contract-token-cryptoMonster/backend/shared/helpers/modifireFunc.sol\":1419:1756  require(\r... */\n      0x04\n      dup3\n      add\n        /* \"#utility.yul\":6074:6095   */\n      mstore\n        /* \"#utility.yul\":6131:6133   */\n      0x32\n        /* \"#utility.yul\":6111:6129   */\n      0x24\n      dup3\n      add\n        /* \"#utility.yul\":6104:6134   */\n      mstore\n        /* \"#utility.yul\":6170:6204   */\n      0x4170706c69636174696f6e2063616e206f6e6c79206265207375626d69747465\n        /* \"#utility.yul\":6150:6168   */\n      0x44\n      dup3\n      add\n        /* \"#utility.yul\":6143:6205   */\n      mstore\n      shl(0x70, 0x6420627920726567756c6172207573657273)\n        /* \"#utility.yul\":6221:6239   */\n      0x64\n      dup3\n      add\n        /* \"#utility.yul\":6214:6262   */\n      mstore\n        /* \"#utility.yul\":6279:6298   */\n      0x84\n      add\n        /* \"GitHub/contract-token-cryptoMonster/backend/shared/helpers/modifireFunc.sol\":1419:1756  require(\r... */\n      tag_90\n        /* \"#utility.yul\":5890:6304   */\n      jump\n        /* \"GitHub/contract-token-cryptoMonster/backend/shared/helpers/modifireFunc.sol\":1419:1756  require(\r... */\n    tag_137:\n        /* \"GitHub/contract-token-cryptoMonster/backend/components/PhasePrivate.sol\":480:522  0xAb8483F64d9C6d1EcF9b849Ae677dD3315835cb2 */\n      0xab8483f64d9c6d1ecf9b849ae677dd3315835cb2\n        /* \"GitHub/contract-token-cryptoMonster/backend/components/PhasePrivate.sol\":424:439  bool _tempExist */\n      0x00\n        /* \"GitHub/contract-token-cryptoMonster/backend/components/PhasePrivate.sol\":466:523  structPhases_[0xAb8483F64d9C6d1EcF9b849Ae677dD3315835cb2] */\n      swap1\n      dup2\n      mstore\n        /* \"GitHub/contract-token-cryptoMonster/backend/components/PhasePrivate.sol\":466:479  structPhases_ */\n      0x04\n        /* \"GitHub/contract-token-cryptoMonster/backend/components/PhasePrivate.sol\":466:523  structPhases_[0xAb8483F64d9C6d1EcF9b849Ae677dD3315835cb2] */\n      0x20\n      mstore\n      0x00\n      dup1\n      mload\n      0x20\n      data_210f354537685f9e5e046d4cb2f76e07344954c6dc3e59ff15ac4b676d448167\n      dup4\n      codecopy\n      dup2\n      mload\n      swap2\n      mstore\n        /* \"GitHub/contract-token-cryptoMonster/backend/components/PhasePrivate.sol\":466:535  structPhases_[0xAb8483F64d9C6d1EcF9b849Ae677dD3315835cb2].statusPhase */\n      sload\n      0xff\n      and\n        /* \"GitHub/contract-token-cryptoMonster/backend/components/PhasePrivate.sol\":466:544  structPhases_[0xAb8483F64d9C6d1EcF9b849Ae677dD3315835cb2].statusPhase == false */\n      iszero\n      dup1\n      iszero\n        /* \"GitHub/contract-token-cryptoMonster/backend/components/PhasePrivate.sol\":466:626  structPhases_[0xAb8483F64d9C6d1EcF9b849Ae677dD3315835cb2].statusPhase == false && structPhases_[0xAb8483F64d9C6d1EcF9b849Ae677dD3315835cb2].statusPhase == false */\n      tag_141\n      jumpi\n      pop\n        /* \"GitHub/contract-token-cryptoMonster/backend/components/PhasePrivate.sol\":562:604  0xAb8483F64d9C6d1EcF9b849Ae677dD3315835cb2 */\n      0xab8483f64d9c6d1ecf9b849ae677dd3315835cb2\n        /* \"GitHub/contract-token-cryptoMonster/backend/components/PhasePrivate.sol\":548:605  structPhases_[0xAb8483F64d9C6d1EcF9b849Ae677dD3315835cb2] */\n      0x00\n      mstore\n        /* \"GitHub/contract-token-cryptoMonster/backend/components/PhasePrivate.sol\":548:561  structPhases_ */\n      0x04\n        /* \"GitHub/contract-token-cryptoMonster/backend/components/PhasePrivate.sol\":548:605  structPhases_[0xAb8483F64d9C6d1EcF9b849Ae677dD3315835cb2] */\n      0x20\n      mstore\n      0x00\n      dup1\n      mload\n      0x20\n      data_210f354537685f9e5e046d4cb2f76e07344954c6dc3e59ff15ac4b676d448167\n      dup4\n      codecopy\n      dup2\n      mload\n      swap2\n      mstore\n        /* \"GitHub/contract-token-cryptoMonster/backend/components/PhasePrivate.sol\":548:617  structPhases_[0xAb8483F64d9C6d1EcF9b849Ae677dD3315835cb2].statusPhase */\n      sload\n      0xff\n      and\n        /* \"GitHub/contract-token-cryptoMonster/backend/components/PhasePrivate.sol\":548:626  structPhases_[0xAb8483F64d9C6d1EcF9b849Ae677dD3315835cb2].statusPhase == false */\n      iszero\n        /* \"GitHub/contract-token-cryptoMonster/backend/components/PhasePrivate.sol\":466:626  structPhases_[0xAb8483F64d9C6d1EcF9b849Ae677dD3315835cb2].statusPhase == false && structPhases_[0xAb8483F64d9C6d1EcF9b849Ae677dD3315835cb2].statusPhase == false */\n    tag_141:\n        /* \"GitHub/contract-token-cryptoMonster/backend/components/PhasePrivate.sol\":458:654  require(structPhases_[0xAb8483F64d9C6d1EcF9b849Ae677dD3315835cb2].statusPhase == false && structPhases_[0xAb8483F64d9C6d1EcF9b849Ae677dD3315835cb2].statusPhase == false, \"Application phase ended\") */\n      tag_142\n      jumpi\n      mload(0x40)\n      shl(0xe5, 0x461bcd)\n      dup2\n      mstore\n        /* \"#utility.yul\":7569:7571   */\n      0x20\n        /* \"GitHub/contract-token-cryptoMonster/backend/components/PhasePrivate.sol\":458:654  require(structPhases_[0xAb8483F64d9C6d1EcF9b849Ae677dD3315835cb2].statusPhase == false && structPhases_[0xAb8483F64d9C6d1EcF9b849Ae677dD3315835cb2].statusPhase == false, \"Application phase ended\") */\n      0x04\n      dup3\n      add\n        /* \"#utility.yul\":7551:7572   */\n      mstore\n        /* \"#utility.yul\":7608:7610   */\n      0x17\n        /* \"#utility.yul\":7588:7606   */\n      0x24\n      dup3\n      add\n        /* \"#utility.yul\":7581:7611   */\n      mstore\n      shl(0x4a, 0x105c1c1b1a58d85d1a5bdb881c1a185cd948195b991959)\n        /* \"#utility.yul\":7627:7645   */\n      0x44\n      dup3\n      add\n        /* \"#utility.yul\":7620:7673   */\n      mstore\n        /* \"#utility.yul\":7690:7708   */\n      0x64\n      add\n        /* \"GitHub/contract-token-cryptoMonster/backend/components/PhasePrivate.sol\":458:654  require(structPhases_[0xAb8483F64d9C6d1EcF9b849Ae677dD3315835cb2].statusPhase == false && structPhases_[0xAb8483F64d9C6d1EcF9b849Ae677dD3315835cb2].statusPhase == false, \"Application phase ended\") */\n      tag_90\n        /* \"#utility.yul\":7367:7714   */\n      jump\n        /* \"GitHub/contract-token-cryptoMonster/backend/components/PhasePrivate.sol\":458:654  require(structPhases_[0xAb8483F64d9C6d1EcF9b849Ae677dD3315835cb2].statusPhase == false && structPhases_[0xAb8483F64d9C6d1EcF9b849Ae677dD3315835cb2].statusPhase == false, \"Application phase ended\") */\n    tag_142:\n        /* \"GitHub/contract-token-cryptoMonster/backend/components/PhasePrivate.sol\":778:788  msg.sender */\n      caller\n      sub(shl(0xa0, 0x01), 0x01)\n        /* \"GitHub/contract-token-cryptoMonster/backend/components/PhasePrivate.sol\":778:800  msg.sender == _userAdr */\n      dup4\n      and\n      eq\n        /* \"GitHub/contract-token-cryptoMonster/backend/components/PhasePrivate.sol\":770:860  require(msg.sender == _userAdr, \"You can't send an application to someone else's address\") */\n      tag_145\n      jumpi\n      mload(0x40)\n      shl(0xe5, 0x461bcd)\n      dup2\n      mstore\n        /* \"#utility.yul\":7921:7923   */\n      0x20\n        /* \"GitHub/contract-token-cryptoMonster/backend/components/PhasePrivate.sol\":770:860  require(msg.sender == _userAdr, \"You can't send an application to someone else's address\") */\n      0x04\n      dup3\n      add\n        /* \"#utility.yul\":7903:7924   */\n      mstore\n        /* \"#utility.yul\":7960:7962   */\n      0x37\n        /* \"#utility.yul\":7940:7958   */\n      0x24\n      dup3\n      add\n        /* \"#utility.yul\":7933:7963   */\n      mstore\n        /* \"#utility.yul\":7999:8033   */\n      0x596f752063616e27742073656e6420616e206170706c69636174696f6e20746f\n        /* \"#utility.yul\":7979:7997   */\n      0x44\n      dup3\n      add\n        /* \"#utility.yul\":7972:8034   */\n      mstore\n      shl(0x48, 0x20736f6d656f6e6520656c736527732061646472657373)\n        /* \"#utility.yul\":8050:8068   */\n      0x64\n      dup3\n      add\n        /* \"#utility.yul\":8043:8096   */\n      mstore\n        /* \"#utility.yul\":8113:8132   */\n      0x84\n      add\n        /* \"GitHub/contract-token-cryptoMonster/backend/components/PhasePrivate.sol\":770:860  require(msg.sender == _userAdr, \"You can't send an application to someone else's address\") */\n      tag_90\n        /* \"#utility.yul\":7719:8138   */\n      jump\n        /* \"GitHub/contract-token-cryptoMonster/backend/components/PhasePrivate.sol\":770:860  require(msg.sender == _userAdr, \"You can't send an application to someone else's address\") */\n    tag_145:\n        /* \"GitHub/contract-token-cryptoMonster/backend/components/PhasePrivate.sol\":876:882  uint i */\n      0x00\n        /* \"GitHub/contract-token-cryptoMonster/backend/components/PhasePrivate.sol\":871:1200  for (uint i = 0; i < structApplicationsAmountAdr.length; i++) {\r... */\n    tag_148:\n        /* \"GitHub/contract-token-cryptoMonster/backend/components/PhasePrivate.sol\":892:919  structApplicationsAmountAdr */\n      0x06\n        /* \"GitHub/contract-token-cryptoMonster/backend/components/PhasePrivate.sol\":892:926  structApplicationsAmountAdr.length */\n      sload\n        /* \"GitHub/contract-token-cryptoMonster/backend/components/PhasePrivate.sol\":888:926  i < structApplicationsAmountAdr.length */\n      dup2\n      lt\n        /* \"GitHub/contract-token-cryptoMonster/backend/components/PhasePrivate.sol\":871:1200  for (uint i = 0; i < structApplicationsAmountAdr.length; i++) {\r... */\n      iszero\n      tag_149\n      jumpi\n        /* \"GitHub/contract-token-cryptoMonster/backend/components/PhasePrivate.sol\":986:996  msg.sender */\n      caller\n      sub(shl(0xa0, 0x01), 0x01)\n        /* \"GitHub/contract-token-cryptoMonster/backend/components/PhasePrivate.sol\":952:996  structApplicationsAmountAdr[i] == msg.sender */\n      and\n        /* \"GitHub/contract-token-cryptoMonster/backend/components/PhasePrivate.sol\":952:979  structApplicationsAmountAdr */\n      0x06\n        /* \"GitHub/contract-token-cryptoMonster/backend/components/PhasePrivate.sol\":980:981  i */\n      dup3\n        /* \"GitHub/contract-token-cryptoMonster/backend/components/PhasePrivate.sol\":952:982  structApplicationsAmountAdr[i] */\n      dup2\n      sload\n      dup2\n      lt\n      tag_152\n      jumpi\n      tag_152\n      tag_153\n      jump\t// in\n    tag_152:\n      0x00\n      swap2\n      dup3\n      mstore\n      0x20\n      swap1\n      swap2\n      keccak256\n      add\n      sload\n      sub(shl(0xa0, 0x01), 0x01)\n      and\n        /* \"GitHub/contract-token-cryptoMonster/backend/components/PhasePrivate.sol\":952:996  structApplicationsAmountAdr[i] == msg.sender */\n      eq\n        /* \"GitHub/contract-token-cryptoMonster/backend/components/PhasePrivate.sol\":948:1050  if (structApplicationsAmountAdr[i] == msg.sender) {\r... */\n      iszero\n      tag_155\n      jumpi\n        /* \"GitHub/contract-token-cryptoMonster/backend/components/PhasePrivate.sol\":1030:1034  true */\n      0x01\n        /* \"GitHub/contract-token-cryptoMonster/backend/components/PhasePrivate.sol\":1017:1034  _tempExist = true */\n      swap2\n      pop\n        /* \"GitHub/contract-token-cryptoMonster/backend/components/PhasePrivate.sol\":948:1050  if (structApplicationsAmountAdr[i] == msg.sender) {\r... */\n    tag_155:\n        /* \"GitHub/contract-token-cryptoMonster/backend/components/PhasePrivate.sol\":1072:1091  _tempExist == false */\n      dup2\n      iszero\n        /* \"GitHub/contract-token-cryptoMonster/backend/components/PhasePrivate.sol\":1064:1120  require(_tempExist == false, \"Application already sent\") */\n      tag_156\n      jumpi\n      mload(0x40)\n      shl(0xe5, 0x461bcd)\n      dup2\n      mstore\n        /* \"#utility.yul\":4918:4920   */\n      0x20\n        /* \"GitHub/contract-token-cryptoMonster/backend/components/PhasePrivate.sol\":1064:1120  require(_tempExist == false, \"Application already sent\") */\n      0x04\n      dup3\n      add\n        /* \"#utility.yul\":4900:4921   */\n      mstore\n        /* \"#utility.yul\":4957:4959   */\n      0x18\n        /* \"#utility.yul\":4937:4955   */\n      0x24\n      dup3\n      add\n        /* \"#utility.yul\":4930:4960   */\n      mstore\n      shl(0x42, 0x105c1c1b1a58d85d1a5bdb88185b1c9958591e481cd95b9d)\n        /* \"#utility.yul\":4976:4994   */\n      0x44\n      dup3\n      add\n        /* \"#utility.yul\":4969:5023   */\n      mstore\n        /* \"#utility.yul\":5040:5058   */\n      0x64\n      add\n        /* \"GitHub/contract-token-cryptoMonster/backend/components/PhasePrivate.sol\":1064:1120  require(_tempExist == false, \"Application already sent\") */\n      tag_90\n        /* \"#utility.yul\":4716:5064   */\n      jump\n        /* \"GitHub/contract-token-cryptoMonster/backend/components/PhasePrivate.sol\":1064:1120  require(_tempExist == false, \"Application already sent\") */\n    tag_156:\n        /* \"GitHub/contract-token-cryptoMonster/backend/components/PhasePrivate.sol\":928:931  i++ */\n      dup1\n      tag_159\n      dup2\n      tag_160\n      jump\t// in\n    tag_159:\n      swap2\n      pop\n      pop\n        /* \"GitHub/contract-token-cryptoMonster/backend/components/PhasePrivate.sol\":871:1200  for (uint i = 0; i < structApplicationsAmountAdr.length; i++) {\r... */\n      jump(tag_148)\n    tag_149:\n      pop\n        /* \"GitHub/contract-token-cryptoMonster/backend/components/PhasePrivate.sol\":1237:1247  msg.sender */\n      caller\n        /* \"GitHub/contract-token-cryptoMonster/backend/components/PhasePrivate.sol\":1218:1248  strucApplications_[msg.sender] */\n      0x00\n      swap1\n      dup2\n      mstore\n        /* \"GitHub/contract-token-cryptoMonster/backend/components/PhasePrivate.sol\":1218:1236  strucApplications_ */\n      0x05\n        /* \"GitHub/contract-token-cryptoMonster/backend/components/PhasePrivate.sol\":1218:1248  strucApplications_[msg.sender] */\n      0x20\n      mstore\n      0x40\n      swap1\n      keccak256\n        /* \"GitHub/contract-token-cryptoMonster/backend/components/PhasePrivate.sol\":1218:1255  strucApplications_[msg.sender].status */\n      0x02\n      add\n      sload\n      shl(0xa0, 0x01)\n      swap1\n      div\n      0xff\n      and\n        /* \"GitHub/contract-token-cryptoMonster/backend/components/PhasePrivate.sol\":1218:1264  strucApplications_[msg.sender].status == false */\n      iszero\n        /* \"GitHub/contract-token-cryptoMonster/backend/components/PhasePrivate.sol\":1210:1311  require(strucApplications_[msg.sender].status == false, \"Your application has already been rejected\") */\n      tag_161\n      jumpi\n      mload(0x40)\n      shl(0xe5, 0x461bcd)\n      dup2\n      mstore\n        /* \"#utility.yul\":5271:5273   */\n      0x20\n        /* \"GitHub/contract-token-cryptoMonster/backend/components/PhasePrivate.sol\":1210:1311  require(strucApplications_[msg.sender].status == false, \"Your application has already been rejected\") */\n      0x04\n      dup3\n      add\n        /* \"#utility.yul\":5253:5274   */\n      mstore\n        /* \"#utility.yul\":5310:5312   */\n      0x2a\n        /* \"#utility.yul\":5290:5308   */\n      0x24\n      dup3\n      add\n        /* \"#utility.yul\":5283:5313   */\n      mstore\n        /* \"#utility.yul\":5349:5383   */\n      0x596f7572206170706c69636174696f6e2068617320616c726561647920626565\n        /* \"#utility.yul\":5329:5347   */\n      0x44\n      dup3\n      add\n        /* \"#utility.yul\":5322:5384   */\n      mstore\n      shl(0xb2, 0x1b881c995a9958dd1959)\n        /* \"#utility.yul\":5400:5418   */\n      0x64\n      dup3\n      add\n        /* \"#utility.yul\":5393:5433   */\n      mstore\n        /* \"#utility.yul\":5450:5469   */\n      0x84\n      add\n        /* \"GitHub/contract-token-cryptoMonster/backend/components/PhasePrivate.sol\":1210:1311  require(strucApplications_[msg.sender].status == false, \"Your application has already been rejected\") */\n      tag_90\n        /* \"#utility.yul\":5069:5475   */\n      jump\n        /* \"GitHub/contract-token-cryptoMonster/backend/components/PhasePrivate.sol\":1210:1311  require(strucApplications_[msg.sender].status == false, \"Your application has already been rejected\") */\n    tag_161:\n        /* \"GitHub/contract-token-cryptoMonster/backend/components/PhasePrivate.sol\":1421:1493  structApplication(_name, _contactForCommunication, _userAdr, true, true) */\n      0x40\n      dup1\n      mload\n      0xa0\n      dup2\n      add\n      dup3\n      mstore\n      dup6\n      dup2\n      mstore\n      0x20\n      dup1\n      dup3\n      add\n      dup7\n      swap1\n      mstore\n      sub(shl(0xa0, 0x01), 0x01)\n      dup6\n      and\n      dup3\n      dup5\n      add\n      mstore\n        /* \"GitHub/contract-token-cryptoMonster/backend/components/PhasePrivate.sol\":1482:1486  true */\n      0x01\n        /* \"GitHub/contract-token-cryptoMonster/backend/components/PhasePrivate.sol\":1421:1493  structApplication(_name, _contactForCommunication, _userAdr, true, true) */\n      0x60\n      dup4\n      add\n      dup2\n      swap1\n      mstore\n      0x80\n      dup4\n      add\n      mstore\n        /* \"GitHub/contract-token-cryptoMonster/backend/components/PhasePrivate.sol\":1406:1416  msg.sender */\n      caller\n      0x00\n        /* \"GitHub/contract-token-cryptoMonster/backend/components/PhasePrivate.sol\":1387:1417  strucApplications_[msg.sender] */\n      swap1\n      dup2\n      mstore\n        /* \"GitHub/contract-token-cryptoMonster/backend/components/PhasePrivate.sol\":1387:1405  strucApplications_ */\n      0x05\n        /* \"GitHub/contract-token-cryptoMonster/backend/components/PhasePrivate.sol\":1387:1417  strucApplications_[msg.sender] */\n      dup3\n      mstore\n      swap3\n      swap1\n      swap3\n      keccak256\n        /* \"GitHub/contract-token-cryptoMonster/backend/components/PhasePrivate.sol\":1387:1493  strucApplications_[msg.sender]  = structApplication(_name, _contactForCommunication, _userAdr, true, true) */\n      dup2\n      mload\n      dup1\n      mload\n        /* \"GitHub/contract-token-cryptoMonster/backend/components/PhasePrivate.sol\":1421:1493  structApplication(_name, _contactForCommunication, _userAdr, true, true) */\n      swap3\n      swap4\n        /* \"GitHub/contract-token-cryptoMonster/backend/components/PhasePrivate.sol\":1387:1417  strucApplications_[msg.sender] */\n      swap2\n      swap3\n        /* \"GitHub/contract-token-cryptoMonster/backend/components/PhasePrivate.sol\":1387:1493  strucApplications_[msg.sender]  = structApplication(_name, _contactForCommunication, _userAdr, true, true) */\n      tag_164\n      swap3\n        /* \"GitHub/contract-token-cryptoMonster/backend/components/PhasePrivate.sol\":1387:1417  strucApplications_[msg.sender] */\n      dup5\n      swap3\n        /* \"GitHub/contract-token-cryptoMonster/backend/components/PhasePrivate.sol\":1387:1493  strucApplications_[msg.sender]  = structApplication(_name, _contactForCommunication, _userAdr, true, true) */\n      add\n      swap1\n      tag_165\n      jump\t// in\n    tag_164:\n      pop\n      0x20\n      dup3\n      dup2\n      add\n      mload\n      dup1\n      mload\n      tag_166\n      swap3\n      0x01\n      dup6\n      add\n      swap3\n      add\n      swap1\n      tag_165\n      jump\t// in\n    tag_166:\n      pop\n      0x40\n      dup3\n      add\n      mload\n      0x02\n      swap1\n      swap2\n      add\n      dup1\n      sload\n      0x60\n      dup5\n      add\n      mload\n      0x80\n      swap1\n      swap5\n      add\n      mload\n      iszero\n      iszero\n      shl(0xa8, 0x01)\n      mul\n      not(shl(0xa8, 0xff))\n      swap5\n      iszero\n      iszero\n      shl(0xa0, 0x01)\n      mul\n      not(sub(shl(0xa8, 0x01), 0x01))\n      swap1\n      swap3\n      and\n      sub(shl(0xa0, 0x01), 0x01)\n      swap1\n      swap5\n      and\n      swap4\n      swap1\n      swap4\n      or\n      or\n      swap3\n      swap1\n      swap3\n      and\n      or\n      swap1\n      sstore\n      pop\n      pop\n        /* \"GitHub/contract-token-cryptoMonster/backend/components/PhasePrivate.sol\":1562:1589  structApplicationsAmountAdr */\n      0x06\n        /* \"GitHub/contract-token-cryptoMonster/backend/components/PhasePrivate.sol\":1562:1606  structApplicationsAmountAdr.push(msg.sender) */\n      dup1\n      sload\n        /* \"GitHub/contract-token-cryptoMonster/backend/components/PhasePrivate.sol\":1387:1493  strucApplications_[msg.sender]  = structApplication(_name, _contactForCommunication, _userAdr, true, true) */\n      0x01\n        /* \"GitHub/contract-token-cryptoMonster/backend/components/PhasePrivate.sol\":1562:1606  structApplicationsAmountAdr.push(msg.sender) */\n      dup2\n      add\n      dup3\n      sstore\n        /* \"GitHub/contract-token-cryptoMonster/backend/components/PhasePrivate.sol\":1387:1493  strucApplications_[msg.sender]  = structApplication(_name, _contactForCommunication, _userAdr, true, true) */\n      0x00\n        /* \"GitHub/contract-token-cryptoMonster/backend/components/PhasePrivate.sol\":1562:1606  structApplicationsAmountAdr.push(msg.sender) */\n      swap2\n      swap1\n      swap2\n      mstore\n      0x00\n      dup1\n      mload\n      0x20\n      data_b868bdfa8727775661e4ccf117824a175a33f8703d728c04488fbfffcafda9f9\n      dup4\n      codecopy\n      dup2\n      mload\n      swap2\n      mstore\n      add\n      dup1\n      sload\n      not(sub(shl(0xa0, 0x01), 0x01))\n      and\n        /* \"GitHub/contract-token-cryptoMonster/backend/components/PhasePrivate.sol\":1595:1605  msg.sender */\n      caller\n        /* \"GitHub/contract-token-cryptoMonster/backend/components/PhasePrivate.sol\":1562:1606  structApplicationsAmountAdr.push(msg.sender) */\n      or\n      swap1\n      sstore\n      pop\n      pop\n        /* \"GitHub/contract-token-cryptoMonster/backend/components/PhasePrivate.sol\":297:1747  function application(string memory _name, string memory _contactForCommunication, address _userAdr) public onlyUser {\r... */\n      jump\t// out\n        /* \"GitHub/contract-token-cryptoMonster/backend/components/PhasePrivate.sol\":3469:3901  function endPrivatePhase () public onlyPrivateProvider {\r... */\n    tag_47:\n        /* \"GitHub/contract-token-cryptoMonster/backend/shared/helpers/modifireFunc.sol\":567:586  Role.SYSTEM_PRIVATE */\n      0x02\n        /* \"GitHub/contract-token-cryptoMonster/backend/shared/helpers/modifireFunc.sol\":547:557  msg.sender */\n      caller\n        /* \"GitHub/contract-token-cryptoMonster/backend/shared/helpers/modifireFunc.sol\":534:546  structUsers_ */\n      0x00\n        /* \"GitHub/contract-token-cryptoMonster/backend/shared/helpers/modifireFunc.sol\":534:558  structUsers_[msg.sender] */\n      swap1\n      dup2\n      mstore\n      0x20\n      dup2\n      swap1\n      mstore\n      0x40\n      swap1\n      keccak256\n        /* \"GitHub/contract-token-cryptoMonster/backend/shared/helpers/modifireFunc.sol\":534:563  structUsers_[msg.sender].role */\n      sload\n      0xff\n      and\n        /* \"GitHub/contract-token-cryptoMonster/backend/shared/helpers/modifireFunc.sol\":534:586  structUsers_[msg.sender].role == Role.SYSTEM_PRIVATE */\n      0x04\n      dup2\n      gt\n      iszero\n      tag_172\n      jumpi\n      tag_172\n      tag_86\n      jump\t// in\n    tag_172:\n      eq\n        /* \"GitHub/contract-token-cryptoMonster/backend/shared/helpers/modifireFunc.sol\":526:616  require(structUsers_[msg.sender].role == Role.SYSTEM_PRIVATE, \"Your not Private provider\") */\n      tag_173\n      jumpi\n      mload(0x40)\n      shl(0xe5, 0x461bcd)\n      dup2\n      mstore\n      0x04\n      add\n      tag_90\n      swap1\n      tag_91\n      jump\t// in\n    tag_173:\n        /* \"GitHub/contract-token-cryptoMonster/backend/components/PhasePrivate.sol\":3557:3567  msg.sender */\n      caller\n        /* \"GitHub/contract-token-cryptoMonster/backend/components/PhasePrivate.sol\":3543:3568  structPhases_[msg.sender] */\n      0x00\n      swap1\n      dup2\n      mstore\n        /* \"GitHub/contract-token-cryptoMonster/backend/components/PhasePrivate.sol\":3543:3556  structPhases_ */\n      0x04\n        /* \"GitHub/contract-token-cryptoMonster/backend/components/PhasePrivate.sol\":3543:3568  structPhases_[msg.sender] */\n      0x20\n      mstore\n      0x40\n      swap1\n      keccak256\n        /* \"GitHub/contract-token-cryptoMonster/backend/components/PhasePrivate.sol\":3543:3580  structPhases_[msg.sender].statusPhase */\n      sload\n      0xff\n      and\n        /* \"GitHub/contract-token-cryptoMonster/backend/components/PhasePrivate.sol\":3543:3588  structPhases_[msg.sender].statusPhase == true */\n      iszero\n      iszero\n        /* \"GitHub/contract-token-cryptoMonster/backend/components/PhasePrivate.sol\":3543:3580  structPhases_[msg.sender].statusPhase */\n      0x01\n        /* \"GitHub/contract-token-cryptoMonster/backend/components/PhasePrivate.sol\":3543:3588  structPhases_[msg.sender].statusPhase == true */\n      eq\n        /* \"GitHub/contract-token-cryptoMonster/backend/components/PhasePrivate.sol\":3543:3634  structPhases_[msg.sender].statusPhase == true && structPhases_[msg.sender].reviewed == true */\n      dup1\n      iszero\n      tag_176\n      jumpi\n      pop\n        /* \"GitHub/contract-token-cryptoMonster/backend/components/PhasePrivate.sol\":3606:3616  msg.sender */\n      caller\n        /* \"GitHub/contract-token-cryptoMonster/backend/components/PhasePrivate.sol\":3592:3617  structPhases_[msg.sender] */\n      0x00\n      swap1\n      dup2\n      mstore\n        /* \"GitHub/contract-token-cryptoMonster/backend/components/PhasePrivate.sol\":3592:3605  structPhases_ */\n      0x04\n        /* \"GitHub/contract-token-cryptoMonster/backend/components/PhasePrivate.sol\":3592:3617  structPhases_[msg.sender] */\n      0x20\n      mstore\n      0x40\n      swap1\n      keccak256\n        /* \"GitHub/contract-token-cryptoMonster/backend/components/PhasePrivate.sol\":3592:3626  structPhases_[msg.sender].reviewed */\n      sload\n      0xff\n      0x0100\n      swap1\n      swap2\n      div\n      and\n        /* \"GitHub/contract-token-cryptoMonster/backend/components/PhasePrivate.sol\":3592:3634  structPhases_[msg.sender].reviewed == true */\n      iszero\n      iszero\n        /* \"GitHub/contract-token-cryptoMonster/backend/components/PhasePrivate.sol\":3592:3626  structPhases_[msg.sender].reviewed */\n      0x01\n        /* \"GitHub/contract-token-cryptoMonster/backend/components/PhasePrivate.sol\":3592:3634  structPhases_[msg.sender].reviewed == true */\n      eq\n        /* \"GitHub/contract-token-cryptoMonster/backend/components/PhasePrivate.sol\":3543:3634  structPhases_[msg.sender].statusPhase == true && structPhases_[msg.sender].reviewed == true */\n    tag_176:\n        /* \"GitHub/contract-token-cryptoMonster/backend/components/PhasePrivate.sol\":3535:3671  require(structPhases_[msg.sender].statusPhase == true && structPhases_[msg.sender].reviewed == true, \"Phase has not yet been activated\") */\n      tag_177\n      jumpi\n      mload(0x40)\n      shl(0xe5, 0x461bcd)\n      dup2\n      mstore\n        /* \"#utility.yul\":6511:6513   */\n      0x20\n        /* \"GitHub/contract-token-cryptoMonster/backend/components/PhasePrivate.sol\":3535:3671  require(structPhases_[msg.sender].statusPhase == true && structPhases_[msg.sender].reviewed == true, \"Phase has not yet been activated\") */\n      0x04\n      dup3\n      add\n        /* \"#utility.yul\":6493:6514   */\n      dup2\n      swap1\n      mstore\n        /* \"#utility.yul\":6530:6548   */\n      0x24\n      dup3\n      add\n        /* \"#utility.yul\":6523:6553   */\n      mstore\n        /* \"#utility.yul\":6589:6623   */\n      0x506861736520686173206e6f7420796574206265656e20616374697661746564\n        /* \"#utility.yul\":6569:6587   */\n      0x44\n      dup3\n      add\n        /* \"#utility.yul\":6562:6624   */\n      mstore\n        /* \"#utility.yul\":6641:6659   */\n      0x64\n      add\n        /* \"GitHub/contract-token-cryptoMonster/backend/components/PhasePrivate.sol\":3535:3671  require(structPhases_[msg.sender].statusPhase == true && structPhases_[msg.sender].reviewed == true, \"Phase has not yet been activated\") */\n      tag_90\n        /* \"#utility.yul\":6309:6665   */\n      jump\n        /* \"GitHub/contract-token-cryptoMonster/backend/components/PhasePrivate.sol\":3535:3671  require(structPhases_[msg.sender].statusPhase == true && structPhases_[msg.sender].reviewed == true, \"Phase has not yet been activated\") */\n    tag_177:\n        /* \"GitHub/contract-token-cryptoMonster/backend/components/PhasePrivate.sol\":3710:3734  structPhase(false, true) */\n      0x40\n      dup1\n      mload\n      dup1\n      dup3\n      add\n      dup3\n      mstore\n      0x00\n      dup1\n      dup3\n      mstore\n      0x01\n      0x20\n      dup1\n      dup5\n      add\n      dup3\n      dup2\n      mstore\n        /* \"GitHub/contract-token-cryptoMonster/backend/components/PhasePrivate.sol\":3696:3706  msg.sender */\n      caller\n        /* \"GitHub/contract-token-cryptoMonster/backend/components/PhasePrivate.sol\":3682:3707  structPhases_[msg.sender] */\n      dup5\n      mstore\n        /* \"GitHub/contract-token-cryptoMonster/backend/components/PhasePrivate.sol\":3682:3695  structPhases_ */\n      0x04\n        /* \"GitHub/contract-token-cryptoMonster/backend/components/PhasePrivate.sol\":3682:3707  structPhases_[msg.sender] */\n      dup1\n      dup4\n      mstore\n      dup7\n      dup6\n      keccak256\n        /* \"GitHub/contract-token-cryptoMonster/backend/components/PhasePrivate.sol\":3682:3734  structPhases_[msg.sender] = structPhase(false, true) */\n      swap6\n      mload\n      dup7\n      sload\n      swap3\n      mload\n      iszero\n      iszero\n      0x0100\n      swap1\n      dup2\n      mul\n      not(0xff00)\n      swap3\n      iszero\n      iszero\n      dup4\n      and\n      not(0xffff)\n      swap6\n      dup7\n      and\n      or\n      or\n      swap1\n      swap8\n      sstore\n        /* \"GitHub/contract-token-cryptoMonster/backend/components/PhasePrivate.sol\":3805:3828  structPhase(true, true) */\n      dup8\n      mload\n      dup1\n      dup10\n      add\n      swap1\n      swap9\n      mstore\n      dup5\n      dup9\n      mstore\n      dup8\n      dup5\n      add\n      swap5\n      dup6\n      mstore\n        /* \"GitHub/contract-token-cryptoMonster/backend/components/PhasePrivate.sol\":3759:3801  0x4B20993Bc481177ec7E8f571ceCaE8A9e22C02db */\n      0x4b20993bc481177ec7e8f571cecae8a9e22c02db\n        /* \"GitHub/contract-token-cryptoMonster/backend/components/PhasePrivate.sol\":3745:3802  structPhases_[0x4B20993Bc481177ec7E8f571ceCaE8A9e22C02db] */\n      swap1\n      swap6\n      mstore\n      swap1\n      swap2\n      mstore\n        /* \"GitHub/contract-token-cryptoMonster/backend/components/PhasePrivate.sol\":3745:3828  structPhases_[0x4B20993Bc481177ec7E8f571ceCaE8A9e22C02db] = structPhase(true, true) */\n      swap4\n      mload\n        /* \"GitHub/contract-token-cryptoMonster/backend/components/PhasePrivate.sol\":3745:3802  structPhases_[0x4B20993Bc481177ec7E8f571ceCaE8A9e22C02db] */\n      0xb9fe4b740977877e3fa94e7f3dbf51ffcc3fb0449ed024e5d3849f3210d56220\n        /* \"GitHub/contract-token-cryptoMonster/backend/components/PhasePrivate.sol\":3745:3828  structPhases_[0x4B20993Bc481177ec7E8f571ceCaE8A9e22C02db] = structPhase(true, true) */\n      dup1\n      sload\n      swap3\n      mload\n      iszero\n      iszero\n      swap1\n      swap5\n      mul\n      swap1\n      iszero\n      iszero\n      swap1\n      swap3\n      and\n      swap4\n      and\n      swap3\n      swap1\n      swap3\n      or\n      swap2\n      swap1\n      swap2\n      or\n      swap1\n      sstore\n        /* \"GitHub/contract-token-cryptoMonster/backend/components/PhasePrivate.sol\":3853:3863  1000000000 */\n      0x3b9aca00\n        /* \"GitHub/contract-token-cryptoMonster/backend/components/PhasePrivate.sol\":3839:3850  tokenPrice_ */\n      0x02\n        /* \"GitHub/contract-token-cryptoMonster/backend/components/PhasePrivate.sol\":3839:3863  tokenPrice_ = 1000000000 */\n      sstore\n        /* \"GitHub/contract-token-cryptoMonster/backend/components/PhasePrivate.sol\":3889:3893  5000 */\n      0x1388\n        /* \"GitHub/contract-token-cryptoMonster/backend/components/PhasePrivate.sol\":3874:3886  tokenAmount_ */\n      0x03\n        /* \"GitHub/contract-token-cryptoMonster/backend/components/PhasePrivate.sol\":3874:3893  tokenAmount_ = 5000 */\n      sstore\n        /* \"GitHub/contract-token-cryptoMonster/backend/components/PhasePrivate.sol\":3469:3901  function endPrivatePhase () public onlyPrivateProvider {\r... */\n      jump\t// out\n        /* \"GitHub/contract-token-cryptoMonster/backend/shared/helpers/helpresFunc.sol\":632:742  function get_blackList() public onlyOwner view returns (address[] memory) {\r... */\n    tag_49:\n        /* \"GitHub/contract-token-cryptoMonster/backend/shared/helpers/helpresFunc.sol\":688:704  address[] memory */\n      0x60\n        /* \"GitHub/contract-token-cryptoMonster/backend/shared/helpers/modifireFunc.sol\":320:337  Role.SYSTEM_OWNER */\n      0x00\n        /* \"GitHub/contract-token-cryptoMonster/backend/shared/helpers/modifireFunc.sol\":300:310  msg.sender */\n      caller\n        /* \"GitHub/contract-token-cryptoMonster/backend/shared/helpers/modifireFunc.sol\":287:299  structUsers_ */\n      0x00\n        /* \"GitHub/contract-token-cryptoMonster/backend/shared/helpers/modifireFunc.sol\":287:311  structUsers_[msg.sender] */\n      swap1\n      dup2\n      mstore\n      0x20\n      dup2\n      swap1\n      mstore\n      0x40\n      swap1\n      keccak256\n        /* \"GitHub/contract-token-cryptoMonster/backend/shared/helpers/modifireFunc.sol\":287:316  structUsers_[msg.sender].role */\n      sload\n      0xff\n      and\n        /* \"GitHub/contract-token-cryptoMonster/backend/shared/helpers/modifireFunc.sol\":287:337  structUsers_[msg.sender].role == Role.SYSTEM_OWNER */\n      0x04\n      dup2\n      gt\n      iszero\n      tag_184\n      jumpi\n      tag_184\n      tag_86\n      jump\t// in\n    tag_184:\n      eq\n        /* \"GitHub/contract-token-cryptoMonster/backend/shared/helpers/modifireFunc.sol\":279:356  require(structUsers_[msg.sender].role == Role.SYSTEM_OWNER, \"Your not admin\") */\n      tag_185\n      jumpi\n      mload(0x40)\n      shl(0xe5, 0x461bcd)\n      dup2\n      mstore\n        /* \"#utility.yul\":6872:6874   */\n      0x20\n        /* \"GitHub/contract-token-cryptoMonster/backend/shared/helpers/modifireFunc.sol\":279:356  require(structUsers_[msg.sender].role == Role.SYSTEM_OWNER, \"Your not admin\") */\n      0x04\n      dup3\n      add\n        /* \"#utility.yul\":6854:6875   */\n      mstore\n        /* \"#utility.yul\":6911:6913   */\n      0x0e\n        /* \"#utility.yul\":6891:6909   */\n      0x24\n      dup3\n      add\n        /* \"#utility.yul\":6884:6914   */\n      mstore\n      shl(0x91, 0x2cb7bab9103737ba1030b236b4b7)\n        /* \"#utility.yul\":6930:6948   */\n      0x44\n      dup3\n      add\n        /* \"#utility.yul\":6923:6967   */\n      mstore\n        /* \"#utility.yul\":6984:7002   */\n      0x64\n      add\n        /* \"GitHub/contract-token-cryptoMonster/backend/shared/helpers/modifireFunc.sol\":279:356  require(structUsers_[msg.sender].role == Role.SYSTEM_OWNER, \"Your not admin\") */\n      tag_90\n        /* \"#utility.yul\":6670:7008   */\n      jump\n        /* \"GitHub/contract-token-cryptoMonster/backend/shared/helpers/modifireFunc.sol\":279:356  require(structUsers_[msg.sender].role == Role.SYSTEM_OWNER, \"Your not admin\") */\n    tag_185:\n        /* \"GitHub/contract-token-cryptoMonster/backend/shared/helpers/helpresFunc.sol\":724:733  blackList */\n      0x08\n        /* \"GitHub/contract-token-cryptoMonster/backend/shared/helpers/helpresFunc.sol\":717:734  return(blackList) */\n      dup1\n      sload\n      dup1\n      0x20\n      mul\n      0x20\n      add\n      mload(0x40)\n      swap1\n      dup2\n      add\n      0x40\n      mstore\n      dup1\n      swap3\n      swap2\n      swap1\n      dup2\n      dup2\n      mstore\n      0x20\n      add\n      dup3\n      dup1\n      sload\n      dup1\n      iszero\n      tag_114\n      jumpi\n      0x20\n      mul\n      dup3\n      add\n      swap2\n      swap1\n      0x00\n      mstore\n      keccak256(0x00, 0x20)\n      swap1\n      dup2\n      sload\n      sub(shl(0xa0, 0x01), 0x01)\n      and\n      dup2\n      mstore\n      0x01\n      swap1\n      swap2\n      add\n      swap1\n      0x20\n      add\n      dup1\n      dup4\n      gt\n      tag_115\n      jumpi\n      pop\n      pop\n      pop\n      pop\n      pop\n      swap1\n      pop\n        /* \"GitHub/contract-token-cryptoMonster/backend/shared/helpers/helpresFunc.sol\":632:742  function get_blackList() public onlyOwner view returns (address[] memory) {\r... */\n      swap1\n      jump\t// out\n        /* \"GitHub/contract-token-cryptoMonster/backend/components/PhasePrivate.sol\":4002:4121  function changeTokenAmountPricePrivate (uint _price) public onlyPrivateProvider {\r... */\n    tag_54:\n        /* \"GitHub/contract-token-cryptoMonster/backend/shared/helpers/modifireFunc.sol\":567:586  Role.SYSTEM_PRIVATE */\n      0x02\n        /* \"GitHub/contract-token-cryptoMonster/backend/shared/helpers/modifireFunc.sol\":547:557  msg.sender */\n      caller\n        /* \"GitHub/contract-token-cryptoMonster/backend/shared/helpers/modifireFunc.sol\":534:546  structUsers_ */\n      0x00\n        /* \"GitHub/contract-token-cryptoMonster/backend/shared/helpers/modifireFunc.sol\":534:558  structUsers_[msg.sender] */\n      swap1\n      dup2\n      mstore\n      0x20\n      dup2\n      swap1\n      mstore\n      0x40\n      swap1\n      keccak256\n        /* \"GitHub/contract-token-cryptoMonster/backend/shared/helpers/modifireFunc.sol\":534:563  structUsers_[msg.sender].role */\n      sload\n      0xff\n      and\n        /* \"GitHub/contract-token-cryptoMonster/backend/shared/helpers/modifireFunc.sol\":534:586  structUsers_[msg.sender].role == Role.SYSTEM_PRIVATE */\n      0x04\n      dup2\n      gt\n      iszero\n      tag_195\n      jumpi\n      tag_195\n      tag_86\n      jump\t// in\n    tag_195:\n      eq\n        /* \"GitHub/contract-token-cryptoMonster/backend/shared/helpers/modifireFunc.sol\":526:616  require(structUsers_[msg.sender].role == Role.SYSTEM_PRIVATE, \"Your not Private provider\") */\n      tag_196\n      jumpi\n      mload(0x40)\n      shl(0xe5, 0x461bcd)\n      dup2\n      mstore\n      0x04\n      add\n      tag_90\n      swap1\n      tag_91\n      jump\t// in\n    tag_196:\n        /* \"GitHub/contract-token-cryptoMonster/backend/components/PhasePrivate.sol\":4093:4104  tokenPrice_ */\n      0x02\n        /* \"GitHub/contract-token-cryptoMonster/backend/components/PhasePrivate.sol\":4093:4113  tokenPrice_ = _price */\n      sstore\n        /* \"GitHub/contract-token-cryptoMonster/backend/components/PhasePrivate.sol\":4002:4121  function changeTokenAmountPricePrivate (uint _price) public onlyPrivateProvider {\r... */\n      jump\t// out\n        /* \"GitHub/contract-token-cryptoMonster/backend/shared/helpers/helpresFunc.sol\":212:350  function get_keccak256(string memory _hash) public pure returns(bytes32) {\r... */\n    tag_58:\n        /* \"GitHub/contract-token-cryptoMonster/backend/shared/helpers/helpresFunc.sol\":276:283  bytes32 */\n      0x00\n        /* \"GitHub/contract-token-cryptoMonster/backend/shared/helpers/helpresFunc.sol\":334:339  _hash */\n      dup2\n        /* \"GitHub/contract-token-cryptoMonster/backend/shared/helpers/helpresFunc.sol\":317:340  abi.encodePacked(_hash) */\n      add(0x20, mload(0x40))\n      tag_200\n      swap2\n      swap1\n      tag_201\n      jump\t// in\n    tag_200:\n      mload(0x40)\n      0x20\n      dup2\n      dup4\n      sub\n      sub\n      dup2\n      mstore\n      swap1\n      0x40\n      mstore\n        /* \"GitHub/contract-token-cryptoMonster/backend/shared/helpers/helpresFunc.sol\":307:341  keccak256(abi.encodePacked(_hash)) */\n      dup1\n      mload\n      swap1\n      0x20\n      add\n      keccak256\n        /* \"GitHub/contract-token-cryptoMonster/backend/shared/helpers/helpresFunc.sol\":300:342  return(keccak256(abi.encodePacked(_hash))) */\n      swap1\n      pop\n        /* \"GitHub/contract-token-cryptoMonster/backend/shared/helpers/helpresFunc.sol\":212:350  function get_keccak256(string memory _hash) public pure returns(bytes32) {\r... */\n      swap2\n      swap1\n      pop\n      jump\t// out\n        /* \"GitHub/contract-token-cryptoMonster/backend/components/PhasePrivate.sol\":2182:2791  function acceptApplication (address _userAdr) public onlyPrivateProvider {\r... */\n    tag_70:\n        /* \"GitHub/contract-token-cryptoMonster/backend/shared/helpers/modifireFunc.sol\":567:586  Role.SYSTEM_PRIVATE */\n      0x02\n        /* \"GitHub/contract-token-cryptoMonster/backend/shared/helpers/modifireFunc.sol\":547:557  msg.sender */\n      caller\n        /* \"GitHub/contract-token-cryptoMonster/backend/shared/helpers/modifireFunc.sol\":534:546  structUsers_ */\n      0x00\n        /* \"GitHub/contract-token-cryptoMonster/backend/shared/helpers/modifireFunc.sol\":534:558  structUsers_[msg.sender] */\n      swap1\n      dup2\n      mstore\n      0x20\n      dup2\n      swap1\n      mstore\n      0x40\n      swap1\n      keccak256\n        /* \"GitHub/contract-token-cryptoMonster/backend/shared/helpers/modifireFunc.sol\":534:563  structUsers_[msg.sender].role */\n      sload\n      0xff\n      and\n        /* \"GitHub/contract-token-cryptoMonster/backend/shared/helpers/modifireFunc.sol\":534:586  structUsers_[msg.sender].role == Role.SYSTEM_PRIVATE */\n      0x04\n      dup2\n      gt\n      iszero\n      tag_207\n      jumpi\n      tag_207\n      tag_86\n      jump\t// in\n    tag_207:\n      eq\n        /* \"GitHub/contract-token-cryptoMonster/backend/shared/helpers/modifireFunc.sol\":526:616  require(structUsers_[msg.sender].role == Role.SYSTEM_PRIVATE, \"Your not Private provider\") */\n      tag_208\n      jumpi\n      mload(0x40)\n      shl(0xe5, 0x461bcd)\n      dup2\n      mstore\n      0x04\n      add\n      tag_90\n      swap1\n      tag_91\n      jump\t// in\n    tag_208:\n      sub(shl(0xa0, 0x01), 0x01)\n        /* \"GitHub/contract-token-cryptoMonster/backend/components/PhasePrivate.sol\":2266:2294  strucApplications_[_userAdr] */\n      dup2\n      and\n        /* \"GitHub/contract-token-cryptoMonster/backend/components/PhasePrivate.sol\":2304:2309  false */\n      0x00\n        /* \"GitHub/contract-token-cryptoMonster/backend/components/PhasePrivate.sol\":2266:2294  strucApplications_[_userAdr] */\n      dup2\n      dup2\n      mstore\n        /* \"GitHub/contract-token-cryptoMonster/backend/components/PhasePrivate.sol\":2266:2284  strucApplications_ */\n      0x05\n        /* \"GitHub/contract-token-cryptoMonster/backend/components/PhasePrivate.sol\":2266:2294  strucApplications_[_userAdr] */\n      0x20\n      dup2\n      dup2\n      mstore\n      0x40\n      dup1\n      dup5\n      keccak256\n        /* \"GitHub/contract-token-cryptoMonster/backend/components/PhasePrivate.sol\":2266:2301  strucApplications_[_userAdr].status */\n      0x02\n      dup2\n      add\n        /* \"GitHub/contract-token-cryptoMonster/backend/components/PhasePrivate.sol\":2266:2309  strucApplications_[_userAdr].status = false */\n      dup1\n      sload\n      not(shl(0xa0, 0xff))\n      and\n      swap1\n      sstore\n        /* \"GitHub/contract-token-cryptoMonster/backend/components/PhasePrivate.sol\":2373:2400  structApplicationsAmountAdr */\n      0x06\n        /* \"GitHub/contract-token-cryptoMonster/backend/components/PhasePrivate.sol\":2373:2415  structApplicationsAmountAdr.push(_userAdr) */\n      dup1\n      sload\n      0x01\n      dup2\n      dup2\n      add\n      swap1\n      swap3\n      sstore\n      0x00\n      dup1\n      mload\n      0x20\n      data_b868bdfa8727775661e4ccf117824a175a33f8703d728c04488fbfffcafda9f9\n      dup4\n      codecopy\n      dup2\n      mload\n      swap2\n      mstore\n      add\n      dup1\n      sload\n      not(sub(shl(0xa0, 0x01), 0x01))\n      swap1\n      dup2\n      and\n      dup10\n      or\n      swap1\n      swap2\n      sstore\n        /* \"GitHub/contract-token-cryptoMonster/backend/components/PhasePrivate.sol\":2553:2562  whiteList */\n      0x07\n        /* \"GitHub/contract-token-cryptoMonster/backend/components/PhasePrivate.sol\":2553:2577  whiteList.push(_userAdr) */\n      dup1\n      sload\n      swap3\n      dup4\n      add\n      swap1\n      sstore\n      0xa66cc928b5edb82af9bd49922954155ab7b0942694bea4ce44661d9a8736c688\n      swap1\n      swap2\n      add\n      dup1\n      sload\n      swap1\n      swap2\n      and\n      dup8\n      or\n      swap1\n      sstore\n        /* \"GitHub/contract-token-cryptoMonster/backend/components/PhasePrivate.sol\":2695:2783  structUser(Role.USER, strucApplications_[_userAdr].name, get_keccak256(\"0\"), 0, 0, 0, 0) */\n      dup2\n      mload\n      0xe0\n      dup2\n      add\n      swap1\n      swap3\n      mstore\n        /* \"GitHub/contract-token-cryptoMonster/backend/components/PhasePrivate.sol\":2706:2715  Role.USER */\n      0x04\n        /* \"GitHub/contract-token-cryptoMonster/backend/components/PhasePrivate.sol\":2695:2783  structUser(Role.USER, strucApplications_[_userAdr].name, get_keccak256(\"0\"), 0, 0, 0, 0) */\n      dup3\n      mstore\n        /* \"GitHub/contract-token-cryptoMonster/backend/components/PhasePrivate.sol\":2717:2745  strucApplications_[_userAdr] */\n      swap5\n      swap1\n      swap4\n      mstore\n      swap1\n      dup2\n      mstore\n        /* \"GitHub/contract-token-cryptoMonster/backend/components/PhasePrivate.sol\":2695:2783  structUser(Role.USER, strucApplications_[_userAdr].name, get_keccak256(\"0\"), 0, 0, 0, 0) */\n      dup3\n      sload\n      swap2\n      swap3\n      swap1\n      dup4\n      add\n      swap2\n      tag_215\n      swap1\n      tag_216\n      jump\t// in\n    tag_215:\n      dup1\n      0x1f\n      add\n      0x20\n      dup1\n      swap2\n      div\n      mul\n      0x20\n      add\n      mload(0x40)\n      swap1\n      dup2\n      add\n      0x40\n      mstore\n      dup1\n      swap3\n      swap2\n      swap1\n      dup2\n      dup2\n      mstore\n      0x20\n      add\n      dup3\n      dup1\n      sload\n      tag_217\n      swap1\n      tag_216\n      jump\t// in\n    tag_217:\n      dup1\n      iszero\n      tag_218\n      jumpi\n      dup1\n      0x1f\n      lt\n      tag_219\n      jumpi\n      0x0100\n      dup1\n      dup4\n      sload\n      div\n      mul\n      dup4\n      mstore\n      swap2\n      0x20\n      add\n      swap2\n      jump(tag_218)\n    tag_219:\n      dup3\n      add\n      swap2\n      swap1\n      0x00\n      mstore\n      keccak256(0x00, 0x20)\n      swap1\n    tag_220:\n      dup2\n      sload\n      dup2\n      mstore\n      swap1\n      0x01\n      add\n      swap1\n      0x20\n      add\n      dup1\n      dup4\n      gt\n      tag_220\n      jumpi\n      dup3\n      swap1\n      sub\n      0x1f\n      and\n      dup3\n      add\n      swap2\n    tag_218:\n      pop\n      pop\n      pop\n      pop\n      pop\n      dup2\n      mstore\n      0x20\n      add\n        /* \"GitHub/contract-token-cryptoMonster/backend/components/PhasePrivate.sol\":2752:2770  get_keccak256(\"0\") */\n      tag_221\n      mload(0x40)\n      dup1\n      0x40\n      add\n      0x40\n      mstore\n      dup1\n      0x01\n      dup2\n      mstore\n      0x20\n      add\n      shl(0xfc, 0x03)\n      dup2\n      mstore\n      pop\n        /* \"GitHub/contract-token-cryptoMonster/backend/components/PhasePrivate.sol\":2752:2765  get_keccak256 */\n      tag_58\n        /* \"GitHub/contract-token-cryptoMonster/backend/components/PhasePrivate.sol\":2752:2770  get_keccak256(\"0\") */\n      jump\t// in\n    tag_221:\n        /* \"GitHub/contract-token-cryptoMonster/backend/components/PhasePrivate.sol\":2695:2783  structUser(Role.USER, strucApplications_[_userAdr].name, get_keccak256(\"0\"), 0, 0, 0, 0) */\n      dup2\n      mstore\n        /* \"GitHub/contract-token-cryptoMonster/backend/components/PhasePrivate.sol\":2772:2773  0 */\n      0x00\n        /* \"GitHub/contract-token-cryptoMonster/backend/components/PhasePrivate.sol\":2695:2783  structUser(Role.USER, strucApplications_[_userAdr].name, get_keccak256(\"0\"), 0, 0, 0, 0) */\n      0x20\n      dup1\n      dup4\n      add\n      dup3\n      swap1\n      mstore\n      0x40\n      dup1\n      dup5\n      add\n      dup4\n      swap1\n      mstore\n      0x60\n      dup5\n      add\n      dup4\n      swap1\n      mstore\n      0x80\n      swap1\n      swap4\n      add\n      dup3\n      swap1\n      mstore\n      sub(shl(0xa0, 0x01), 0x01)\n        /* \"GitHub/contract-token-cryptoMonster/backend/components/PhasePrivate.sol\":2670:2692  structUsers_[_userAdr] */\n      dup6\n      and\n      dup3\n      mstore\n      dup2\n      swap1\n      mstore\n      keccak256\n        /* \"GitHub/contract-token-cryptoMonster/backend/components/PhasePrivate.sol\":2670:2783  structUsers_[_userAdr] = structUser(Role.USER, strucApplications_[_userAdr].name, get_keccak256(\"0\"), 0, 0, 0, 0) */\n      dup2\n      mload\n      dup2\n      sload\n        /* \"GitHub/contract-token-cryptoMonster/backend/components/PhasePrivate.sol\":2670:2692  structUsers_[_userAdr] */\n      dup3\n      swap1\n      not(0xff)\n        /* \"GitHub/contract-token-cryptoMonster/backend/components/PhasePrivate.sol\":2670:2783  structUsers_[_userAdr] = structUser(Role.USER, strucApplications_[_userAdr].name, get_keccak256(\"0\"), 0, 0, 0, 0) */\n      and\n      0x01\n      dup4\n      0x04\n      dup2\n      gt\n      iszero\n      tag_223\n      jumpi\n      tag_223\n      tag_86\n      jump\t// in\n    tag_223:\n      mul\n      or\n      swap1\n      sstore\n      pop\n      0x20\n      dup3\n      dup2\n      add\n      mload\n      dup1\n      mload\n      tag_224\n      swap3\n      0x01\n      dup6\n      add\n      swap3\n      add\n      swap1\n      tag_165\n      jump\t// in\n    tag_224:\n      pop\n      0x40\n      dup3\n      add\n      mload\n      0x02\n      dup3\n      add\n      sstore\n      0x60\n      dup3\n      add\n      mload\n      0x03\n      dup3\n      add\n      sstore\n      0x80\n      dup3\n      add\n      mload\n      0x04\n      dup3\n      add\n      sstore\n      0xa0\n      dup3\n      add\n      mload\n      0x05\n      dup3\n      add\n      sstore\n      0xc0\n      swap1\n      swap2\n      add\n      mload\n      0x06\n      swap1\n      swap2\n      add\n      sstore\n      pop\n        /* \"GitHub/contract-token-cryptoMonster/backend/components/PhasePrivate.sol\":2182:2791  function acceptApplication (address _userAdr) public onlyPrivateProvider {\r... */\n      jump\t// out\n        /* \"GitHub/contract-token-cryptoMonster/backend/shared/helpers/helpresFunc.sol\":426:554  function get_whiteList() public onlyOwnerAndPrivateProvider view returns (address[] memory) {\r... */\n    tag_76:\n        /* \"GitHub/contract-token-cryptoMonster/backend/shared/helpers/helpresFunc.sol\":500:516  address[] memory */\n      0x60\n        /* \"GitHub/contract-token-cryptoMonster/backend/shared/helpers/modifireFunc.sol\":1116:1133  Role.SYSTEM_OWNER */\n      0x00\n        /* \"GitHub/contract-token-cryptoMonster/backend/shared/helpers/modifireFunc.sol\":1096:1106  msg.sender */\n      caller\n        /* \"GitHub/contract-token-cryptoMonster/backend/shared/helpers/modifireFunc.sol\":1083:1095  structUsers_ */\n      0x00\n        /* \"GitHub/contract-token-cryptoMonster/backend/shared/helpers/modifireFunc.sol\":1083:1107  structUsers_[msg.sender] */\n      swap1\n      dup2\n      mstore\n      0x20\n      dup2\n      swap1\n      mstore\n      0x40\n      swap1\n      keccak256\n        /* \"GitHub/contract-token-cryptoMonster/backend/shared/helpers/modifireFunc.sol\":1083:1112  structUsers_[msg.sender].role */\n      sload\n      0xff\n      and\n        /* \"GitHub/contract-token-cryptoMonster/backend/shared/helpers/modifireFunc.sol\":1083:1133  structUsers_[msg.sender].role == Role.SYSTEM_OWNER */\n      0x04\n      dup2\n      gt\n      iszero\n      tag_230\n      jumpi\n      tag_230\n      tag_86\n      jump\t// in\n    tag_230:\n      eq\n        /* \"GitHub/contract-token-cryptoMonster/backend/shared/helpers/modifireFunc.sol\":1083:1189  structUsers_[msg.sender].role == Role.SYSTEM_OWNER || structUsers_[msg.sender].role == Role.SYSTEM_PRIVATE */\n      dup1\n      tag_231\n      jumpi\n      pop\n        /* \"GitHub/contract-token-cryptoMonster/backend/shared/helpers/modifireFunc.sol\":1170:1189  Role.SYSTEM_PRIVATE */\n      0x02\n        /* \"GitHub/contract-token-cryptoMonster/backend/shared/helpers/modifireFunc.sol\":1150:1160  msg.sender */\n      caller\n        /* \"GitHub/contract-token-cryptoMonster/backend/shared/helpers/modifireFunc.sol\":1137:1149  structUsers_ */\n      0x00\n        /* \"GitHub/contract-token-cryptoMonster/backend/shared/helpers/modifireFunc.sol\":1137:1161  structUsers_[msg.sender] */\n      swap1\n      dup2\n      mstore\n      0x20\n      dup2\n      swap1\n      mstore\n      0x40\n      swap1\n      keccak256\n        /* \"GitHub/contract-token-cryptoMonster/backend/shared/helpers/modifireFunc.sol\":1137:1166  structUsers_[msg.sender].role */\n      sload\n      0xff\n      and\n        /* \"GitHub/contract-token-cryptoMonster/backend/shared/helpers/modifireFunc.sol\":1137:1189  structUsers_[msg.sender].role == Role.SYSTEM_PRIVATE */\n      0x04\n      dup2\n      gt\n      iszero\n      tag_235\n      jumpi\n      tag_235\n      tag_86\n      jump\t// in\n    tag_235:\n      eq\n        /* \"GitHub/contract-token-cryptoMonster/backend/shared/helpers/modifireFunc.sol\":1083:1189  structUsers_[msg.sender].role == Role.SYSTEM_OWNER || structUsers_[msg.sender].role == Role.SYSTEM_PRIVATE */\n    tag_231:\n        /* \"GitHub/contract-token-cryptoMonster/backend/shared/helpers/modifireFunc.sol\":1075:1235  require(structUsers_[msg.sender].role == Role.SYSTEM_OWNER || structUsers_[msg.sender].role == Role.SYSTEM_PRIVATE, \"You are not the owner or private provider\") */\n      tag_236\n      jumpi\n      mload(0x40)\n      shl(0xe5, 0x461bcd)\n      dup2\n      mstore\n        /* \"#utility.yul\":5682:5684   */\n      0x20\n        /* \"GitHub/contract-token-cryptoMonster/backend/shared/helpers/modifireFunc.sol\":1075:1235  require(structUsers_[msg.sender].role == Role.SYSTEM_OWNER || structUsers_[msg.sender].role == Role.SYSTEM_PRIVATE, \"You are not the owner or private provider\") */\n      0x04\n      dup3\n      add\n        /* \"#utility.yul\":5664:5685   */\n      mstore\n        /* \"#utility.yul\":5721:5723   */\n      0x29\n        /* \"#utility.yul\":5701:5719   */\n      0x24\n      dup3\n      add\n        /* \"#utility.yul\":5694:5724   */\n      mstore\n        /* \"#utility.yul\":5760:5794   */\n      0x596f7520617265206e6f7420746865206f776e6572206f722070726976617465\n        /* \"#utility.yul\":5740:5758   */\n      0x44\n      dup3\n      add\n        /* \"#utility.yul\":5733:5795   */\n      mstore\n      shl(0xb9, 0x10383937bb34b232b9)\n        /* \"#utility.yul\":5811:5829   */\n      0x64\n      dup3\n      add\n        /* \"#utility.yul\":5804:5843   */\n      mstore\n        /* \"#utility.yul\":5860:5879   */\n      0x84\n      add\n        /* \"GitHub/contract-token-cryptoMonster/backend/shared/helpers/modifireFunc.sol\":1075:1235  require(structUsers_[msg.sender].role == Role.SYSTEM_OWNER || structUsers_[msg.sender].role == Role.SYSTEM_PRIVATE, \"You are not the owner or private provider\") */\n      tag_90\n        /* \"#utility.yul\":5480:5885   */\n      jump\n        /* \"GitHub/contract-token-cryptoMonster/backend/shared/helpers/modifireFunc.sol\":1075:1235  require(structUsers_[msg.sender].role == Role.SYSTEM_OWNER || structUsers_[msg.sender].role == Role.SYSTEM_PRIVATE, \"You are not the owner or private provider\") */\n    tag_236:\n        /* \"GitHub/contract-token-cryptoMonster/backend/shared/helpers/helpresFunc.sol\":536:545  whiteList */\n      0x07\n        /* \"GitHub/contract-token-cryptoMonster/backend/shared/helpers/helpresFunc.sol\":529:546  return(whiteList) */\n      dup1\n      sload\n      dup1\n      0x20\n      mul\n      0x20\n      add\n      mload(0x40)\n      swap1\n      dup2\n      add\n      0x40\n      mstore\n      dup1\n      swap3\n      swap2\n      swap1\n      dup2\n      dup2\n      mstore\n      0x20\n      add\n      dup3\n      dup1\n      sload\n      dup1\n      iszero\n      tag_114\n      jumpi\n      0x20\n      mul\n      dup3\n      add\n      swap2\n      swap1\n      0x00\n      mstore\n      keccak256(0x00, 0x20)\n      swap1\n      dup2\n      sload\n      sub(shl(0xa0, 0x01), 0x01)\n      and\n      dup2\n      mstore\n      0x01\n      swap1\n      swap2\n      add\n      swap1\n      0x20\n      add\n      dup1\n      dup4\n      gt\n      tag_115\n      jumpi\n      pop\n      pop\n      pop\n      pop\n      pop\n      swap1\n      pop\n        /* \"GitHub/contract-token-cryptoMonster/backend/shared/helpers/helpresFunc.sol\":426:554  function get_whiteList() public onlyOwnerAndPrivateProvider view returns (address[] memory) {\r... */\n      swap1\n      jump\t// out\n        /* \"GitHub/contract-token-cryptoMonster/backend/shared/lib/structures.sol\":836:887  mapping (address => structUser) public structUsers_ */\n    tag_80:\n      0x00\n      0x20\n      dup2\n      swap1\n      mstore\n      swap1\n      dup2\n      mstore\n      0x40\n      swap1\n      keccak256\n      dup1\n      sload\n      0x01\n      dup3\n      add\n      dup1\n      sload\n      0xff\n      swap1\n      swap3\n      and\n      swap3\n      swap2\n      tag_242\n      swap1\n      tag_216\n      jump\t// in\n    tag_242:\n      dup1\n      0x1f\n      add\n      0x20\n      dup1\n      swap2\n      div\n      mul\n      0x20\n      add\n      mload(0x40)\n      swap1\n      dup2\n      add\n      0x40\n      mstore\n      dup1\n      swap3\n      swap2\n      swap1\n      dup2\n      dup2\n      mstore\n      0x20\n      add\n      dup3\n      dup1\n      sload\n      tag_243\n      swap1\n      tag_216\n      jump\t// in\n    tag_243:\n      dup1\n      iszero\n      tag_244\n      jumpi\n      dup1\n      0x1f\n      lt\n      tag_245\n      jumpi\n      0x0100\n      dup1\n      dup4\n      sload\n      div\n      mul\n      dup4\n      mstore\n      swap2\n      0x20\n      add\n      swap2\n      jump(tag_244)\n    tag_245:\n      dup3\n      add\n      swap2\n      swap1\n      0x00\n      mstore\n      keccak256(0x00, 0x20)\n      swap1\n    tag_246:\n      dup2\n      sload\n      dup2\n      mstore\n      swap1\n      0x01\n      add\n      swap1\n      0x20\n      add\n      dup1\n      dup4\n      gt\n      tag_246\n      jumpi\n      dup3\n      swap1\n      sub\n      0x1f\n      and\n      dup3\n      add\n      swap2\n    tag_244:\n      pop\n      pop\n      pop\n      pop\n      pop\n      swap1\n      dup1\n      0x02\n      add\n      sload\n      swap1\n      dup1\n      0x03\n      add\n      sload\n      swap1\n      dup1\n      0x04\n      add\n      sload\n      swap1\n      dup1\n      0x05\n      add\n      sload\n      swap1\n      dup1\n      0x06\n      add\n      sload\n      swap1\n      pop\n      dup8\n      jump\t// out\n    tag_165:\n      dup3\n      dup1\n      sload\n      tag_247\n      swap1\n      tag_216\n      jump\t// in\n    tag_247:\n      swap1\n      0x00\n      mstore\n      keccak256(0x00, 0x20)\n      swap1\n      0x1f\n      add\n      0x20\n      swap1\n      div\n      dup2\n      add\n      swap3\n      dup3\n      tag_249\n      jumpi\n      0x00\n      dup6\n      sstore\n      jump(tag_252)\n    tag_249:\n      dup3\n      0x1f\n      lt\n      tag_250\n      jumpi\n      dup1\n      mload\n      not(0xff)\n      and\n      dup4\n      dup1\n      add\n      or\n      dup6\n      sstore\n      jump(tag_252)\n    tag_250:\n      dup3\n      dup1\n      add\n      0x01\n      add\n      dup6\n      sstore\n      dup3\n      iszero\n      tag_252\n      jumpi\n      swap2\n      dup3\n      add\n    tag_251:\n      dup3\n      dup2\n      gt\n      iszero\n      tag_252\n      jumpi\n      dup3\n      mload\n      dup3\n      sstore\n      swap2\n      0x20\n      add\n      swap2\n      swap1\n      0x01\n      add\n      swap1\n      jump(tag_251)\n    tag_252:\n      pop\n      tag_253\n      swap3\n      swap2\n      pop\n      tag_254\n      jump\t// in\n    tag_253:\n      pop\n      swap1\n      jump\t// out\n    tag_254:\n    tag_255:\n      dup1\n      dup3\n      gt\n      iszero\n      tag_253\n      jumpi\n      0x00\n      dup2\n      sstore\n      0x01\n      add\n      jump(tag_255)\n        /* \"#utility.yul\":14:187   */\n    tag_258:\n        /* \"#utility.yul\":82:102   */\n      dup1\n      calldataload\n      sub(shl(0xa0, 0x01), 0x01)\n        /* \"#utility.yul\":131:162   */\n      dup2\n      and\n        /* \"#utility.yul\":121:163   */\n      dup2\n      eq\n        /* \"#utility.yul\":111:181   */\n      tag_260\n      jumpi\n        /* \"#utility.yul\":177:178   */\n      0x00\n        /* \"#utility.yul\":174:175   */\n      dup1\n        /* \"#utility.yul\":167:179   */\n      revert\n        /* \"#utility.yul\":111:181   */\n    tag_260:\n        /* \"#utility.yul\":14:187   */\n      swap2\n      swap1\n      pop\n      jump\t// out\n        /* \"#utility.yul\":192:911   */\n    tag_261:\n        /* \"#utility.yul\":235:240   */\n      0x00\n        /* \"#utility.yul\":288:291   */\n      dup3\n        /* \"#utility.yul\":281:285   */\n      0x1f\n        /* \"#utility.yul\":273:279   */\n      dup4\n        /* \"#utility.yul\":269:286   */\n      add\n        /* \"#utility.yul\":265:292   */\n      slt\n        /* \"#utility.yul\":255:310   */\n      tag_263\n      jumpi\n        /* \"#utility.yul\":306:307   */\n      0x00\n        /* \"#utility.yul\":303:304   */\n      dup1\n        /* \"#utility.yul\":296:308   */\n      revert\n        /* \"#utility.yul\":255:310   */\n    tag_263:\n        /* \"#utility.yul\":329:349   */\n      dup2\n      calldataload\n      sub(shl(0x40, 0x01), 0x01)\n        /* \"#utility.yul\":398:408   */\n      dup1\n      dup3\n      gt\n        /* \"#utility.yul\":395:431   */\n      iszero\n      tag_265\n      jumpi\n        /* \"#utility.yul\":411:429   */\n      tag_265\n      tag_266\n      jump\t// in\n    tag_265:\n        /* \"#utility.yul\":486:488   */\n      0x40\n        /* \"#utility.yul\":480:489   */\n      mload\n        /* \"#utility.yul\":454:456   */\n      0x1f\n        /* \"#utility.yul\":540:553   */\n      dup4\n      add\n      not(0x1f)\n        /* \"#utility.yul\":536:558   */\n      swap1\n      dup2\n      and\n        /* \"#utility.yul\":560:562   */\n      0x3f\n        /* \"#utility.yul\":532:563   */\n      add\n        /* \"#utility.yul\":528:568   */\n      and\n        /* \"#utility.yul\":516:569   */\n      dup2\n      add\n      swap1\n        /* \"#utility.yul\":584:602   */\n      dup3\n      dup3\n      gt\n        /* \"#utility.yul\":604:626   */\n      dup2\n      dup4\n      lt\n        /* \"#utility.yul\":581:627   */\n      or\n        /* \"#utility.yul\":578:650   */\n      iszero\n      tag_268\n      jumpi\n        /* \"#utility.yul\":630:648   */\n      tag_268\n      tag_266\n      jump\t// in\n    tag_268:\n        /* \"#utility.yul\":670:680   */\n      dup2\n        /* \"#utility.yul\":666:668   */\n      0x40\n        /* \"#utility.yul\":659:681   */\n      mstore\n        /* \"#utility.yul\":705:707   */\n      dup4\n        /* \"#utility.yul\":697:703   */\n      dup2\n        /* \"#utility.yul\":690:708   */\n      mstore\n        /* \"#utility.yul\":751:754   */\n      dup7\n        /* \"#utility.yul\":744:748   */\n      0x20\n        /* \"#utility.yul\":739:741   */\n      dup6\n        /* \"#utility.yul\":731:737   */\n      dup9\n        /* \"#utility.yul\":727:742   */\n      add\n        /* \"#utility.yul\":723:749   */\n      add\n        /* \"#utility.yul\":720:755   */\n      gt\n        /* \"#utility.yul\":717:772   */\n      iszero\n      tag_269\n      jumpi\n        /* \"#utility.yul\":768:769   */\n      0x00\n        /* \"#utility.yul\":765:766   */\n      dup1\n        /* \"#utility.yul\":758:770   */\n      revert\n        /* \"#utility.yul\":717:772   */\n    tag_269:\n        /* \"#utility.yul\":832:834   */\n      dup4\n        /* \"#utility.yul\":825:829   */\n      0x20\n        /* \"#utility.yul\":817:823   */\n      dup8\n        /* \"#utility.yul\":813:830   */\n      add\n        /* \"#utility.yul\":806:810   */\n      0x20\n        /* \"#utility.yul\":798:804   */\n      dup4\n        /* \"#utility.yul\":794:811   */\n      add\n        /* \"#utility.yul\":781:835   */\n      calldatacopy\n        /* \"#utility.yul\":879:880   */\n      0x00\n        /* \"#utility.yul\":872:876   */\n      0x20\n        /* \"#utility.yul\":867:869   */\n      dup6\n        /* \"#utility.yul\":859:865   */\n      dup4\n        /* \"#utility.yul\":855:870   */\n      add\n        /* \"#utility.yul\":851:877   */\n      add\n        /* \"#utility.yul\":844:881   */\n      mstore\n        /* \"#utility.yul\":899:905   */\n      dup1\n        /* \"#utility.yul\":890:905   */\n      swap5\n      pop\n      pop\n      pop\n      pop\n      pop\n        /* \"#utility.yul\":192:911   */\n      swap3\n      swap2\n      pop\n      pop\n      jump\t// out\n        /* \"#utility.yul\":916:1102   */\n    tag_28:\n        /* \"#utility.yul\":975:981   */\n      0x00\n        /* \"#utility.yul\":1028:1030   */\n      0x20\n        /* \"#utility.yul\":1016:1025   */\n      dup3\n        /* \"#utility.yul\":1007:1014   */\n      dup5\n        /* \"#utility.yul\":1003:1026   */\n      sub\n        /* \"#utility.yul\":999:1031   */\n      slt\n        /* \"#utility.yul\":996:1048   */\n      iszero\n      tag_271\n      jumpi\n        /* \"#utility.yul\":1044:1045   */\n      0x00\n        /* \"#utility.yul\":1041:1042   */\n      dup1\n        /* \"#utility.yul\":1034:1046   */\n      revert\n        /* \"#utility.yul\":996:1048   */\n    tag_271:\n        /* \"#utility.yul\":1067:1096   */\n      tag_272\n        /* \"#utility.yul\":1086:1095   */\n      dup3\n        /* \"#utility.yul\":1067:1096   */\n      tag_258\n      jump\t// in\n    tag_272:\n        /* \"#utility.yul\":1057:1096   */\n      swap4\n        /* \"#utility.yul\":916:1102   */\n      swap3\n      pop\n      pop\n      pop\n      jump\t// out\n        /* \"#utility.yul\":1107:1429   */\n    tag_57:\n        /* \"#utility.yul\":1176:1182   */\n      0x00\n        /* \"#utility.yul\":1229:1231   */\n      0x20\n        /* \"#utility.yul\":1217:1226   */\n      dup3\n        /* \"#utility.yul\":1208:1215   */\n      dup5\n        /* \"#utility.yul\":1204:1227   */\n      sub\n        /* \"#utility.yul\":1200:1232   */\n      slt\n        /* \"#utility.yul\":1197:1249   */\n      iszero\n      tag_274\n      jumpi\n        /* \"#utility.yul\":1245:1246   */\n      0x00\n        /* \"#utility.yul\":1242:1243   */\n      dup1\n        /* \"#utility.yul\":1235:1247   */\n      revert\n        /* \"#utility.yul\":1197:1249   */\n    tag_274:\n        /* \"#utility.yul\":1272:1295   */\n      dup2\n      calldataload\n      sub(shl(0x40, 0x01), 0x01)\n        /* \"#utility.yul\":1307:1337   */\n      dup2\n      gt\n        /* \"#utility.yul\":1304:1354   */\n      iszero\n      tag_275\n      jumpi\n        /* \"#utility.yul\":1350:1351   */\n      0x00\n        /* \"#utility.yul\":1347:1348   */\n      dup1\n        /* \"#utility.yul\":1340:1352   */\n      revert\n        /* \"#utility.yul\":1304:1354   */\n    tag_275:\n        /* \"#utility.yul\":1373:1423   */\n      tag_276\n        /* \"#utility.yul\":1415:1422   */\n      dup5\n        /* \"#utility.yul\":1406:1412   */\n      dup3\n        /* \"#utility.yul\":1395:1404   */\n      dup6\n        /* \"#utility.yul\":1391:1413   */\n      add\n        /* \"#utility.yul\":1373:1423   */\n      tag_261\n      jump\t// in\n    tag_276:\n        /* \"#utility.yul\":1363:1423   */\n      swap5\n        /* \"#utility.yul\":1107:1429   */\n      swap4\n      pop\n      pop\n      pop\n      pop\n      jump\t// out\n        /* \"#utility.yul\":1434:2051   */\n    tag_44:\n        /* \"#utility.yul\":1531:1537   */\n      0x00\n        /* \"#utility.yul\":1539:1545   */\n      dup1\n        /* \"#utility.yul\":1547:1553   */\n      0x00\n        /* \"#utility.yul\":1600:1602   */\n      0x60\n        /* \"#utility.yul\":1588:1597   */\n      dup5\n        /* \"#utility.yul\":1579:1586   */\n      dup7\n        /* \"#utility.yul\":1575:1598   */\n      sub\n        /* \"#utility.yul\":1571:1603   */\n      slt\n        /* \"#utility.yul\":1568:1620   */\n      iszero\n      tag_278\n      jumpi\n        /* \"#utility.yul\":1616:1617   */\n      0x00\n        /* \"#utility.yul\":1613:1614   */\n      dup1\n        /* \"#utility.yul\":1606:1618   */\n      revert\n        /* \"#utility.yul\":1568:1620   */\n    tag_278:\n        /* \"#utility.yul\":1643:1666   */\n      dup4\n      calldataload\n      sub(shl(0x40, 0x01), 0x01)\n        /* \"#utility.yul\":1715:1729   */\n      dup1\n      dup3\n      gt\n        /* \"#utility.yul\":1712:1746   */\n      iszero\n      tag_279\n      jumpi\n        /* \"#utility.yul\":1742:1743   */\n      0x00\n        /* \"#utility.yul\":1739:1740   */\n      dup1\n        /* \"#utility.yul\":1732:1744   */\n      revert\n        /* \"#utility.yul\":1712:1746   */\n    tag_279:\n        /* \"#utility.yul\":1765:1815   */\n      tag_280\n        /* \"#utility.yul\":1807:1814   */\n      dup8\n        /* \"#utility.yul\":1798:1804   */\n      dup4\n        /* \"#utility.yul\":1787:1796   */\n      dup9\n        /* \"#utility.yul\":1783:1805   */\n      add\n        /* \"#utility.yul\":1765:1815   */\n      tag_261\n      jump\t// in\n    tag_280:\n        /* \"#utility.yul\":1755:1815   */\n      swap5\n      pop\n        /* \"#utility.yul\":1868:1870   */\n      0x20\n        /* \"#utility.yul\":1857:1866   */\n      dup7\n        /* \"#utility.yul\":1853:1871   */\n      add\n        /* \"#utility.yul\":1840:1872   */\n      calldataload\n        /* \"#utility.yul\":1824:1872   */\n      swap2\n      pop\n        /* \"#utility.yul\":1897:1899   */\n      dup1\n        /* \"#utility.yul\":1887:1895   */\n      dup3\n        /* \"#utility.yul\":1884:1900   */\n      gt\n        /* \"#utility.yul\":1881:1917   */\n      iszero\n      tag_281\n      jumpi\n        /* \"#utility.yul\":1913:1914   */\n      0x00\n        /* \"#utility.yul\":1910:1911   */\n      dup1\n        /* \"#utility.yul\":1903:1915   */\n      revert\n        /* \"#utility.yul\":1881:1917   */\n    tag_281:\n      pop\n        /* \"#utility.yul\":1936:1988   */\n      tag_282\n        /* \"#utility.yul\":1980:1987   */\n      dup7\n        /* \"#utility.yul\":1969:1977   */\n      dup3\n        /* \"#utility.yul\":1958:1967   */\n      dup8\n        /* \"#utility.yul\":1954:1978   */\n      add\n        /* \"#utility.yul\":1936:1988   */\n      tag_261\n      jump\t// in\n    tag_282:\n        /* \"#utility.yul\":1926:1988   */\n      swap3\n      pop\n      pop\n        /* \"#utility.yul\":2007:2045   */\n      tag_283\n        /* \"#utility.yul\":2041:2043   */\n      0x40\n        /* \"#utility.yul\":2030:2039   */\n      dup6\n        /* \"#utility.yul\":2026:2044   */\n      add\n        /* \"#utility.yul\":2007:2045   */\n      tag_258\n      jump\t// in\n    tag_283:\n        /* \"#utility.yul\":1997:2045   */\n      swap1\n      pop\n        /* \"#utility.yul\":1434:2051   */\n      swap3\n      pop\n      swap3\n      pop\n      swap3\n      jump\t// out\n        /* \"#utility.yul\":2056:2236   */\n    tag_53:\n        /* \"#utility.yul\":2115:2121   */\n      0x00\n        /* \"#utility.yul\":2168:2170   */\n      0x20\n        /* \"#utility.yul\":2156:2165   */\n      dup3\n        /* \"#utility.yul\":2147:2154   */\n      dup5\n        /* \"#utility.yul\":2143:2166   */\n      sub\n        /* \"#utility.yul\":2139:2171   */\n      slt\n        /* \"#utility.yul\":2136:2188   */\n      iszero\n      tag_285\n      jumpi\n        /* \"#utility.yul\":2184:2185   */\n      0x00\n        /* \"#utility.yul\":2181:2182   */\n      dup1\n        /* \"#utility.yul\":2174:2186   */\n      revert\n        /* \"#utility.yul\":2136:2188   */\n    tag_285:\n      pop\n        /* \"#utility.yul\":2207:2230   */\n      calldataload\n      swap2\n        /* \"#utility.yul\":2056:2236   */\n      swap1\n      pop\n      jump\t// out\n        /* \"#utility.yul\":2241:2517   */\n    tag_201:\n        /* \"#utility.yul\":2372:2375   */\n      0x00\n        /* \"#utility.yul\":2410:2416   */\n      dup3\n        /* \"#utility.yul\":2404:2417   */\n      mload\n        /* \"#utility.yul\":2426:2479   */\n      tag_287\n        /* \"#utility.yul\":2472:2478   */\n      dup2\n        /* \"#utility.yul\":2467:2470   */\n      dup5\n        /* \"#utility.yul\":2460:2464   */\n      0x20\n        /* \"#utility.yul\":2452:2458   */\n      dup8\n        /* \"#utility.yul\":2448:2465   */\n      add\n        /* \"#utility.yul\":2426:2479   */\n      tag_288\n      jump\t// in\n    tag_287:\n        /* \"#utility.yul\":2495:2511   */\n      swap2\n      swap1\n      swap2\n      add\n      swap3\n        /* \"#utility.yul\":2241:2517   */\n      swap2\n      pop\n      pop\n      jump\t// out\n        /* \"#utility.yul\":2522:3180   */\n    tag_37:\n        /* \"#utility.yul\":2693:2695   */\n      0x20\n        /* \"#utility.yul\":2745:2766   */\n      dup1\n      dup3\n      mstore\n        /* \"#utility.yul\":2815:2828   */\n      dup3\n      mload\n        /* \"#utility.yul\":2718:2736   */\n      dup3\n      dup3\n      add\n        /* \"#utility.yul\":2837:2859   */\n      dup2\n      swap1\n      mstore\n        /* \"#utility.yul\":2664:2668   */\n      0x00\n      swap2\n        /* \"#utility.yul\":2693:2695   */\n      swap1\n        /* \"#utility.yul\":2916:2931   */\n      dup5\n      dup3\n      add\n      swap1\n        /* \"#utility.yul\":2890:2892   */\n      0x40\n        /* \"#utility.yul\":2875:2893   */\n      dup6\n      add\n      swap1\n        /* \"#utility.yul\":2664:2668   */\n      dup5\n        /* \"#utility.yul\":2959:3154   */\n    tag_290:\n        /* \"#utility.yul\":2973:2979   */\n      dup2\n        /* \"#utility.yul\":2970:2971   */\n      dup2\n        /* \"#utility.yul\":2967:2980   */\n      lt\n        /* \"#utility.yul\":2959:3154   */\n      iszero\n      tag_292\n      jumpi\n        /* \"#utility.yul\":3038:3051   */\n      dup4\n      mload\n      sub(shl(0xa0, 0x01), 0x01)\n        /* \"#utility.yul\":3034:3073   */\n      and\n        /* \"#utility.yul\":3022:3074   */\n      dup4\n      mstore\n        /* \"#utility.yul\":3129:3144   */\n      swap3\n      dup5\n      add\n      swap3\n        /* \"#utility.yul\":3094:3106   */\n      swap2\n      dup5\n      add\n      swap2\n        /* \"#utility.yul\":3070:3071   */\n      0x01\n        /* \"#utility.yul\":2988:2997   */\n      add\n        /* \"#utility.yul\":2959:3154   */\n      jump(tag_290)\n    tag_292:\n      pop\n        /* \"#utility.yul\":3171:3174   */\n      swap1\n      swap7\n        /* \"#utility.yul\":2522:3180   */\n      swap6\n      pop\n      pop\n      pop\n      pop\n      pop\n      pop\n      jump\t// out\n        /* \"#utility.yul\":3367:4362   */\n    tag_82:\n        /* \"#utility.yul\":3653:3657   */\n      0x00\n        /* \"#utility.yul\":3693:3694   */\n      0x05\n        /* \"#utility.yul\":3685:3691   */\n      dup10\n        /* \"#utility.yul\":3682:3695   */\n      lt\n        /* \"#utility.yul\":3672:3816   */\n      tag_295\n      jumpi\n        /* \"#utility.yul\":3738:3748   */\n      0x4e487b71\n        /* \"#utility.yul\":3733:3736   */\n      0xe0\n        /* \"#utility.yul\":3729:3749   */\n      shl\n        /* \"#utility.yul\":3726:3727   */\n      0x00\n        /* \"#utility.yul\":3719:3750   */\n      mstore\n        /* \"#utility.yul\":3773:3777   */\n      0x21\n        /* \"#utility.yul\":3770:3771   */\n      0x04\n        /* \"#utility.yul\":3763:3778   */\n      mstore\n        /* \"#utility.yul\":3801:3805   */\n      0x24\n        /* \"#utility.yul\":3798:3799   */\n      0x00\n        /* \"#utility.yul\":3791:3806   */\n      revert\n        /* \"#utility.yul\":3672:3816   */\n    tag_295:\n        /* \"#utility.yul\":3843:3849   */\n      dup9\n        /* \"#utility.yul\":3832:3841   */\n      dup3\n        /* \"#utility.yul\":3825:3850   */\n      mstore\n        /* \"#utility.yul\":3886:3889   */\n      0xe0\n        /* \"#utility.yul\":3881:3883   */\n      0x20\n        /* \"#utility.yul\":3870:3879   */\n      dup4\n        /* \"#utility.yul\":3866:3884   */\n      add\n        /* \"#utility.yul\":3859:3890   */\n      mstore\n        /* \"#utility.yul\":3919:3925   */\n      dup8\n        /* \"#utility.yul\":3913:3926   */\n      mload\n        /* \"#utility.yul\":3963:3969   */\n      dup1\n        /* \"#utility.yul\":3957:3960   */\n      0xe0\n        /* \"#utility.yul\":3946:3955   */\n      dup5\n        /* \"#utility.yul\":3942:3961   */\n      add\n        /* \"#utility.yul\":3935:3970   */\n      mstore\n        /* \"#utility.yul\":3989:3992   */\n      0x0100\n        /* \"#utility.yul\":4001:4067   */\n      tag_296\n        /* \"#utility.yul\":4060:4066   */\n      dup3\n        /* \"#utility.yul\":4055:4057   */\n      dup3\n        /* \"#utility.yul\":4044:4053   */\n      dup7\n        /* \"#utility.yul\":4040:4058   */\n      add\n        /* \"#utility.yul\":4035:4037   */\n      0x20\n        /* \"#utility.yul\":4027:4033   */\n      dup14\n        /* \"#utility.yul\":4023:4038   */\n      add\n        /* \"#utility.yul\":4001:4067   */\n      tag_288\n      jump\t// in\n    tag_296:\n        /* \"#utility.yul\":4169:4171   */\n      0x40\n        /* \"#utility.yul\":4154:4172   */\n      dup5\n      add\n        /* \"#utility.yul\":4147:4181   */\n      swap9\n      swap1\n      swap9\n      mstore\n        /* \"#utility.yul\":4212:4214   */\n      0x60\n        /* \"#utility.yul\":4197:4215   */\n      dup4\n      add\n        /* \"#utility.yul\":4190:4224   */\n      swap7\n      swap1\n      swap7\n      mstore\n      pop\n        /* \"#utility.yul\":4255:4258   */\n      0x80\n        /* \"#utility.yul\":4240:4259   */\n      dup2\n      add\n        /* \"#utility.yul\":4233:4268   */\n      swap4\n      swap1\n      swap4\n      mstore\n        /* \"#utility.yul\":4299:4302   */\n      0xa0\n        /* \"#utility.yul\":4284:4303   */\n      dup4\n      add\n        /* \"#utility.yul\":4277:4312   */\n      swap2\n      swap1\n      swap2\n      mstore\n        /* \"#utility.yul\":4343:4346   */\n      0xc0\n        /* \"#utility.yul\":4328:4347   */\n      dup3\n      add\n        /* \"#utility.yul\":4321:4356   */\n      mstore\n        /* \"#utility.yul\":4128:4130   */\n      0x1f\n        /* \"#utility.yul\":4107:4122   */\n      swap1\n      swap2\n      add\n      not(0x1f)\n        /* \"#utility.yul\":4103:4132   */\n      and\n        /* \"#utility.yul\":4088:4133   */\n      add\n        /* \"#utility.yul\":4084:4138   */\n      add\n      swap3\n      swap2\n      pop\n      pop\n        /* \"#utility.yul\":3367:4362   */\n      jump\t// out\n        /* \"#utility.yul\":7013:7362   */\n    tag_91:\n        /* \"#utility.yul\":7215:7217   */\n      0x20\n        /* \"#utility.yul\":7197:7218   */\n      dup1\n      dup3\n      mstore\n        /* \"#utility.yul\":7254:7256   */\n      0x19\n        /* \"#utility.yul\":7234:7252   */\n      swap1\n      dup3\n      add\n        /* \"#utility.yul\":7227:7257   */\n      mstore\n      shl(0x39, 0x2cb7bab9103737ba10283934bb30ba3290383937bb34b232b9)\n        /* \"#utility.yul\":7288:7290   */\n      0x40\n        /* \"#utility.yul\":7273:7291   */\n      dup3\n      add\n        /* \"#utility.yul\":7266:7321   */\n      mstore\n        /* \"#utility.yul\":7353:7355   */\n      0x60\n        /* \"#utility.yul\":7338:7356   */\n      add\n      swap1\n        /* \"#utility.yul\":7013:7362   */\n      jump\t// out\n        /* \"#utility.yul\":8325:8583   */\n    tag_288:\n        /* \"#utility.yul\":8397:8398   */\n      0x00\n        /* \"#utility.yul\":8407:8520   */\n    tag_309:\n        /* \"#utility.yul\":8421:8427   */\n      dup4\n        /* \"#utility.yul\":8418:8419   */\n      dup2\n        /* \"#utility.yul\":8415:8428   */\n      lt\n        /* \"#utility.yul\":8407:8520   */\n      iszero\n      tag_311\n      jumpi\n        /* \"#utility.yul\":8497:8508   */\n      dup2\n      dup2\n      add\n        /* \"#utility.yul\":8491:8509   */\n      mload\n        /* \"#utility.yul\":8478:8489   */\n      dup4\n      dup3\n      add\n        /* \"#utility.yul\":8471:8510   */\n      mstore\n        /* \"#utility.yul\":8443:8445   */\n      0x20\n        /* \"#utility.yul\":8436:8446   */\n      add\n        /* \"#utility.yul\":8407:8520   */\n      jump(tag_309)\n    tag_311:\n        /* \"#utility.yul\":8538:8544   */\n      dup4\n        /* \"#utility.yul\":8535:8536   */\n      dup2\n        /* \"#utility.yul\":8532:8545   */\n      gt\n        /* \"#utility.yul\":8529:8577   */\n      iszero\n      tag_312\n      jumpi\n        /* \"#utility.yul\":8573:8574   */\n      0x00\n        /* \"#utility.yul\":8564:8570   */\n      dup5\n        /* \"#utility.yul\":8559:8562   */\n      dup5\n        /* \"#utility.yul\":8555:8571   */\n      add\n        /* \"#utility.yul\":8548:8575   */\n      mstore\n        /* \"#utility.yul\":8529:8577   */\n    tag_312:\n      pop\n        /* \"#utility.yul\":8325:8583   */\n      pop\n      pop\n      pop\n      jump\t// out\n        /* \"#utility.yul\":8588:8968   */\n    tag_216:\n        /* \"#utility.yul\":8667:8668   */\n      0x01\n        /* \"#utility.yul\":8663:8675   */\n      dup2\n      dup2\n      shr\n      swap1\n        /* \"#utility.yul\":8710:8722   */\n      dup3\n      and\n      dup1\n        /* \"#utility.yul\":8731:8792   */\n      tag_314\n      jumpi\n        /* \"#utility.yul\":8785:8789   */\n      0x7f\n        /* \"#utility.yul\":8777:8783   */\n      dup3\n        /* \"#utility.yul\":8773:8790   */\n      and\n        /* \"#utility.yul\":8763:8790   */\n      swap2\n      pop\n        /* \"#utility.yul\":8731:8792   */\n    tag_314:\n        /* \"#utility.yul\":8838:8840   */\n      0x20\n        /* \"#utility.yul\":8830:8836   */\n      dup3\n        /* \"#utility.yul\":8827:8841   */\n      lt\n        /* \"#utility.yul\":8807:8825   */\n      dup2\n        /* \"#utility.yul\":8804:8842   */\n      eq\n        /* \"#utility.yul\":8801:8962   */\n      iszero\n      tag_315\n      jumpi\n        /* \"#utility.yul\":8884:8894   */\n      0x4e487b71\n        /* \"#utility.yul\":8879:8882   */\n      0xe0\n        /* \"#utility.yul\":8875:8895   */\n      shl\n        /* \"#utility.yul\":8872:8873   */\n      0x00\n        /* \"#utility.yul\":8865:8896   */\n      mstore\n        /* \"#utility.yul\":8919:8923   */\n      0x22\n        /* \"#utility.yul\":8916:8917   */\n      0x04\n        /* \"#utility.yul\":8909:8924   */\n      mstore\n        /* \"#utility.yul\":8947:8951   */\n      0x24\n        /* \"#utility.yul\":8944:8945   */\n      0x00\n        /* \"#utility.yul\":8937:8952   */\n      revert\n        /* \"#utility.yul\":8801:8962   */\n    tag_315:\n      pop\n        /* \"#utility.yul\":8588:8968   */\n      swap2\n      swap1\n      pop\n      jump\t// out\n        /* \"#utility.yul\":8973:9205   */\n    tag_160:\n        /* \"#utility.yul\":9012:9015   */\n      0x00\n      not(0x00)\n        /* \"#utility.yul\":9033:9050   */\n      dup3\n      eq\n        /* \"#utility.yul\":9030:9170   */\n      iszero\n      tag_317\n      jumpi\n        /* \"#utility.yul\":9092:9102   */\n      0x4e487b71\n        /* \"#utility.yul\":9087:9090   */\n      0xe0\n        /* \"#utility.yul\":9083:9103   */\n      shl\n        /* \"#utility.yul\":9080:9081   */\n      0x00\n        /* \"#utility.yul\":9073:9104   */\n      mstore\n        /* \"#utility.yul\":9127:9131   */\n      0x11\n        /* \"#utility.yul\":9124:9125   */\n      0x04\n        /* \"#utility.yul\":9117:9132   */\n      mstore\n        /* \"#utility.yul\":9155:9159   */\n      0x24\n        /* \"#utility.yul\":9152:9153   */\n      0x00\n        /* \"#utility.yul\":9145:9160   */\n      revert\n        /* \"#utility.yul\":9030:9170   */\n    tag_317:\n      pop\n        /* \"#utility.yul\":9197:9198   */\n      0x01\n        /* \"#utility.yul\":9186:9199   */\n      add\n      swap1\n        /* \"#utility.yul\":8973:9205   */\n      jump\t// out\n        /* \"#utility.yul\":9210:9337   */\n    tag_86:\n        /* \"#utility.yul\":9271:9281   */\n      0x4e487b71\n        /* \"#utility.yul\":9266:9269   */\n      0xe0\n        /* \"#utility.yul\":9262:9282   */\n      shl\n        /* \"#utility.yul\":9259:9260   */\n      0x00\n        /* \"#utility.yul\":9252:9283   */\n      mstore\n        /* \"#utility.yul\":9302:9306   */\n      0x21\n        /* \"#utility.yul\":9299:9300   */\n      0x04\n        /* \"#utility.yul\":9292:9307   */\n      mstore\n        /* \"#utility.yul\":9326:9330   */\n      0x24\n        /* \"#utility.yul\":9323:9324   */\n      0x00\n        /* \"#utility.yul\":9316:9331   */\n      revert\n        /* \"#utility.yul\":9342:9469   */\n    tag_153:\n        /* \"#utility.yul\":9403:9413   */\n      0x4e487b71\n        /* \"#utility.yul\":9398:9401   */\n      0xe0\n        /* \"#utility.yul\":9394:9414   */\n      shl\n        /* \"#utility.yul\":9391:9392   */\n      0x00\n        /* \"#utility.yul\":9384:9415   */\n      mstore\n        /* \"#utility.yul\":9434:9438   */\n      0x32\n        /* \"#utility.yul\":9431:9432   */\n      0x04\n        /* \"#utility.yul\":9424:9439   */\n      mstore\n        /* \"#utility.yul\":9458:9462   */\n      0x24\n        /* \"#utility.yul\":9455:9456   */\n      0x00\n        /* \"#utility.yul\":9448:9463   */\n      revert\n        /* \"#utility.yul\":9474:9601   */\n    tag_266:\n        /* \"#utility.yul\":9535:9545   */\n      0x4e487b71\n        /* \"#utility.yul\":9530:9533   */\n      0xe0\n        /* \"#utility.yul\":9526:9546   */\n      shl\n        /* \"#utility.yul\":9523:9524   */\n      0x00\n        /* \"#utility.yul\":9516:9547   */\n      mstore\n        /* \"#utility.yul\":9566:9570   */\n      0x41\n        /* \"#utility.yul\":9563:9564   */\n      0x04\n        /* \"#utility.yul\":9556:9571   */\n      mstore\n        /* \"#utility.yul\":9590:9594   */\n      0x24\n        /* \"#utility.yul\":9587:9588   */\n      0x00\n        /* \"#utility.yul\":9580:9595   */\n      revert\n    stop\n    data_210f354537685f9e5e046d4cb2f76e07344954c6dc3e59ff15ac4b676d448167 02e472438281ece9fae629c31ebc952b0b512971efb1bacfc7d4441c586cff6c\n    data_b868bdfa8727775661e4ccf117824a175a33f8703d728c04488fbfffcafda9f9 f652222313e28459528d920b65115c16c04f3efc82aaedc97be59f3f377c0d3f\n\n    auxdata: 0xa2646970667358221220fc88401f195f74a5fbfa918d43b6d16a1ebf17718cb111d9f9bb543d32bcfbff64736f6c63430008070033\n}\n",
				"bytecode": {
					"linkReferences": {},
					"object": "6080604052632cb41780600255620186a060035534801561001f57600080fd5b506114508061002f6000396000f3fe608060405234801561001057600080fd5b50600436106100db5760003560e01c80630691615d146100e05780630761c8b9146100ea5780631d3eea35146101065780632599d6d014610119578063686c4cea1461014557806372f0d72b1461015a578063785963c3146101865780637f4b8df0146101995780637f89128f146101a15780638aa7cc0b146101a95780638e4f8c6b146101bc578063948942ad146101cf57806399067ede146101d8578063a678b65b146101f3578063b06cdc1214610206578063c10e391114610232578063fc8372591461023a575b600080fd5b6100e8610260565b005b6100f360025481565b6040519081526020015b60405180910390f35b6100e8610114366004611102565b610371565b6100f3610127366004611102565b6001600160a01b031660009081526020819052604090206004015490565b61014d6103db565b6040516100fd9190611208565b6100f3610168366004611102565b6001600160a01b031660009081526020819052604090206006015490565b6100e8610194366004611160565b610480565b6100e86108dc565b61014d610a69565b6100e86101b73660046111d3565b610b2d565b6100f36101ca366004611124565b610b75565b6100f360035481565b6100f36101e6366004611102565b6001600160a01b03163190565b6100e8610201366004611102565b610ba5565b6100f3610214366004611102565b6001600160a01b031660009081526020819052604090206005015490565b61014d610de7565b61024d610248366004611102565b610efa565b6040516100fd9796959493929190611255565b60023360009081526020819052604090205460ff16600481111561028657610286611398565b146102ac5760405162461bcd60e51b81526004016102a3906112d1565b60405180910390fd5b3360009081526004602052604090205460ff161580156102e1575033600090815260046020526040902054610100900460ff16155b6103245760405162461bcd60e51b8152602060048201526014602482015273506861736520616c72656164792061637469766560601b60448201526064016102a3565b6040805180820182526001808252602080830191825233600090815260049091529290922090518154925161ffff1990931690151561ff0019161761010092151592909202919091179055565b60023360009081526020819052604090205460ff16600481111561039757610397611398565b146103b45760405162461bcd60e51b81526004016102a3906112d1565b6001600160a01b03166000908152600560205260409020600201805460ff60a01b19169055565b606060023360009081526020819052604090205460ff16600481111561040357610403611398565b146104205760405162461bcd60e51b81526004016102a3906112d1565b600680548060200260200160405190810160405280929190818152602001828054801561047657602002820191906000526020600020905b81546001600160a01b03168152600190910190602001808311610458575b5050505050905090565b3360009081526020819052604081205460ff1660048111156104a4576104a4611398565b1415806104d5575060013360009081526020819052604090205460ff1660048111156104d2576104d2611398565b14155b80610504575060023360009081526020819052604090205460ff16600481111561050157610501611398565b14155b80610533575060033360009081526020819052604090205460ff16600481111561053057610530611398565b14155b61059a5760405162461bcd60e51b815260206004820152603260248201527f4170706c69636174696f6e2063616e206f6e6c79206265207375626d697474656044820152716420627920726567756c617220757365727360701b60648201526084016102a3565b73ab8483f64d9c6d1ecf9b849ae677dd3315835cb2600090815260046020526000805160206113db8339815191525460ff16158015610606575073ab8483f64d9c6d1ecf9b849ae677dd3315835cb260005260046020526000805160206113db8339815191525460ff16155b61064c5760405162461bcd60e51b8152602060048201526017602482015276105c1c1b1a58d85d1a5bdb881c1a185cd948195b991959604a1b60448201526064016102a3565b336001600160a01b038316146106c45760405162461bcd60e51b815260206004820152603760248201527f596f752063616e27742073656e6420616e206170706c69636174696f6e20746f60448201527620736f6d656f6e6520656c73652773206164647265737360481b60648201526084016102a3565b60005b60065481101561076957336001600160a01b0316600682815481106106ee576106ee6113ae565b6000918252602090912001546001600160a01b0316141561070e57600191505b81156107575760405162461bcd60e51b8152602060048201526018602482015277105c1c1b1a58d85d1a5bdb88185b1c9958591e481cd95b9d60421b60448201526064016102a3565b806107618161136f565b9150506106c7565b5033600090815260056020526040902060020154600160a01b900460ff16156107e75760405162461bcd60e51b815260206004820152602a60248201527f596f7572206170706c69636174696f6e2068617320616c7265616479206265656044820152691b881c995a9958dd195960b21b60648201526084016102a3565b6040805160a08101825285815260208082018690526001600160a01b0385168284015260016060830181905260808301523360009081526005825292909220815180519293919261083b9284920190610fc1565b5060208281015180516108549260018501920190610fc1565b5060408201516002909101805460608401516080909401511515600160a81b0260ff60a81b19941515600160a01b026001600160a81b03199092166001600160a01b039094169390931717929092161790555050600680546001810182556000919091526000805160206113fb8339815191520180546001600160a01b031916331790555050565b60023360009081526020819052604090205460ff16600481111561090257610902611398565b1461091f5760405162461bcd60e51b81526004016102a3906112d1565b3360009081526004602052604090205460ff161515600114801561095d57503360009081526004602052604090205460ff6101009091041615156001145b6109a95760405162461bcd60e51b815260206004820181905260248201527f506861736520686173206e6f7420796574206265656e2061637469766174656460448201526064016102a3565b6040805180820182526000808252600160208084018281523384526004808352868520955186549251151561010090810261ff0019921515831661ffff1995861617179097558751808901909852848852878401948552734b20993bc481177ec7e8f571cecae8a9e22c02db90955290915293517fb9fe4b740977877e3fa94e7f3dbf51ffcc3fb0449ed024e5d3849f3210d56220805492511515909402901515909216931692909217919091179055633b9aca00600255611388600355565b606060003360009081526020819052604090205460ff166004811115610a9157610a91611398565b14610acf5760405162461bcd60e51b815260206004820152600e60248201526d2cb7bab9103737ba1030b236b4b760911b60448201526064016102a3565b6008805480602002602001604051908101604052809291908181526020018280548015610476576020028201919060005260206000209081546001600160a01b03168152600190910190602001808311610458575050505050905090565b60023360009081526020819052604090205460ff166004811115610b5357610b53611398565b14610b705760405162461bcd60e51b81526004016102a3906112d1565b600255565b600081604051602001610b8891906111ec565b604051602081830303815290604052805190602001209050919050565b60023360009081526020819052604090205460ff166004811115610bcb57610bcb611398565b14610be85760405162461bcd60e51b81526004016102a3906112d1565b6001600160a01b038116600081815260056020818152604080842060028101805460ff60a01b191690556006805460018181019092556000805160206113fb8339815191520180546001600160a01b031990811689179091556007805492830190557fa66cc928b5edb82af9bd49922954155ab7b0942694bea4ce44661d9a8736c688909101805490911687179055815160e0810190925260048252949093529081528254919290830191610c9c90611334565b80601f0160208091040260200160405190810160405280929190818152602001828054610cc890611334565b8015610d155780601f10610cea57610100808354040283529160200191610d15565b820191906000526020600020905b815481529060010190602001808311610cf857829003601f168201915b50505050508152602001610d41604051806040016040528060018152602001600360fc1b815250610b75565b81526000602080830182905260408084018390526060840183905260809093018290526001600160a01b03851682528190522081518154829060ff19166001836004811115610d9257610d92611398565b02179055506020828101518051610daf9260018501920190610fc1565b5060408201516002820155606082015160038201556080820151600482015560a0820151600582015560c09091015160069091015550565b606060003360009081526020819052604090205460ff166004811115610e0f57610e0f611398565b1480610e3e575060023360009081526020819052604090205460ff166004811115610e3c57610e3c611398565b145b610e9c5760405162461bcd60e51b815260206004820152602960248201527f596f7520617265206e6f7420746865206f776e6572206f72207072697661746560448201526810383937bb34b232b960b91b60648201526084016102a3565b6007805480602002602001604051908101604052809291908181526020018280548015610476576020028201919060005260206000209081546001600160a01b03168152600190910190602001808311610458575050505050905090565b6000602081905290815260409020805460018201805460ff9092169291610f2090611334565b80601f0160208091040260200160405190810160405280929190818152602001828054610f4c90611334565b8015610f995780601f10610f6e57610100808354040283529160200191610f99565b820191906000526020600020905b815481529060010190602001808311610f7c57829003601f168201915b5050505050908060020154908060030154908060040154908060050154908060060154905087565b828054610fcd90611334565b90600052602060002090601f016020900481019282610fef5760008555611035565b82601f1061100857805160ff1916838001178555611035565b82800160010185558215611035579182015b8281111561103557825182559160200191906001019061101a565b50611041929150611045565b5090565b5b808211156110415760008155600101611046565b80356001600160a01b038116811461107157600080fd5b919050565b600082601f83011261108757600080fd5b81356001600160401b03808211156110a1576110a16113c4565b604051601f8301601f19908116603f011681019082821181831017156110c9576110c96113c4565b816040528381528660208588010111156110e257600080fd5b836020870160208301376000602085830101528094505050505092915050565b60006020828403121561111457600080fd5b61111d8261105a565b9392505050565b60006020828403121561113657600080fd5b81356001600160401b0381111561114c57600080fd5b61115884828501611076565b949350505050565b60008060006060848603121561117557600080fd5b83356001600160401b038082111561118c57600080fd5b61119887838801611076565b945060208601359150808211156111ae57600080fd5b506111bb86828701611076565b9250506111ca6040850161105a565b90509250925092565b6000602082840312156111e557600080fd5b5035919050565b600082516111fe818460208701611304565b9190910192915050565b6020808252825182820181905260009190848201906040850190845b818110156112495783516001600160a01b031683529284019291840191600101611224565b50909695505050505050565b60006005891061127557634e487b7160e01b600052602160045260246000fd5b88825260e0602083015287518060e084015261010061129a8282860160208d01611304565b6040840198909852606083019690965250608081019390935260a083019190915260c0820152601f909101601f1916010192915050565b6020808252601990820152782cb7bab9103737ba10283934bb30ba3290383937bb34b232b960391b604082015260600190565b60005b8381101561131f578181015183820152602001611307565b8381111561132e576000848401525b50505050565b600181811c9082168061134857607f821691505b6020821081141561136957634e487b7160e01b600052602260045260246000fd5b50919050565b600060001982141561139157634e487b7160e01b600052601160045260246000fd5b5060010190565b634e487b7160e01b600052602160045260246000fd5b634e487b7160e01b600052603260045260246000fd5b634e487b7160e01b600052604160045260246000fdfe02e472438281ece9fae629c31ebc952b0b512971efb1bacfc7d4441c586cff6cf652222313e28459528d920b65115c16c04f3efc82aaedc97be59f3f377c0d3fa2646970667358221220fc88401f195f74a5fbfa918d43b6d16a1ebf17718cb111d9f9bb543d32bcfbff64736f6c63430008070033",
					"opcodes": "PUSH1 0x80 PUSH1 0x40 MSTORE PUSH4 0x2CB41780 PUSH1 0x2 SSTORE PUSH3 0x186A0 PUSH1 0x3 SSTORE CALLVALUE DUP1 ISZERO PUSH2 0x1F JUMPI PUSH1 0x0 DUP1 REVERT JUMPDEST POP PUSH2 0x1450 DUP1 PUSH2 0x2F PUSH1 0x0 CODECOPY PUSH1 0x0 RETURN INVALID PUSH1 0x80 PUSH1 0x40 MSTORE CALLVALUE DUP1 ISZERO PUSH2 0x10 JUMPI PUSH1 0x0 DUP1 REVERT JUMPDEST POP PUSH1 0x4 CALLDATASIZE LT PUSH2 0xDB JUMPI PUSH1 0x0 CALLDATALOAD PUSH1 0xE0 SHR DUP1 PUSH4 0x691615D EQ PUSH2 0xE0 JUMPI DUP1 PUSH4 0x761C8B9 EQ PUSH2 0xEA JUMPI DUP1 PUSH4 0x1D3EEA35 EQ PUSH2 0x106 JUMPI DUP1 PUSH4 0x2599D6D0 EQ PUSH2 0x119 JUMPI DUP1 PUSH4 0x686C4CEA EQ PUSH2 0x145 JUMPI DUP1 PUSH4 0x72F0D72B EQ PUSH2 0x15A JUMPI DUP1 PUSH4 0x785963C3 EQ PUSH2 0x186 JUMPI DUP1 PUSH4 0x7F4B8DF0 EQ PUSH2 0x199 JUMPI DUP1 PUSH4 0x7F89128F EQ PUSH2 0x1A1 JUMPI DUP1 PUSH4 0x8AA7CC0B EQ PUSH2 0x1A9 JUMPI DUP1 PUSH4 0x8E4F8C6B EQ PUSH2 0x1BC JUMPI DUP1 PUSH4 0x948942AD EQ PUSH2 0x1CF JUMPI DUP1 PUSH4 0x99067EDE EQ PUSH2 0x1D8 JUMPI DUP1 PUSH4 0xA678B65B EQ PUSH2 0x1F3 JUMPI DUP1 PUSH4 0xB06CDC12 EQ PUSH2 0x206 JUMPI DUP1 PUSH4 0xC10E3911 EQ PUSH2 0x232 JUMPI DUP1 PUSH4 0xFC837259 EQ PUSH2 0x23A JUMPI JUMPDEST PUSH1 0x0 DUP1 REVERT JUMPDEST PUSH2 0xE8 PUSH2 0x260 JUMP JUMPDEST STOP JUMPDEST PUSH2 0xF3 PUSH1 0x2 SLOAD DUP2 JUMP JUMPDEST PUSH1 0x40 MLOAD SWAP1 DUP2 MSTORE PUSH1 0x20 ADD JUMPDEST PUSH1 0x40 MLOAD DUP1 SWAP2 SUB SWAP1 RETURN JUMPDEST PUSH2 0xE8 PUSH2 0x114 CALLDATASIZE PUSH1 0x4 PUSH2 0x1102 JUMP JUMPDEST PUSH2 0x371 JUMP JUMPDEST PUSH2 0xF3 PUSH2 0x127 CALLDATASIZE PUSH1 0x4 PUSH2 0x1102 JUMP JUMPDEST PUSH1 0x1 PUSH1 0x1 PUSH1 0xA0 SHL SUB AND PUSH1 0x0 SWAP1 DUP2 MSTORE PUSH1 0x20 DUP2 SWAP1 MSTORE PUSH1 0x40 SWAP1 KECCAK256 PUSH1 0x4 ADD SLOAD SWAP1 JUMP JUMPDEST PUSH2 0x14D PUSH2 0x3DB JUMP JUMPDEST PUSH1 0x40 MLOAD PUSH2 0xFD SWAP2 SWAP1 PUSH2 0x1208 JUMP JUMPDEST PUSH2 0xF3 PUSH2 0x168 CALLDATASIZE PUSH1 0x4 PUSH2 0x1102 JUMP JUMPDEST PUSH1 0x1 PUSH1 0x1 PUSH1 0xA0 SHL SUB AND PUSH1 0x0 SWAP1 DUP2 MSTORE PUSH1 0x20 DUP2 SWAP1 MSTORE PUSH1 0x40 SWAP1 KECCAK256 PUSH1 0x6 ADD SLOAD SWAP1 JUMP JUMPDEST PUSH2 0xE8 PUSH2 0x194 CALLDATASIZE PUSH1 0x4 PUSH2 0x1160 JUMP JUMPDEST PUSH2 0x480 JUMP JUMPDEST PUSH2 0xE8 PUSH2 0x8DC JUMP JUMPDEST PUSH2 0x14D PUSH2 0xA69 JUMP JUMPDEST PUSH2 0xE8 PUSH2 0x1B7 CALLDATASIZE PUSH1 0x4 PUSH2 0x11D3 JUMP JUMPDEST PUSH2 0xB2D JUMP JUMPDEST PUSH2 0xF3 PUSH2 0x1CA CALLDATASIZE PUSH1 0x4 PUSH2 0x1124 JUMP JUMPDEST PUSH2 0xB75 JUMP JUMPDEST PUSH2 0xF3 PUSH1 0x3 SLOAD DUP2 JUMP JUMPDEST PUSH2 0xF3 PUSH2 0x1E6 CALLDATASIZE PUSH1 0x4 PUSH2 0x1102 JUMP JUMPDEST PUSH1 0x1 PUSH1 0x1 PUSH1 0xA0 SHL SUB AND BALANCE SWAP1 JUMP JUMPDEST PUSH2 0xE8 PUSH2 0x201 CALLDATASIZE PUSH1 0x4 PUSH2 0x1102 JUMP JUMPDEST PUSH2 0xBA5 JUMP JUMPDEST PUSH2 0xF3 PUSH2 0x214 CALLDATASIZE PUSH1 0x4 PUSH2 0x1102 JUMP JUMPDEST PUSH1 0x1 PUSH1 0x1 PUSH1 0xA0 SHL SUB AND PUSH1 0x0 SWAP1 DUP2 MSTORE PUSH1 0x20 DUP2 SWAP1 MSTORE PUSH1 0x40 SWAP1 KECCAK256 PUSH1 0x5 ADD SLOAD SWAP1 JUMP JUMPDEST PUSH2 0x14D PUSH2 0xDE7 JUMP JUMPDEST PUSH2 0x24D PUSH2 0x248 CALLDATASIZE PUSH1 0x4 PUSH2 0x1102 JUMP JUMPDEST PUSH2 0xEFA JUMP JUMPDEST PUSH1 0x40 MLOAD PUSH2 0xFD SWAP8 SWAP7 SWAP6 SWAP5 SWAP4 SWAP3 SWAP2 SWAP1 PUSH2 0x1255 JUMP JUMPDEST PUSH1 0x2 CALLER PUSH1 0x0 SWAP1 DUP2 MSTORE PUSH1 0x20 DUP2 SWAP1 MSTORE PUSH1 0x40 SWAP1 KECCAK256 SLOAD PUSH1 0xFF AND PUSH1 0x4 DUP2 GT ISZERO PUSH2 0x286 JUMPI PUSH2 0x286 PUSH2 0x1398 JUMP JUMPDEST EQ PUSH2 0x2AC JUMPI PUSH1 0x40 MLOAD PUSH3 0x461BCD PUSH1 0xE5 SHL DUP2 MSTORE PUSH1 0x4 ADD PUSH2 0x2A3 SWAP1 PUSH2 0x12D1 JUMP JUMPDEST PUSH1 0x40 MLOAD DUP1 SWAP2 SUB SWAP1 REVERT JUMPDEST CALLER PUSH1 0x0 SWAP1 DUP2 MSTORE PUSH1 0x4 PUSH1 0x20 MSTORE PUSH1 0x40 SWAP1 KECCAK256 SLOAD PUSH1 0xFF AND ISZERO DUP1 ISZERO PUSH2 0x2E1 JUMPI POP CALLER PUSH1 0x0 SWAP1 DUP2 MSTORE PUSH1 0x4 PUSH1 0x20 MSTORE PUSH1 0x40 SWAP1 KECCAK256 SLOAD PUSH2 0x100 SWAP1 DIV PUSH1 0xFF AND ISZERO JUMPDEST PUSH2 0x324 JUMPI PUSH1 0x40 MLOAD PUSH3 0x461BCD PUSH1 0xE5 SHL DUP2 MSTORE PUSH1 0x20 PUSH1 0x4 DUP3 ADD MSTORE PUSH1 0x14 PUSH1 0x24 DUP3 ADD MSTORE PUSH20 0x506861736520616C726561647920616374697665 PUSH1 0x60 SHL PUSH1 0x44 DUP3 ADD MSTORE PUSH1 0x64 ADD PUSH2 0x2A3 JUMP JUMPDEST PUSH1 0x40 DUP1 MLOAD DUP1 DUP3 ADD DUP3 MSTORE PUSH1 0x1 DUP1 DUP3 MSTORE PUSH1 0x20 DUP1 DUP4 ADD SWAP2 DUP3 MSTORE CALLER PUSH1 0x0 SWAP1 DUP2 MSTORE PUSH1 0x4 SWAP1 SWAP2 MSTORE SWAP3 SWAP1 SWAP3 KECCAK256 SWAP1 MLOAD DUP2 SLOAD SWAP3 MLOAD PUSH2 0xFFFF NOT SWAP1 SWAP4 AND SWAP1 ISZERO ISZERO PUSH2 0xFF00 NOT AND OR PUSH2 0x100 SWAP3 ISZERO ISZERO SWAP3 SWAP1 SWAP3 MUL SWAP2 SWAP1 SWAP2 OR SWAP1 SSTORE JUMP JUMPDEST PUSH1 0x2 CALLER PUSH1 0x0 SWAP1 DUP2 MSTORE PUSH1 0x20 DUP2 SWAP1 MSTORE PUSH1 0x40 SWAP1 KECCAK256 SLOAD PUSH1 0xFF AND PUSH1 0x4 DUP2 GT ISZERO PUSH2 0x397 JUMPI PUSH2 0x397 PUSH2 0x1398 JUMP JUMPDEST EQ PUSH2 0x3B4 JUMPI PUSH1 0x40 MLOAD PUSH3 0x461BCD PUSH1 0xE5 SHL DUP2 MSTORE PUSH1 0x4 ADD PUSH2 0x2A3 SWAP1 PUSH2 0x12D1 JUMP JUMPDEST PUSH1 0x1 PUSH1 0x1 PUSH1 0xA0 SHL SUB AND PUSH1 0x0 SWAP1 DUP2 MSTORE PUSH1 0x5 PUSH1 0x20 MSTORE PUSH1 0x40 SWAP1 KECCAK256 PUSH1 0x2 ADD DUP1 SLOAD PUSH1 0xFF PUSH1 0xA0 SHL NOT AND SWAP1 SSTORE JUMP JUMPDEST PUSH1 0x60 PUSH1 0x2 CALLER PUSH1 0x0 SWAP1 DUP2 MSTORE PUSH1 0x20 DUP2 SWAP1 MSTORE PUSH1 0x40 SWAP1 KECCAK256 SLOAD PUSH1 0xFF AND PUSH1 0x4 DUP2 GT ISZERO PUSH2 0x403 JUMPI PUSH2 0x403 PUSH2 0x1398 JUMP JUMPDEST EQ PUSH2 0x420 JUMPI PUSH1 0x40 MLOAD PUSH3 0x461BCD PUSH1 0xE5 SHL DUP2 MSTORE PUSH1 0x4 ADD PUSH2 0x2A3 SWAP1 PUSH2 0x12D1 JUMP JUMPDEST PUSH1 0x6 DUP1 SLOAD DUP1 PUSH1 0x20 MUL PUSH1 0x20 ADD PUSH1 0x40 MLOAD SWAP1 DUP2 ADD PUSH1 0x40 MSTORE DUP1 SWAP3 SWAP2 SWAP1 DUP2 DUP2 MSTORE PUSH1 0x20 ADD DUP3 DUP1 SLOAD DUP1 ISZERO PUSH2 0x476 JUMPI PUSH1 0x20 MUL DUP3 ADD SWAP2 SWAP1 PUSH1 0x0 MSTORE PUSH1 0x20 PUSH1 0x0 KECCAK256 SWAP1 JUMPDEST DUP2 SLOAD PUSH1 0x1 PUSH1 0x1 PUSH1 0xA0 SHL SUB AND DUP2 MSTORE PUSH1 0x1 SWAP1 SWAP2 ADD SWAP1 PUSH1 0x20 ADD DUP1 DUP4 GT PUSH2 0x458 JUMPI JUMPDEST POP POP POP POP POP SWAP1 POP SWAP1 JUMP JUMPDEST CALLER PUSH1 0x0 SWAP1 DUP2 MSTORE PUSH1 0x20 DUP2 SWAP1 MSTORE PUSH1 0x40 DUP2 KECCAK256 SLOAD PUSH1 0xFF AND PUSH1 0x4 DUP2 GT ISZERO PUSH2 0x4A4 JUMPI PUSH2 0x4A4 PUSH2 0x1398 JUMP JUMPDEST EQ ISZERO DUP1 PUSH2 0x4D5 JUMPI POP PUSH1 0x1 CALLER PUSH1 0x0 SWAP1 DUP2 MSTORE PUSH1 0x20 DUP2 SWAP1 MSTORE PUSH1 0x40 SWAP1 KECCAK256 SLOAD PUSH1 0xFF AND PUSH1 0x4 DUP2 GT ISZERO PUSH2 0x4D2 JUMPI PUSH2 0x4D2 PUSH2 0x1398 JUMP JUMPDEST EQ ISZERO JUMPDEST DUP1 PUSH2 0x504 JUMPI POP PUSH1 0x2 CALLER PUSH1 0x0 SWAP1 DUP2 MSTORE PUSH1 0x20 DUP2 SWAP1 MSTORE PUSH1 0x40 SWAP1 KECCAK256 SLOAD PUSH1 0xFF AND PUSH1 0x4 DUP2 GT ISZERO PUSH2 0x501 JUMPI PUSH2 0x501 PUSH2 0x1398 JUMP JUMPDEST EQ ISZERO JUMPDEST DUP1 PUSH2 0x533 JUMPI POP PUSH1 0x3 CALLER PUSH1 0x0 SWAP1 DUP2 MSTORE PUSH1 0x20 DUP2 SWAP1 MSTORE PUSH1 0x40 SWAP1 KECCAK256 SLOAD PUSH1 0xFF AND PUSH1 0x4 DUP2 GT ISZERO PUSH2 0x530 JUMPI PUSH2 0x530 PUSH2 0x1398 JUMP JUMPDEST EQ ISZERO JUMPDEST PUSH2 0x59A JUMPI PUSH1 0x40 MLOAD PUSH3 0x461BCD PUSH1 0xE5 SHL DUP2 MSTORE PUSH1 0x20 PUSH1 0x4 DUP3 ADD MSTORE PUSH1 0x32 PUSH1 0x24 DUP3 ADD MSTORE PUSH32 0x4170706C69636174696F6E2063616E206F6E6C79206265207375626D69747465 PUSH1 0x44 DUP3 ADD MSTORE PUSH18 0x6420627920726567756C6172207573657273 PUSH1 0x70 SHL PUSH1 0x64 DUP3 ADD MSTORE PUSH1 0x84 ADD PUSH2 0x2A3 JUMP JUMPDEST PUSH20 0xAB8483F64D9C6D1ECF9B849AE677DD3315835CB2 PUSH1 0x0 SWAP1 DUP2 MSTORE PUSH1 0x4 PUSH1 0x20 MSTORE PUSH1 0x0 DUP1 MLOAD PUSH1 0x20 PUSH2 0x13DB DUP4 CODECOPY DUP2 MLOAD SWAP2 MSTORE SLOAD PUSH1 0xFF AND ISZERO DUP1 ISZERO PUSH2 0x606 JUMPI POP PUSH20 0xAB8483F64D9C6D1ECF9B849AE677DD3315835CB2 PUSH1 0x0 MSTORE PUSH1 0x4 PUSH1 0x20 MSTORE PUSH1 0x0 DUP1 MLOAD PUSH1 0x20 PUSH2 0x13DB DUP4 CODECOPY DUP2 MLOAD SWAP2 MSTORE SLOAD PUSH1 0xFF AND ISZERO JUMPDEST PUSH2 0x64C JUMPI PUSH1 0x40 MLOAD PUSH3 0x461BCD PUSH1 0xE5 SHL DUP2 MSTORE PUSH1 0x20 PUSH1 0x4 DUP3 ADD MSTORE PUSH1 0x17 PUSH1 0x24 DUP3 ADD MSTORE PUSH23 0x105C1C1B1A58D85D1A5BDB881C1A185CD948195B991959 PUSH1 0x4A SHL PUSH1 0x44 DUP3 ADD MSTORE PUSH1 0x64 ADD PUSH2 0x2A3 JUMP JUMPDEST CALLER PUSH1 0x1 PUSH1 0x1 PUSH1 0xA0 SHL SUB DUP4 AND EQ PUSH2 0x6C4 JUMPI PUSH1 0x40 MLOAD PUSH3 0x461BCD PUSH1 0xE5 SHL DUP2 MSTORE PUSH1 0x20 PUSH1 0x4 DUP3 ADD MSTORE PUSH1 0x37 PUSH1 0x24 DUP3 ADD MSTORE PUSH32 0x596F752063616E27742073656E6420616E206170706C69636174696F6E20746F PUSH1 0x44 DUP3 ADD MSTORE PUSH23 0x20736F6D656F6E6520656C736527732061646472657373 PUSH1 0x48 SHL PUSH1 0x64 DUP3 ADD MSTORE PUSH1 0x84 ADD PUSH2 0x2A3 JUMP JUMPDEST PUSH1 0x0 JUMPDEST PUSH1 0x6 SLOAD DUP2 LT ISZERO PUSH2 0x769 JUMPI CALLER PUSH1 0x1 PUSH1 0x1 PUSH1 0xA0 SHL SUB AND PUSH1 0x6 DUP3 DUP2 SLOAD DUP2 LT PUSH2 0x6EE JUMPI PUSH2 0x6EE PUSH2 0x13AE JUMP JUMPDEST PUSH1 0x0 SWAP2 DUP3 MSTORE PUSH1 0x20 SWAP1 SWAP2 KECCAK256 ADD SLOAD PUSH1 0x1 PUSH1 0x1 PUSH1 0xA0 SHL SUB AND EQ ISZERO PUSH2 0x70E JUMPI PUSH1 0x1 SWAP2 POP JUMPDEST DUP2 ISZERO PUSH2 0x757 JUMPI PUSH1 0x40 MLOAD PUSH3 0x461BCD PUSH1 0xE5 SHL DUP2 MSTORE PUSH1 0x20 PUSH1 0x4 DUP3 ADD MSTORE PUSH1 0x18 PUSH1 0x24 DUP3 ADD MSTORE PUSH24 0x105C1C1B1A58D85D1A5BDB88185B1C9958591E481CD95B9D PUSH1 0x42 SHL PUSH1 0x44 DUP3 ADD MSTORE PUSH1 0x64 ADD PUSH2 0x2A3 JUMP JUMPDEST DUP1 PUSH2 0x761 DUP2 PUSH2 0x136F JUMP JUMPDEST SWAP2 POP POP PUSH2 0x6C7 JUMP JUMPDEST POP CALLER PUSH1 0x0 SWAP1 DUP2 MSTORE PUSH1 0x5 PUSH1 0x20 MSTORE PUSH1 0x40 SWAP1 KECCAK256 PUSH1 0x2 ADD SLOAD PUSH1 0x1 PUSH1 0xA0 SHL SWAP1 DIV PUSH1 0xFF AND ISZERO PUSH2 0x7E7 JUMPI PUSH1 0x40 MLOAD PUSH3 0x461BCD PUSH1 0xE5 SHL DUP2 MSTORE PUSH1 0x20 PUSH1 0x4 DUP3 ADD MSTORE PUSH1 0x2A PUSH1 0x24 DUP3 ADD MSTORE PUSH32 0x596F7572206170706C69636174696F6E2068617320616C726561647920626565 PUSH1 0x44 DUP3 ADD MSTORE PUSH10 0x1B881C995A9958DD1959 PUSH1 0xB2 SHL PUSH1 0x64 DUP3 ADD MSTORE PUSH1 0x84 ADD PUSH2 0x2A3 JUMP JUMPDEST PUSH1 0x40 DUP1 MLOAD PUSH1 0xA0 DUP2 ADD DUP3 MSTORE DUP6 DUP2 MSTORE PUSH1 0x20 DUP1 DUP3 ADD DUP7 SWAP1 MSTORE PUSH1 0x1 PUSH1 0x1 PUSH1 0xA0 SHL SUB DUP6 AND DUP3 DUP5 ADD MSTORE PUSH1 0x1 PUSH1 0x60 DUP4 ADD DUP2 SWAP1 MSTORE PUSH1 0x80 DUP4 ADD MSTORE CALLER PUSH1 0x0 SWAP1 DUP2 MSTORE PUSH1 0x5 DUP3 MSTORE SWAP3 SWAP1 SWAP3 KECCAK256 DUP2 MLOAD DUP1 MLOAD SWAP3 SWAP4 SWAP2 SWAP3 PUSH2 0x83B SWAP3 DUP5 SWAP3 ADD SWAP1 PUSH2 0xFC1 JUMP JUMPDEST POP PUSH1 0x20 DUP3 DUP2 ADD MLOAD DUP1 MLOAD PUSH2 0x854 SWAP3 PUSH1 0x1 DUP6 ADD SWAP3 ADD SWAP1 PUSH2 0xFC1 JUMP JUMPDEST POP PUSH1 0x40 DUP3 ADD MLOAD PUSH1 0x2 SWAP1 SWAP2 ADD DUP1 SLOAD PUSH1 0x60 DUP5 ADD MLOAD PUSH1 0x80 SWAP1 SWAP5 ADD MLOAD ISZERO ISZERO PUSH1 0x1 PUSH1 0xA8 SHL MUL PUSH1 0xFF PUSH1 0xA8 SHL NOT SWAP5 ISZERO ISZERO PUSH1 0x1 PUSH1 0xA0 SHL MUL PUSH1 0x1 PUSH1 0x1 PUSH1 0xA8 SHL SUB NOT SWAP1 SWAP3 AND PUSH1 0x1 PUSH1 0x1 PUSH1 0xA0 SHL SUB SWAP1 SWAP5 AND SWAP4 SWAP1 SWAP4 OR OR SWAP3 SWAP1 SWAP3 AND OR SWAP1 SSTORE POP POP PUSH1 0x6 DUP1 SLOAD PUSH1 0x1 DUP2 ADD DUP3 SSTORE PUSH1 0x0 SWAP2 SWAP1 SWAP2 MSTORE PUSH1 0x0 DUP1 MLOAD PUSH1 0x20 PUSH2 0x13FB DUP4 CODECOPY DUP2 MLOAD SWAP2 MSTORE ADD DUP1 SLOAD PUSH1 0x1 PUSH1 0x1 PUSH1 0xA0 SHL SUB NOT AND CALLER OR SWAP1 SSTORE POP POP JUMP JUMPDEST PUSH1 0x2 CALLER PUSH1 0x0 SWAP1 DUP2 MSTORE PUSH1 0x20 DUP2 SWAP1 MSTORE PUSH1 0x40 SWAP1 KECCAK256 SLOAD PUSH1 0xFF AND PUSH1 0x4 DUP2 GT ISZERO PUSH2 0x902 JUMPI PUSH2 0x902 PUSH2 0x1398 JUMP JUMPDEST EQ PUSH2 0x91F JUMPI PUSH1 0x40 MLOAD PUSH3 0x461BCD PUSH1 0xE5 SHL DUP2 MSTORE PUSH1 0x4 ADD PUSH2 0x2A3 SWAP1 PUSH2 0x12D1 JUMP JUMPDEST CALLER PUSH1 0x0 SWAP1 DUP2 MSTORE PUSH1 0x4 PUSH1 0x20 MSTORE PUSH1 0x40 SWAP1 KECCAK256 SLOAD PUSH1 0xFF AND ISZERO ISZERO PUSH1 0x1 EQ DUP1 ISZERO PUSH2 0x95D JUMPI POP CALLER PUSH1 0x0 SWAP1 DUP2 MSTORE PUSH1 0x4 PUSH1 0x20 MSTORE PUSH1 0x40 SWAP1 KECCAK256 SLOAD PUSH1 0xFF PUSH2 0x100 SWAP1 SWAP2 DIV AND ISZERO ISZERO PUSH1 0x1 EQ JUMPDEST PUSH2 0x9A9 JUMPI PUSH1 0x40 MLOAD PUSH3 0x461BCD PUSH1 0xE5 SHL DUP2 MSTORE PUSH1 0x20 PUSH1 0x4 DUP3 ADD DUP2 SWAP1 MSTORE PUSH1 0x24 DUP3 ADD MSTORE PUSH32 0x506861736520686173206E6F7420796574206265656E20616374697661746564 PUSH1 0x44 DUP3 ADD MSTORE PUSH1 0x64 ADD PUSH2 0x2A3 JUMP JUMPDEST PUSH1 0x40 DUP1 MLOAD DUP1 DUP3 ADD DUP3 MSTORE PUSH1 0x0 DUP1 DUP3 MSTORE PUSH1 0x1 PUSH1 0x20 DUP1 DUP5 ADD DUP3 DUP2 MSTORE CALLER DUP5 MSTORE PUSH1 0x4 DUP1 DUP4 MSTORE DUP7 DUP6 KECCAK256 SWAP6 MLOAD DUP7 SLOAD SWAP3 MLOAD ISZERO ISZERO PUSH2 0x100 SWAP1 DUP2 MUL PUSH2 0xFF00 NOT SWAP3 ISZERO ISZERO DUP4 AND PUSH2 0xFFFF NOT SWAP6 DUP7 AND OR OR SWAP1 SWAP8 SSTORE DUP8 MLOAD DUP1 DUP10 ADD SWAP1 SWAP9 MSTORE DUP5 DUP9 MSTORE DUP8 DUP5 ADD SWAP5 DUP6 MSTORE PUSH20 0x4B20993BC481177EC7E8F571CECAE8A9E22C02DB SWAP1 SWAP6 MSTORE SWAP1 SWAP2 MSTORE SWAP4 MLOAD PUSH32 0xB9FE4B740977877E3FA94E7F3DBF51FFCC3FB0449ED024E5D3849F3210D56220 DUP1 SLOAD SWAP3 MLOAD ISZERO ISZERO SWAP1 SWAP5 MUL SWAP1 ISZERO ISZERO SWAP1 SWAP3 AND SWAP4 AND SWAP3 SWAP1 SWAP3 OR SWAP2 SWAP1 SWAP2 OR SWAP1 SSTORE PUSH4 0x3B9ACA00 PUSH1 0x2 SSTORE PUSH2 0x1388 PUSH1 0x3 SSTORE JUMP JUMPDEST PUSH1 0x60 PUSH1 0x0 CALLER PUSH1 0x0 SWAP1 DUP2 MSTORE PUSH1 0x20 DUP2 SWAP1 MSTORE PUSH1 0x40 SWAP1 KECCAK256 SLOAD PUSH1 0xFF AND PUSH1 0x4 DUP2 GT ISZERO PUSH2 0xA91 JUMPI PUSH2 0xA91 PUSH2 0x1398 JUMP JUMPDEST EQ PUSH2 0xACF JUMPI PUSH1 0x40 MLOAD PUSH3 0x461BCD PUSH1 0xE5 SHL DUP2 MSTORE PUSH1 0x20 PUSH1 0x4 DUP3 ADD MSTORE PUSH1 0xE PUSH1 0x24 DUP3 ADD MSTORE PUSH14 0x2CB7BAB9103737BA1030B236B4B7 PUSH1 0x91 SHL PUSH1 0x44 DUP3 ADD MSTORE PUSH1 0x64 ADD PUSH2 0x2A3 JUMP JUMPDEST PUSH1 0x8 DUP1 SLOAD DUP1 PUSH1 0x20 MUL PUSH1 0x20 ADD PUSH1 0x40 MLOAD SWAP1 DUP2 ADD PUSH1 0x40 MSTORE DUP1 SWAP3 SWAP2 SWAP1 DUP2 DUP2 MSTORE PUSH1 0x20 ADD DUP3 DUP1 SLOAD DUP1 ISZERO PUSH2 0x476 JUMPI PUSH1 0x20 MUL DUP3 ADD SWAP2 SWAP1 PUSH1 0x0 MSTORE PUSH1 0x20 PUSH1 0x0 KECCAK256 SWAP1 DUP2 SLOAD PUSH1 0x1 PUSH1 0x1 PUSH1 0xA0 SHL SUB AND DUP2 MSTORE PUSH1 0x1 SWAP1 SWAP2 ADD SWAP1 PUSH1 0x20 ADD DUP1 DUP4 GT PUSH2 0x458 JUMPI POP POP POP POP POP SWAP1 POP SWAP1 JUMP JUMPDEST PUSH1 0x2 CALLER PUSH1 0x0 SWAP1 DUP2 MSTORE PUSH1 0x20 DUP2 SWAP1 MSTORE PUSH1 0x40 SWAP1 KECCAK256 SLOAD PUSH1 0xFF AND PUSH1 0x4 DUP2 GT ISZERO PUSH2 0xB53 JUMPI PUSH2 0xB53 PUSH2 0x1398 JUMP JUMPDEST EQ PUSH2 0xB70 JUMPI PUSH1 0x40 MLOAD PUSH3 0x461BCD PUSH1 0xE5 SHL DUP2 MSTORE PUSH1 0x4 ADD PUSH2 0x2A3 SWAP1 PUSH2 0x12D1 JUMP JUMPDEST PUSH1 0x2 SSTORE JUMP JUMPDEST PUSH1 0x0 DUP2 PUSH1 0x40 MLOAD PUSH1 0x20 ADD PUSH2 0xB88 SWAP2 SWAP1 PUSH2 0x11EC JUMP JUMPDEST PUSH1 0x40 MLOAD PUSH1 0x20 DUP2 DUP4 SUB SUB DUP2 MSTORE SWAP1 PUSH1 0x40 MSTORE DUP1 MLOAD SWAP1 PUSH1 0x20 ADD KECCAK256 SWAP1 POP SWAP2 SWAP1 POP JUMP JUMPDEST PUSH1 0x2 CALLER PUSH1 0x0 SWAP1 DUP2 MSTORE PUSH1 0x20 DUP2 SWAP1 MSTORE PUSH1 0x40 SWAP1 KECCAK256 SLOAD PUSH1 0xFF AND PUSH1 0x4 DUP2 GT ISZERO PUSH2 0xBCB JUMPI PUSH2 0xBCB PUSH2 0x1398 JUMP JUMPDEST EQ PUSH2 0xBE8 JUMPI PUSH1 0x40 MLOAD PUSH3 0x461BCD PUSH1 0xE5 SHL DUP2 MSTORE PUSH1 0x4 ADD PUSH2 0x2A3 SWAP1 PUSH2 0x12D1 JUMP JUMPDEST PUSH1 0x1 PUSH1 0x1 PUSH1 0xA0 SHL SUB DUP2 AND PUSH1 0x0 DUP2 DUP2 MSTORE PUSH1 0x5 PUSH1 0x20 DUP2 DUP2 MSTORE PUSH1 0x40 DUP1 DUP5 KECCAK256 PUSH1 0x2 DUP2 ADD DUP1 SLOAD PUSH1 0xFF PUSH1 0xA0 SHL NOT AND SWAP1 SSTORE PUSH1 0x6 DUP1 SLOAD PUSH1 0x1 DUP2 DUP2 ADD SWAP1 SWAP3 SSTORE PUSH1 0x0 DUP1 MLOAD PUSH1 0x20 PUSH2 0x13FB DUP4 CODECOPY DUP2 MLOAD SWAP2 MSTORE ADD DUP1 SLOAD PUSH1 0x1 PUSH1 0x1 PUSH1 0xA0 SHL SUB NOT SWAP1 DUP2 AND DUP10 OR SWAP1 SWAP2 SSTORE PUSH1 0x7 DUP1 SLOAD SWAP3 DUP4 ADD SWAP1 SSTORE PUSH32 0xA66CC928B5EDB82AF9BD49922954155AB7B0942694BEA4CE44661D9A8736C688 SWAP1 SWAP2 ADD DUP1 SLOAD SWAP1 SWAP2 AND DUP8 OR SWAP1 SSTORE DUP2 MLOAD PUSH1 0xE0 DUP2 ADD SWAP1 SWAP3 MSTORE PUSH1 0x4 DUP3 MSTORE SWAP5 SWAP1 SWAP4 MSTORE SWAP1 DUP2 MSTORE DUP3 SLOAD SWAP2 SWAP3 SWAP1 DUP4 ADD SWAP2 PUSH2 0xC9C SWAP1 PUSH2 0x1334 JUMP JUMPDEST DUP1 PUSH1 0x1F ADD PUSH1 0x20 DUP1 SWAP2 DIV MUL PUSH1 0x20 ADD PUSH1 0x40 MLOAD SWAP1 DUP2 ADD PUSH1 0x40 MSTORE DUP1 SWAP3 SWAP2 SWAP1 DUP2 DUP2 MSTORE PUSH1 0x20 ADD DUP3 DUP1 SLOAD PUSH2 0xCC8 SWAP1 PUSH2 0x1334 JUMP JUMPDEST DUP1 ISZERO PUSH2 0xD15 JUMPI DUP1 PUSH1 0x1F LT PUSH2 0xCEA JUMPI PUSH2 0x100 DUP1 DUP4 SLOAD DIV MUL DUP4 MSTORE SWAP2 PUSH1 0x20 ADD SWAP2 PUSH2 0xD15 JUMP JUMPDEST DUP3 ADD SWAP2 SWAP1 PUSH1 0x0 MSTORE PUSH1 0x20 PUSH1 0x0 KECCAK256 SWAP1 JUMPDEST DUP2 SLOAD DUP2 MSTORE SWAP1 PUSH1 0x1 ADD SWAP1 PUSH1 0x20 ADD DUP1 DUP4 GT PUSH2 0xCF8 JUMPI DUP3 SWAP1 SUB PUSH1 0x1F AND DUP3 ADD SWAP2 JUMPDEST POP POP POP POP POP DUP2 MSTORE PUSH1 0x20 ADD PUSH2 0xD41 PUSH1 0x40 MLOAD DUP1 PUSH1 0x40 ADD PUSH1 0x40 MSTORE DUP1 PUSH1 0x1 DUP2 MSTORE PUSH1 0x20 ADD PUSH1 0x3 PUSH1 0xFC SHL DUP2 MSTORE POP PUSH2 0xB75 JUMP JUMPDEST DUP2 MSTORE PUSH1 0x0 PUSH1 0x20 DUP1 DUP4 ADD DUP3 SWAP1 MSTORE PUSH1 0x40 DUP1 DUP5 ADD DUP4 SWAP1 MSTORE PUSH1 0x60 DUP5 ADD DUP4 SWAP1 MSTORE PUSH1 0x80 SWAP1 SWAP4 ADD DUP3 SWAP1 MSTORE PUSH1 0x1 PUSH1 0x1 PUSH1 0xA0 SHL SUB DUP6 AND DUP3 MSTORE DUP2 SWAP1 MSTORE KECCAK256 DUP2 MLOAD DUP2 SLOAD DUP3 SWAP1 PUSH1 0xFF NOT AND PUSH1 0x1 DUP4 PUSH1 0x4 DUP2 GT ISZERO PUSH2 0xD92 JUMPI PUSH2 0xD92 PUSH2 0x1398 JUMP JUMPDEST MUL OR SWAP1 SSTORE POP PUSH1 0x20 DUP3 DUP2 ADD MLOAD DUP1 MLOAD PUSH2 0xDAF SWAP3 PUSH1 0x1 DUP6 ADD SWAP3 ADD SWAP1 PUSH2 0xFC1 JUMP JUMPDEST POP PUSH1 0x40 DUP3 ADD MLOAD PUSH1 0x2 DUP3 ADD SSTORE PUSH1 0x60 DUP3 ADD MLOAD PUSH1 0x3 DUP3 ADD SSTORE PUSH1 0x80 DUP3 ADD MLOAD PUSH1 0x4 DUP3 ADD SSTORE PUSH1 0xA0 DUP3 ADD MLOAD PUSH1 0x5 DUP3 ADD SSTORE PUSH1 0xC0 SWAP1 SWAP2 ADD MLOAD PUSH1 0x6 SWAP1 SWAP2 ADD SSTORE POP JUMP JUMPDEST PUSH1 0x60 PUSH1 0x0 CALLER PUSH1 0x0 SWAP1 DUP2 MSTORE PUSH1 0x20 DUP2 SWAP1 MSTORE PUSH1 0x40 SWAP1 KECCAK256 SLOAD PUSH1 0xFF AND PUSH1 0x4 DUP2 GT ISZERO PUSH2 0xE0F JUMPI PUSH2 0xE0F PUSH2 0x1398 JUMP JUMPDEST EQ DUP1 PUSH2 0xE3E JUMPI POP PUSH1 0x2 CALLER PUSH1 0x0 SWAP1 DUP2 MSTORE PUSH1 0x20 DUP2 SWAP1 MSTORE PUSH1 0x40 SWAP1 KECCAK256 SLOAD PUSH1 0xFF AND PUSH1 0x4 DUP2 GT ISZERO PUSH2 0xE3C JUMPI PUSH2 0xE3C PUSH2 0x1398 JUMP JUMPDEST EQ JUMPDEST PUSH2 0xE9C JUMPI PUSH1 0x40 MLOAD PUSH3 0x461BCD PUSH1 0xE5 SHL DUP2 MSTORE PUSH1 0x20 PUSH1 0x4 DUP3 ADD MSTORE PUSH1 0x29 PUSH1 0x24 DUP3 ADD MSTORE PUSH32 0x596F7520617265206E6F7420746865206F776E6572206F722070726976617465 PUSH1 0x44 DUP3 ADD MSTORE PUSH9 0x10383937BB34B232B9 PUSH1 0xB9 SHL PUSH1 0x64 DUP3 ADD MSTORE PUSH1 0x84 ADD PUSH2 0x2A3 JUMP JUMPDEST PUSH1 0x7 DUP1 SLOAD DUP1 PUSH1 0x20 MUL PUSH1 0x20 ADD PUSH1 0x40 MLOAD SWAP1 DUP2 ADD PUSH1 0x40 MSTORE DUP1 SWAP3 SWAP2 SWAP1 DUP2 DUP2 MSTORE PUSH1 0x20 ADD DUP3 DUP1 SLOAD DUP1 ISZERO PUSH2 0x476 JUMPI PUSH1 0x20 MUL DUP3 ADD SWAP2 SWAP1 PUSH1 0x0 MSTORE PUSH1 0x20 PUSH1 0x0 KECCAK256 SWAP1 DUP2 SLOAD PUSH1 0x1 PUSH1 0x1 PUSH1 0xA0 SHL SUB AND DUP2 MSTORE PUSH1 0x1 SWAP1 SWAP2 ADD SWAP1 PUSH1 0x20 ADD DUP1 DUP4 GT PUSH2 0x458 JUMPI POP POP POP POP POP SWAP1 POP SWAP1 JUMP JUMPDEST PUSH1 0x0 PUSH1 0x20 DUP2 SWAP1 MSTORE SWAP1 DUP2 MSTORE PUSH1 0x40 SWAP1 KECCAK256 DUP1 SLOAD PUSH1 0x1 DUP3 ADD DUP1 SLOAD PUSH1 0xFF SWAP1 SWAP3 AND SWAP3 SWAP2 PUSH2 0xF20 SWAP1 PUSH2 0x1334 JUMP JUMPDEST DUP1 PUSH1 0x1F ADD PUSH1 0x20 DUP1 SWAP2 DIV MUL PUSH1 0x20 ADD PUSH1 0x40 MLOAD SWAP1 DUP2 ADD PUSH1 0x40 MSTORE DUP1 SWAP3 SWAP2 SWAP1 DUP2 DUP2 MSTORE PUSH1 0x20 ADD DUP3 DUP1 SLOAD PUSH2 0xF4C SWAP1 PUSH2 0x1334 JUMP JUMPDEST DUP1 ISZERO PUSH2 0xF99 JUMPI DUP1 PUSH1 0x1F LT PUSH2 0xF6E JUMPI PUSH2 0x100 DUP1 DUP4 SLOAD DIV MUL DUP4 MSTORE SWAP2 PUSH1 0x20 ADD SWAP2 PUSH2 0xF99 JUMP JUMPDEST DUP3 ADD SWAP2 SWAP1 PUSH1 0x0 MSTORE PUSH1 0x20 PUSH1 0x0 KECCAK256 SWAP1 JUMPDEST DUP2 SLOAD DUP2 MSTORE SWAP1 PUSH1 0x1 ADD SWAP1 PUSH1 0x20 ADD DUP1 DUP4 GT PUSH2 0xF7C JUMPI DUP3 SWAP1 SUB PUSH1 0x1F AND DUP3 ADD SWAP2 JUMPDEST POP POP POP POP POP SWAP1 DUP1 PUSH1 0x2 ADD SLOAD SWAP1 DUP1 PUSH1 0x3 ADD SLOAD SWAP1 DUP1 PUSH1 0x4 ADD SLOAD SWAP1 DUP1 PUSH1 0x5 ADD SLOAD SWAP1 DUP1 PUSH1 0x6 ADD SLOAD SWAP1 POP DUP8 JUMP JUMPDEST DUP3 DUP1 SLOAD PUSH2 0xFCD SWAP1 PUSH2 0x1334 JUMP JUMPDEST SWAP1 PUSH1 0x0 MSTORE PUSH1 0x20 PUSH1 0x0 KECCAK256 SWAP1 PUSH1 0x1F ADD PUSH1 0x20 SWAP1 DIV DUP2 ADD SWAP3 DUP3 PUSH2 0xFEF JUMPI PUSH1 0x0 DUP6 SSTORE PUSH2 0x1035 JUMP JUMPDEST DUP3 PUSH1 0x1F LT PUSH2 0x1008 JUMPI DUP1 MLOAD PUSH1 0xFF NOT AND DUP4 DUP1 ADD OR DUP6 SSTORE PUSH2 0x1035 JUMP JUMPDEST DUP3 DUP1 ADD PUSH1 0x1 ADD DUP6 SSTORE DUP3 ISZERO PUSH2 0x1035 JUMPI SWAP2 DUP3 ADD JUMPDEST DUP3 DUP2 GT ISZERO PUSH2 0x1035 JUMPI DUP3 MLOAD DUP3 SSTORE SWAP2 PUSH1 0x20 ADD SWAP2 SWAP1 PUSH1 0x1 ADD SWAP1 PUSH2 0x101A JUMP JUMPDEST POP PUSH2 0x1041 SWAP3 SWAP2 POP PUSH2 0x1045 JUMP JUMPDEST POP SWAP1 JUMP JUMPDEST JUMPDEST DUP1 DUP3 GT ISZERO PUSH2 0x1041 JUMPI PUSH1 0x0 DUP2 SSTORE PUSH1 0x1 ADD PUSH2 0x1046 JUMP JUMPDEST DUP1 CALLDATALOAD PUSH1 0x1 PUSH1 0x1 PUSH1 0xA0 SHL SUB DUP2 AND DUP2 EQ PUSH2 0x1071 JUMPI PUSH1 0x0 DUP1 REVERT JUMPDEST SWAP2 SWAP1 POP JUMP JUMPDEST PUSH1 0x0 DUP3 PUSH1 0x1F DUP4 ADD SLT PUSH2 0x1087 JUMPI PUSH1 0x0 DUP1 REVERT JUMPDEST DUP2 CALLDATALOAD PUSH1 0x1 PUSH1 0x1 PUSH1 0x40 SHL SUB DUP1 DUP3 GT ISZERO PUSH2 0x10A1 JUMPI PUSH2 0x10A1 PUSH2 0x13C4 JUMP JUMPDEST PUSH1 0x40 MLOAD PUSH1 0x1F DUP4 ADD PUSH1 0x1F NOT SWAP1 DUP2 AND PUSH1 0x3F ADD AND DUP2 ADD SWAP1 DUP3 DUP3 GT DUP2 DUP4 LT OR ISZERO PUSH2 0x10C9 JUMPI PUSH2 0x10C9 PUSH2 0x13C4 JUMP JUMPDEST DUP2 PUSH1 0x40 MSTORE DUP4 DUP2 MSTORE DUP7 PUSH1 0x20 DUP6 DUP9 ADD ADD GT ISZERO PUSH2 0x10E2 JUMPI PUSH1 0x0 DUP1 REVERT JUMPDEST DUP4 PUSH1 0x20 DUP8 ADD PUSH1 0x20 DUP4 ADD CALLDATACOPY PUSH1 0x0 PUSH1 0x20 DUP6 DUP4 ADD ADD MSTORE DUP1 SWAP5 POP POP POP POP POP SWAP3 SWAP2 POP POP JUMP JUMPDEST PUSH1 0x0 PUSH1 0x20 DUP3 DUP5 SUB SLT ISZERO PUSH2 0x1114 JUMPI PUSH1 0x0 DUP1 REVERT JUMPDEST PUSH2 0x111D DUP3 PUSH2 0x105A JUMP JUMPDEST SWAP4 SWAP3 POP POP POP JUMP JUMPDEST PUSH1 0x0 PUSH1 0x20 DUP3 DUP5 SUB SLT ISZERO PUSH2 0x1136 JUMPI PUSH1 0x0 DUP1 REVERT JUMPDEST DUP2 CALLDATALOAD PUSH1 0x1 PUSH1 0x1 PUSH1 0x40 SHL SUB DUP2 GT ISZERO PUSH2 0x114C JUMPI PUSH1 0x0 DUP1 REVERT JUMPDEST PUSH2 0x1158 DUP5 DUP3 DUP6 ADD PUSH2 0x1076 JUMP JUMPDEST SWAP5 SWAP4 POP POP POP POP JUMP JUMPDEST PUSH1 0x0 DUP1 PUSH1 0x0 PUSH1 0x60 DUP5 DUP7 SUB SLT ISZERO PUSH2 0x1175 JUMPI PUSH1 0x0 DUP1 REVERT JUMPDEST DUP4 CALLDATALOAD PUSH1 0x1 PUSH1 0x1 PUSH1 0x40 SHL SUB DUP1 DUP3 GT ISZERO PUSH2 0x118C JUMPI PUSH1 0x0 DUP1 REVERT JUMPDEST PUSH2 0x1198 DUP8 DUP4 DUP9 ADD PUSH2 0x1076 JUMP JUMPDEST SWAP5 POP PUSH1 0x20 DUP7 ADD CALLDATALOAD SWAP2 POP DUP1 DUP3 GT ISZERO PUSH2 0x11AE JUMPI PUSH1 0x0 DUP1 REVERT JUMPDEST POP PUSH2 0x11BB DUP7 DUP3 DUP8 ADD PUSH2 0x1076 JUMP JUMPDEST SWAP3 POP POP PUSH2 0x11CA PUSH1 0x40 DUP6 ADD PUSH2 0x105A JUMP JUMPDEST SWAP1 POP SWAP3 POP SWAP3 POP SWAP3 JUMP JUMPDEST PUSH1 0x0 PUSH1 0x20 DUP3 DUP5 SUB SLT ISZERO PUSH2 0x11E5 JUMPI PUSH1 0x0 DUP1 REVERT JUMPDEST POP CALLDATALOAD SWAP2 SWAP1 POP JUMP JUMPDEST PUSH1 0x0 DUP3 MLOAD PUSH2 0x11FE DUP2 DUP5 PUSH1 0x20 DUP8 ADD PUSH2 0x1304 JUMP JUMPDEST SWAP2 SWAP1 SWAP2 ADD SWAP3 SWAP2 POP POP JUMP JUMPDEST PUSH1 0x20 DUP1 DUP3 MSTORE DUP3 MLOAD DUP3 DUP3 ADD DUP2 SWAP1 MSTORE PUSH1 0x0 SWAP2 SWAP1 DUP5 DUP3 ADD SWAP1 PUSH1 0x40 DUP6 ADD SWAP1 DUP5 JUMPDEST DUP2 DUP2 LT ISZERO PUSH2 0x1249 JUMPI DUP4 MLOAD PUSH1 0x1 PUSH1 0x1 PUSH1 0xA0 SHL SUB AND DUP4 MSTORE SWAP3 DUP5 ADD SWAP3 SWAP2 DUP5 ADD SWAP2 PUSH1 0x1 ADD PUSH2 0x1224 JUMP JUMPDEST POP SWAP1 SWAP7 SWAP6 POP POP POP POP POP POP JUMP JUMPDEST PUSH1 0x0 PUSH1 0x5 DUP10 LT PUSH2 0x1275 JUMPI PUSH4 0x4E487B71 PUSH1 0xE0 SHL PUSH1 0x0 MSTORE PUSH1 0x21 PUSH1 0x4 MSTORE PUSH1 0x24 PUSH1 0x0 REVERT JUMPDEST DUP9 DUP3 MSTORE PUSH1 0xE0 PUSH1 0x20 DUP4 ADD MSTORE DUP8 MLOAD DUP1 PUSH1 0xE0 DUP5 ADD MSTORE PUSH2 0x100 PUSH2 0x129A DUP3 DUP3 DUP7 ADD PUSH1 0x20 DUP14 ADD PUSH2 0x1304 JUMP JUMPDEST PUSH1 0x40 DUP5 ADD SWAP9 SWAP1 SWAP9 MSTORE PUSH1 0x60 DUP4 ADD SWAP7 SWAP1 SWAP7 MSTORE POP PUSH1 0x80 DUP2 ADD SWAP4 SWAP1 SWAP4 MSTORE PUSH1 0xA0 DUP4 ADD SWAP2 SWAP1 SWAP2 MSTORE PUSH1 0xC0 DUP3 ADD MSTORE PUSH1 0x1F SWAP1 SWAP2 ADD PUSH1 0x1F NOT AND ADD ADD SWAP3 SWAP2 POP POP JUMP JUMPDEST PUSH1 0x20 DUP1 DUP3 MSTORE PUSH1 0x19 SWAP1 DUP3 ADD MSTORE PUSH25 0x2CB7BAB9103737BA10283934BB30BA3290383937BB34B232B9 PUSH1 0x39 SHL PUSH1 0x40 DUP3 ADD MSTORE PUSH1 0x60 ADD SWAP1 JUMP JUMPDEST PUSH1 0x0 JUMPDEST DUP4 DUP2 LT ISZERO PUSH2 0x131F JUMPI DUP2 DUP2 ADD MLOAD DUP4 DUP3 ADD MSTORE PUSH1 0x20 ADD PUSH2 0x1307 JUMP JUMPDEST DUP4 DUP2 GT ISZERO PUSH2 0x132E JUMPI PUSH1 0x0 DUP5 DUP5 ADD MSTORE JUMPDEST POP POP POP POP JUMP JUMPDEST PUSH1 0x1 DUP2 DUP2 SHR SWAP1 DUP3 AND DUP1 PUSH2 0x1348 JUMPI PUSH1 0x7F DUP3 AND SWAP2 POP JUMPDEST PUSH1 0x20 DUP3 LT DUP2 EQ ISZERO PUSH2 0x1369 JUMPI PUSH4 0x4E487B71 PUSH1 0xE0 SHL PUSH1 0x0 MSTORE PUSH1 0x22 PUSH1 0x4 MSTORE PUSH1 0x24 PUSH1 0x0 REVERT JUMPDEST POP SWAP2 SWAP1 POP JUMP JUMPDEST PUSH1 0x0 PUSH1 0x0 NOT DUP3 EQ ISZERO PUSH2 0x1391 JUMPI PUSH4 0x4E487B71 PUSH1 0xE0 SHL PUSH1 0x0 MSTORE PUSH1 0x11 PUSH1 0x4 MSTORE PUSH1 0x24 PUSH1 0x0 REVERT JUMPDEST POP PUSH1 0x1 ADD SWAP1 JUMP JUMPDEST PUSH4 0x4E487B71 PUSH1 0xE0 SHL PUSH1 0x0 MSTORE PUSH1 0x21 PUSH1 0x4 MSTORE PUSH1 0x24 PUSH1 0x0 REVERT JUMPDEST PUSH4 0x4E487B71 PUSH1 0xE0 SHL PUSH1 0x0 MSTORE PUSH1 0x32 PUSH1 0x4 MSTORE PUSH1 0x24 PUSH1 0x0 REVERT JUMPDEST PUSH4 0x4E487B71 PUSH1 0xE0 SHL PUSH1 0x0 MSTORE PUSH1 0x41 PUSH1 0x4 MSTORE PUSH1 0x24 PUSH1 0x0 REVERT INVALID MUL 0xE4 PUSH19 0x438281ECE9FAE629C31EBC952B0B512971EFB1 0xBA 0xCF 0xC7 0xD4 DIFFICULTY SHR PC PUSH13 0xFF6CF652222313E28459528D92 SIGNEXTEND PUSH6 0x115C16C04F3E 0xFC DUP3 0xAA 0xED 0xC9 PUSH28 0xE59F3F377C0D3FA2646970667358221220FC88401F195F74A5FBFA91 DUP14 NUMBER 0xB6 0xD1 PUSH11 0x1EBF17718CB111D9F9BB54 RETURNDATASIZE ORIGIN 0xBC 0xFB SELFDESTRUCT PUSH5 0x736F6C6343 STOP ADDMOD SMOD STOP CALLER "
				},
				"gasEstimates": {
					"creation": {
						"codeDepositCost": "1040000",
						"executionCost": "45292",
						"totalCost": "1085292"
					},
					"external": {
						"acceptApplication(address)": "infinite",
						"application(string,string,address)": "infinite",
						"changeTokenAmountPricePrivate(uint256)": "24726",
						"deviationApplication(address)": "26864",
						"endPrivatePhase()": "99926",
						"getApplicationAmountAdr()": "infinite",
						"getBalanceEth(address)": "3199",
						"getBalancePrivateToken(address)": "2821",
						"getBalancePublicToken(address)": "2623",
						"getBalanceSeedToken(address)": "2579",
						"get_blackList()": "infinite",
						"get_keccak256(string)": "infinite",
						"get_whiteList()": "infinite",
						"startPrivatePhase()": "31190",
						"structUsers_(address)": "infinite",
						"tokenAmount_()": "2504",
						"tokenPrice_()": "2284"
					}
				},
				"methodIdentifiers": {
					"acceptApplication(address)": "a678b65b",
					"application(string,string,address)": "785963c3",
					"changeTokenAmountPricePrivate(uint256)": "8aa7cc0b",
					"deviationApplication(address)": "1d3eea35",
					"endPrivatePhase()": "7f4b8df0",
					"getApplicationAmountAdr()": "686c4cea",
					"getBalanceEth(address)": "99067ede",
					"getBalancePrivateToken(address)": "b06cdc12",
					"getBalancePublicToken(address)": "72f0d72b",
					"getBalanceSeedToken(address)": "2599d6d0",
					"get_blackList()": "7f89128f",
					"get_keccak256(string)": "8e4f8c6b",
					"get_whiteList()": "c10e3911",
					"startPrivatePhase()": "0691615d",
					"structUsers_(address)": "fc837259",
					"tokenAmount_()": "948942ad",
					"tokenPrice_()": "0761c8b9"
				}
			},
			"storageLayout": {
				"storage": [
					{
						"astId": 557,
						"contract": "GitHub/contract-token-cryptoMonster/backend/components/PhasePrivate.sol:PhasePrivate",
						"label": "structUsers_",
						"offset": 0,
						"slot": "0",
						"type": "t_mapping(t_address,t_struct(structUser)552_storage)"
					},
					{
						"astId": 563,
						"contract": "GitHub/contract-token-cryptoMonster/backend/components/PhasePrivate.sol:PhasePrivate",
						"label": "allowed",
						"offset": 0,
						"slot": "1",
						"type": "t_mapping(t_address,t_mapping(t_address,t_uint256))"
					},
					{
						"astId": 566,
						"contract": "GitHub/contract-token-cryptoMonster/backend/components/PhasePrivate.sol:PhasePrivate",
						"label": "tokenPrice_",
						"offset": 0,
						"slot": "2",
						"type": "t_uint256"
					},
					{
						"astId": 569,
						"contract": "GitHub/contract-token-cryptoMonster/backend/components/PhasePrivate.sol:PhasePrivate",
						"label": "tokenAmount_",
						"offset": 0,
						"slot": "3",
						"type": "t_uint256"
					},
					{
						"astId": 588,
						"contract": "GitHub/contract-token-cryptoMonster/backend/components/PhasePrivate.sol:PhasePrivate",
						"label": "structPhases_",
						"offset": 0,
						"slot": "4",
						"type": "t_mapping(t_address,t_struct(structPhase)583_storage)"
					},
					{
						"astId": 604,
						"contract": "GitHub/contract-token-cryptoMonster/backend/components/PhasePrivate.sol:PhasePrivate",
						"label": "strucApplications_",
						"offset": 0,
						"slot": "5",
						"type": "t_mapping(t_address,t_struct(structApplication)599_storage)"
					},
					{
						"astId": 607,
						"contract": "GitHub/contract-token-cryptoMonster/backend/components/PhasePrivate.sol:PhasePrivate",
						"label": "structApplicationsAmountAdr",
						"offset": 0,
						"slot": "6",
						"type": "t_array(t_address)dyn_storage"
					},
					{
						"astId": 610,
						"contract": "GitHub/contract-token-cryptoMonster/backend/components/PhasePrivate.sol:PhasePrivate",
						"label": "whiteList",
						"offset": 0,
						"slot": "7",
						"type": "t_array(t_address)dyn_storage"
					},
					{
						"astId": 613,
						"contract": "GitHub/contract-token-cryptoMonster/backend/components/PhasePrivate.sol:PhasePrivate",
						"label": "blackList",
						"offset": 0,
						"slot": "8",
						"type": "t_array(t_address)dyn_storage"
					}
				],
				"types": {
					"t_address": {
						"encoding": "inplace",
						"label": "address",
						"numberOfBytes": "20"
					},
					"t_array(t_address)dyn_storage": {
						"base": "t_address",
						"encoding": "dynamic_array",
						"label": "address[]",
						"numberOfBytes": "32"
					},
					"t_bool": {
						"encoding": "inplace",
						"label": "bool",
						"numberOfBytes": "1"
					},
					"t_bytes32": {
						"encoding": "inplace",
						"label": "bytes32",
						"numberOfBytes": "32"
					},
					"t_enum(Role)536": {
						"encoding": "inplace",
						"label": "enum structures.Role",
						"numberOfBytes": "1"
					},
					"t_mapping(t_address,t_mapping(t_address,t_uint256))": {
						"encoding": "mapping",
						"key": "t_address",
						"label": "mapping(address => mapping(address => uint256))",
						"numberOfBytes": "32",
						"value": "t_mapping(t_address,t_uint256)"
					},
					"t_mapping(t_address,t_struct(structApplication)599_storage)": {
						"encoding": "mapping",
						"key": "t_address",
						"label": "mapping(address => struct structures.structApplication)",
						"numberOfBytes": "32",
						"value": "t_struct(structApplication)599_storage"
					},
					"t_mapping(t_address,t_struct(structPhase)583_storage)": {
						"encoding": "mapping",
						"key": "t_address",
						"label": "mapping(address => struct structures.structPhase)",
						"numberOfBytes": "32",
						"value": "t_struct(structPhase)583_storage"
					},
					"t_mapping(t_address,t_struct(structUser)552_storage)": {
						"encoding": "mapping",
						"key": "t_address",
						"label": "mapping(address => struct structures.structUser)",
						"numberOfBytes": "32",
						"value": "t_struct(structUser)552_storage"
					},
					"t_mapping(t_address,t_uint256)": {
						"encoding": "mapping",
						"key": "t_address",
						"label": "mapping(address => uint256)",
						"numberOfBytes": "32",
						"value": "t_uint256"
					},
					"t_string_storage": {
						"encoding": "bytes",
						"label": "string",
						"numberOfBytes": "32"
					},
					"t_struct(structApplication)599_storage": {
						"encoding": "inplace",
						"label": "struct structures.structApplication",
						"members": [
							{
								"astId": 590,
								"contract": "GitHub/contract-token-cryptoMonster/backend/components/PhasePrivate.sol:PhasePrivate",
								"label": "name",
								"offset": 0,
								"slot": "0",
								"type": "t_string_storage"
							},
							{
								"astId": 592,
								"contract": "GitHub/contract-token-cryptoMonster/backend/components/PhasePrivate.sol:PhasePrivate",
								"label": "contactForCommunication",
								"offset": 0,
								"slot": "1",
								"type": "t_string_storage"
							},
							{
								"astId": 594,
								"contract": "GitHub/contract-token-cryptoMonster/backend/components/PhasePrivate.sol:PhasePrivate",
								"label": "userAdr",
								"offset": 0,
								"slot": "2",
								"type": "t_address"
							},
							{
								"astId": 596,
								"contract": "GitHub/contract-token-cryptoMonster/backend/components/PhasePrivate.sol:PhasePrivate",
								"label": "status",
								"offset": 20,
								"slot": "2",
								"type": "t_bool"
							},
							{
								"astId": 598,
								"contract": "GitHub/contract-token-cryptoMonster/backend/components/PhasePrivate.sol:PhasePrivate",
								"label": "exist",
								"offset": 21,
								"slot": "2",
								"type": "t_bool"
							}
						],
						"numberOfBytes": "96"
					},
					"t_struct(structPhase)583_storage": {
						"encoding": "inplace",
						"label": "struct structures.structPhase",
						"members": [
							{
								"astId": 580,
								"contract": "GitHub/contract-token-cryptoMonster/backend/components/PhasePrivate.sol:PhasePrivate",
								"label": "statusPhase",
								"offset": 0,
								"slot": "0",
								"type": "t_bool"
							},
							{
								"astId": 582,
								"contract": "GitHub/contract-token-cryptoMonster/backend/components/PhasePrivate.sol:PhasePrivate",
								"label": "reviewed",
								"offset": 1,
								"slot": "0",
								"type": "t_bool"
							}
						],
						"numberOfBytes": "32"
					},
					"t_struct(structUser)552_storage": {
						"encoding": "inplace",
						"label": "struct structures.structUser",
						"members": [
							{
								"astId": 539,
								"contract": "GitHub/contract-token-cryptoMonster/backend/components/PhasePrivate.sol:PhasePrivate",
								"label": "role",
								"offset": 0,
								"slot": "0",
								"type": "t_enum(Role)536"
							},
							{
								"astId": 541,
								"contract": "GitHub/contract-token-cryptoMonster/backend/components/PhasePrivate.sol:PhasePrivate",
								"label": "login",
								"offset": 0,
								"slot": "1",
								"type": "t_string_storage"
							},
							{
								"astId": 543,
								"contract": "GitHub/contract-token-cryptoMonster/backend/components/PhasePrivate.sol:PhasePrivate",
								"label": "password",
								"offset": 0,
								"slot": "2",
								"type": "t_bytes32"
							},
							{
								"astId": 545,
								"contract": "GitHub/contract-token-cryptoMonster/backend/components/PhasePrivate.sol:PhasePrivate",
								"label": "balance_overall",
								"offset": 0,
								"slot": "3",
								"type": "t_uint256"
							},
							{
								"astId": 547,
								"contract": "GitHub/contract-token-cryptoMonster/backend/components/PhasePrivate.sol:PhasePrivate",
								"label": "balance_seed",
								"offset": 0,
								"slot": "4",
								"type": "t_uint256"
							},
							{
								"astId": 549,
								"contract": "GitHub/contract-token-cryptoMonster/backend/components/PhasePrivate.sol:PhasePrivate",
								"label": "balance_private",
								"offset": 0,
								"slot": "5",
								"type": "t_uint256"
							},
							{
								"astId": 551,
								"contract": "GitHub/contract-token-cryptoMonster/backend/components/PhasePrivate.sol:PhasePrivate",
								"label": "balance_public",
								"offset": 0,
								"slot": "6",
								"type": "t_uint256"
							}
						],
						"numberOfBytes": "224"
					},
					"t_uint256": {
						"encoding": "inplace",
						"label": "uint256",
						"numberOfBytes": "32"
					}
				}
			},
			"userdoc": {
				"kind": "user",
				"methods": {},
				"version": 1
			}
		}
	}
}