{
	"GitHub/contract-token-cryptoMonster/backend/shared/lib/structures.sol": {
		"structures": {
			"abi": [
				{
					"inputs": [
						{
							"internalType": "address",
							"name": "",
							"type": "address"
						}
					],
					"name": "strucApplications_",
					"outputs": [
						{
							"internalType": "string",
							"name": "name",
							"type": "string"
						},
						{
							"internalType": "string",
							"name": "contactForCommunication",
							"type": "string"
						},
						{
							"internalType": "address",
							"name": "userAdr",
							"type": "address"
						},
						{
							"internalType": "bool",
							"name": "status",
							"type": "bool"
						},
						{
							"internalType": "bool",
							"name": "exist",
							"type": "bool"
						}
					],
					"stateMutability": "view",
					"type": "function"
				},
				{
					"inputs": [
						{
							"internalType": "address",
							"name": "",
							"type": "address"
						}
					],
					"name": "structUsers_",
					"outputs": [
						{
							"internalType": "enum structures.Role",
							"name": "role",
							"type": "uint8"
						},
						{
							"internalType": "string",
							"name": "login",
							"type": "string"
						},
						{
							"internalType": "bytes32",
							"name": "password",
							"type": "bytes32"
						},
						{
							"internalType": "uint256",
							"name": "balance_overall",
							"type": "uint256"
						},
						{
							"internalType": "uint256",
							"name": "balance_seed",
							"type": "uint256"
						},
						{
							"internalType": "uint256",
							"name": "balance_private",
							"type": "uint256"
						},
						{
							"internalType": "uint256",
							"name": "balance_public",
							"type": "uint256"
						}
					],
					"stateMutability": "view",
					"type": "function"
				},
				{
					"inputs": [],
					"name": "tokenAmount_",
					"outputs": [
						{
							"internalType": "uint256",
							"name": "",
							"type": "uint256"
						}
					],
					"stateMutability": "view",
					"type": "function"
				},
				{
					"inputs": [],
					"name": "tokenPrice_",
					"outputs": [
						{
							"internalType": "uint256",
							"name": "",
							"type": "uint256"
						}
					],
					"stateMutability": "view",
					"type": "function"
				}
			],
			"devdoc": {
				"kind": "dev",
				"methods": {},
				"version": 1
			},
			"evm": {
				"assembly": "    /* \"GitHub/contract-token-cryptoMonster/backend/shared/lib/structures.sol\":72:3358  contract structures {\r... */\n  mstore(0x40, 0x80)\n    /* \"GitHub/contract-token-cryptoMonster/backend/shared/lib/structures.sol\":1152:1161  750000000 */\n  0x2cb41780\n    /* \"GitHub/contract-token-cryptoMonster/backend/shared/lib/structures.sol\":1123:1161  uint256 public tokenPrice_ = 750000000 */\n  0x02\n  sstore\n    /* \"GitHub/contract-token-cryptoMonster/backend/shared/lib/structures.sol\":1412:1418  100000 */\n  0x0186a0\n    /* \"GitHub/contract-token-cryptoMonster/backend/shared/lib/structures.sol\":1385:1418  uint public tokenAmount_ = 100000 */\n  0x03\n  sstore\n    /* \"GitHub/contract-token-cryptoMonster/backend/shared/lib/structures.sol\":72:3358  contract structures {\r... */\n  callvalue\n  dup1\n  iszero\n  tag_1\n  jumpi\n  0x00\n  dup1\n  revert\ntag_1:\n  pop\n  dataSize(sub_0)\n  dup1\n  dataOffset(sub_0)\n  0x00\n  codecopy\n  0x00\n  return\nstop\n\nsub_0: assembly {\n        /* \"GitHub/contract-token-cryptoMonster/backend/shared/lib/structures.sol\":72:3358  contract structures {\r... */\n      mstore(0x40, 0x80)\n      callvalue\n      dup1\n      iszero\n      tag_1\n      jumpi\n      0x00\n      dup1\n      revert\n    tag_1:\n      pop\n      jumpi(tag_2, lt(calldatasize, 0x04))\n      shr(0xe0, calldataload(0x00))\n      dup1\n      0x0761c8b9\n      eq\n      tag_3\n      jumpi\n      dup1\n      0x23b2265f\n      eq\n      tag_4\n      jumpi\n      dup1\n      0x948942ad\n      eq\n      tag_5\n      jumpi\n      dup1\n      0xfc837259\n      eq\n      tag_6\n      jumpi\n    tag_2:\n      0x00\n      dup1\n      revert\n        /* \"GitHub/contract-token-cryptoMonster/backend/shared/lib/structures.sol\":1123:1161  uint256 public tokenPrice_ = 750000000 */\n    tag_3:\n      tag_7\n      tag_8\n      jump\t// in\n    tag_7:\n      mload(0x40)\n      tag_9\n      swap2\n      swap1\n      tag_10\n      jump\t// in\n    tag_9:\n      mload(0x40)\n      dup1\n      swap2\n      sub\n      swap1\n      return\n        /* \"GitHub/contract-token-cryptoMonster/backend/shared/lib/structures.sol\":2802:2866  mapping (address => structApplication) public strucApplications_ */\n    tag_4:\n      tag_11\n      0x04\n      dup1\n      calldatasize\n      sub\n      dup2\n      add\n      swap1\n      tag_12\n      swap2\n      swap1\n      tag_13\n      jump\t// in\n    tag_12:\n      tag_14\n      jump\t// in\n    tag_11:\n      mload(0x40)\n      tag_15\n      swap6\n      swap5\n      swap4\n      swap3\n      swap2\n      swap1\n      tag_16\n      jump\t// in\n    tag_15:\n      mload(0x40)\n      dup1\n      swap2\n      sub\n      swap1\n      return\n        /* \"GitHub/contract-token-cryptoMonster/backend/shared/lib/structures.sol\":1385:1418  uint public tokenAmount_ = 100000 */\n    tag_5:\n      tag_17\n      tag_18\n      jump\t// in\n    tag_17:\n      mload(0x40)\n      tag_19\n      swap2\n      swap1\n      tag_10\n      jump\t// in\n    tag_19:\n      mload(0x40)\n      dup1\n      swap2\n      sub\n      swap1\n      return\n        /* \"GitHub/contract-token-cryptoMonster/backend/shared/lib/structures.sol\":836:887  mapping (address => structUser) public structUsers_ */\n    tag_6:\n      tag_20\n      0x04\n      dup1\n      calldatasize\n      sub\n      dup2\n      add\n      swap1\n      tag_21\n      swap2\n      swap1\n      tag_13\n      jump\t// in\n    tag_21:\n      tag_22\n      jump\t// in\n    tag_20:\n      mload(0x40)\n      tag_23\n      swap8\n      swap7\n      swap6\n      swap5\n      swap4\n      swap3\n      swap2\n      swap1\n      tag_24\n      jump\t// in\n    tag_23:\n      mload(0x40)\n      dup1\n      swap2\n      sub\n      swap1\n      return\n        /* \"GitHub/contract-token-cryptoMonster/backend/shared/lib/structures.sol\":1123:1161  uint256 public tokenPrice_ = 750000000 */\n    tag_8:\n      sload(0x02)\n      dup2\n      jump\t// out\n        /* \"GitHub/contract-token-cryptoMonster/backend/shared/lib/structures.sol\":2802:2866  mapping (address => structApplication) public strucApplications_ */\n    tag_14:\n      mstore(0x20, 0x05)\n      dup1\n      0x00\n      mstore\n      keccak256(0x00, 0x40)\n      0x00\n      swap2\n      pop\n      swap1\n      pop\n      dup1\n      0x00\n      add\n      dup1\n      sload\n      tag_25\n      swap1\n      tag_26\n      jump\t// in\n    tag_25:\n      dup1\n      0x1f\n      add\n      0x20\n      dup1\n      swap2\n      div\n      mul\n      0x20\n      add\n      mload(0x40)\n      swap1\n      dup2\n      add\n      0x40\n      mstore\n      dup1\n      swap3\n      swap2\n      swap1\n      dup2\n      dup2\n      mstore\n      0x20\n      add\n      dup3\n      dup1\n      sload\n      tag_27\n      swap1\n      tag_26\n      jump\t// in\n    tag_27:\n      dup1\n      iszero\n      tag_28\n      jumpi\n      dup1\n      0x1f\n      lt\n      tag_29\n      jumpi\n      0x0100\n      dup1\n      dup4\n      sload\n      div\n      mul\n      dup4\n      mstore\n      swap2\n      0x20\n      add\n      swap2\n      jump(tag_28)\n    tag_29:\n      dup3\n      add\n      swap2\n      swap1\n      0x00\n      mstore\n      keccak256(0x00, 0x20)\n      swap1\n    tag_30:\n      dup2\n      sload\n      dup2\n      mstore\n      swap1\n      0x01\n      add\n      swap1\n      0x20\n      add\n      dup1\n      dup4\n      gt\n      tag_30\n      jumpi\n      dup3\n      swap1\n      sub\n      0x1f\n      and\n      dup3\n      add\n      swap2\n    tag_28:\n      pop\n      pop\n      pop\n      pop\n      pop\n      swap1\n      dup1\n      0x01\n      add\n      dup1\n      sload\n      tag_31\n      swap1\n      tag_26\n      jump\t// in\n    tag_31:\n      dup1\n      0x1f\n      add\n      0x20\n      dup1\n      swap2\n      div\n      mul\n      0x20\n      add\n      mload(0x40)\n      swap1\n      dup2\n      add\n      0x40\n      mstore\n      dup1\n      swap3\n      swap2\n      swap1\n      dup2\n      dup2\n      mstore\n      0x20\n      add\n      dup3\n      dup1\n      sload\n      tag_32\n      swap1\n      tag_26\n      jump\t// in\n    tag_32:\n      dup1\n      iszero\n      tag_33\n      jumpi\n      dup1\n      0x1f\n      lt\n      tag_34\n      jumpi\n      0x0100\n      dup1\n      dup4\n      sload\n      div\n      mul\n      dup4\n      mstore\n      swap2\n      0x20\n      add\n      swap2\n      jump(tag_33)\n    tag_34:\n      dup3\n      add\n      swap2\n      swap1\n      0x00\n      mstore\n      keccak256(0x00, 0x20)\n      swap1\n    tag_35:\n      dup2\n      sload\n      dup2\n      mstore\n      swap1\n      0x01\n      add\n      swap1\n      0x20\n      add\n      dup1\n      dup4\n      gt\n      tag_35\n      jumpi\n      dup3\n      swap1\n      sub\n      0x1f\n      and\n      dup3\n      add\n      swap2\n    tag_33:\n      pop\n      pop\n      pop\n      pop\n      pop\n      swap1\n      dup1\n      0x02\n      add\n      0x00\n      swap1\n      sload\n      swap1\n      0x0100\n      exp\n      swap1\n      div\n      0xffffffffffffffffffffffffffffffffffffffff\n      and\n      swap1\n      dup1\n      0x02\n      add\n      0x14\n      swap1\n      sload\n      swap1\n      0x0100\n      exp\n      swap1\n      div\n      0xff\n      and\n      swap1\n      dup1\n      0x02\n      add\n      0x15\n      swap1\n      sload\n      swap1\n      0x0100\n      exp\n      swap1\n      div\n      0xff\n      and\n      swap1\n      pop\n      dup6\n      jump\t// out\n        /* \"GitHub/contract-token-cryptoMonster/backend/shared/lib/structures.sol\":1385:1418  uint public tokenAmount_ = 100000 */\n    tag_18:\n      sload(0x03)\n      dup2\n      jump\t// out\n        /* \"GitHub/contract-token-cryptoMonster/backend/shared/lib/structures.sol\":836:887  mapping (address => structUser) public structUsers_ */\n    tag_22:\n      mstore(0x20, 0x00)\n      dup1\n      0x00\n      mstore\n      keccak256(0x00, 0x40)\n      0x00\n      swap2\n      pop\n      swap1\n      pop\n      dup1\n      0x00\n      add\n      0x00\n      swap1\n      sload\n      swap1\n      0x0100\n      exp\n      swap1\n      div\n      0xff\n      and\n      swap1\n      dup1\n      0x01\n      add\n      dup1\n      sload\n      tag_36\n      swap1\n      tag_26\n      jump\t// in\n    tag_36:\n      dup1\n      0x1f\n      add\n      0x20\n      dup1\n      swap2\n      div\n      mul\n      0x20\n      add\n      mload(0x40)\n      swap1\n      dup2\n      add\n      0x40\n      mstore\n      dup1\n      swap3\n      swap2\n      swap1\n      dup2\n      dup2\n      mstore\n      0x20\n      add\n      dup3\n      dup1\n      sload\n      tag_37\n      swap1\n      tag_26\n      jump\t// in\n    tag_37:\n      dup1\n      iszero\n      tag_38\n      jumpi\n      dup1\n      0x1f\n      lt\n      tag_39\n      jumpi\n      0x0100\n      dup1\n      dup4\n      sload\n      div\n      mul\n      dup4\n      mstore\n      swap2\n      0x20\n      add\n      swap2\n      jump(tag_38)\n    tag_39:\n      dup3\n      add\n      swap2\n      swap1\n      0x00\n      mstore\n      keccak256(0x00, 0x20)\n      swap1\n    tag_40:\n      dup2\n      sload\n      dup2\n      mstore\n      swap1\n      0x01\n      add\n      swap1\n      0x20\n      add\n      dup1\n      dup4\n      gt\n      tag_40\n      jumpi\n      dup3\n      swap1\n      sub\n      0x1f\n      and\n      dup3\n      add\n      swap2\n    tag_38:\n      pop\n      pop\n      pop\n      pop\n      pop\n      swap1\n      dup1\n      0x02\n      add\n      sload\n      swap1\n      dup1\n      0x03\n      add\n      sload\n      swap1\n      dup1\n      0x04\n      add\n      sload\n      swap1\n      dup1\n      0x05\n      add\n      sload\n      swap1\n      dup1\n      0x06\n      add\n      sload\n      swap1\n      pop\n      dup8\n      jump\t// out\n        /* \"#utility.yul\":7:146   */\n    tag_42:\n        /* \"#utility.yul\":53:58   */\n      0x00\n        /* \"#utility.yul\":91:97   */\n      dup2\n        /* \"#utility.yul\":78:98   */\n      calldataload\n        /* \"#utility.yul\":69:98   */\n      swap1\n      pop\n        /* \"#utility.yul\":107:140   */\n      tag_44\n        /* \"#utility.yul\":134:139   */\n      dup2\n        /* \"#utility.yul\":107:140   */\n      tag_45\n      jump\t// in\n    tag_44:\n        /* \"#utility.yul\":7:146   */\n      swap3\n      swap2\n      pop\n      pop\n      jump\t// out\n        /* \"#utility.yul\":152:481   */\n    tag_13:\n        /* \"#utility.yul\":211:217   */\n      0x00\n        /* \"#utility.yul\":260:262   */\n      0x20\n        /* \"#utility.yul\":248:257   */\n      dup3\n        /* \"#utility.yul\":239:246   */\n      dup5\n        /* \"#utility.yul\":235:258   */\n      sub\n        /* \"#utility.yul\":231:263   */\n      slt\n        /* \"#utility.yul\":228:347   */\n      iszero\n      tag_47\n      jumpi\n        /* \"#utility.yul\":266:345   */\n      tag_48\n      tag_49\n      jump\t// in\n    tag_48:\n        /* \"#utility.yul\":228:347   */\n    tag_47:\n        /* \"#utility.yul\":386:387   */\n      0x00\n        /* \"#utility.yul\":411:464   */\n      tag_50\n        /* \"#utility.yul\":456:463   */\n      dup5\n        /* \"#utility.yul\":447:453   */\n      dup3\n        /* \"#utility.yul\":436:445   */\n      dup6\n        /* \"#utility.yul\":432:454   */\n      add\n        /* \"#utility.yul\":411:464   */\n      tag_42\n      jump\t// in\n    tag_50:\n        /* \"#utility.yul\":401:464   */\n      swap2\n      pop\n        /* \"#utility.yul\":357:474   */\n      pop\n        /* \"#utility.yul\":152:481   */\n      swap3\n      swap2\n      pop\n      pop\n      jump\t// out\n        /* \"#utility.yul\":487:605   */\n    tag_51:\n        /* \"#utility.yul\":574:598   */\n      tag_53\n        /* \"#utility.yul\":592:597   */\n      dup2\n        /* \"#utility.yul\":574:598   */\n      tag_54\n      jump\t// in\n    tag_53:\n        /* \"#utility.yul\":569:572   */\n      dup3\n        /* \"#utility.yul\":562:599   */\n      mstore\n        /* \"#utility.yul\":487:605   */\n      pop\n      pop\n      jump\t// out\n        /* \"#utility.yul\":611:720   */\n    tag_55:\n        /* \"#utility.yul\":692:713   */\n      tag_57\n        /* \"#utility.yul\":707:712   */\n      dup2\n        /* \"#utility.yul\":692:713   */\n      tag_58\n      jump\t// in\n    tag_57:\n        /* \"#utility.yul\":687:690   */\n      dup3\n        /* \"#utility.yul\":680:714   */\n      mstore\n        /* \"#utility.yul\":611:720   */\n      pop\n      pop\n      jump\t// out\n        /* \"#utility.yul\":726:844   */\n    tag_59:\n        /* \"#utility.yul\":813:837   */\n      tag_61\n        /* \"#utility.yul\":831:836   */\n      dup2\n        /* \"#utility.yul\":813:837   */\n      tag_62\n      jump\t// in\n    tag_61:\n        /* \"#utility.yul\":808:811   */\n      dup3\n        /* \"#utility.yul\":801:838   */\n      mstore\n        /* \"#utility.yul\":726:844   */\n      pop\n      pop\n      jump\t// out\n        /* \"#utility.yul\":850:989   */\n    tag_63:\n        /* \"#utility.yul\":941:982   */\n      tag_65\n        /* \"#utility.yul\":976:981   */\n      dup2\n        /* \"#utility.yul\":941:982   */\n      tag_66\n      jump\t// in\n    tag_65:\n        /* \"#utility.yul\":936:939   */\n      dup3\n        /* \"#utility.yul\":929:983   */\n      mstore\n        /* \"#utility.yul\":850:989   */\n      pop\n      pop\n      jump\t// out\n        /* \"#utility.yul\":995:1359   */\n    tag_67:\n        /* \"#utility.yul\":1083:1086   */\n      0x00\n        /* \"#utility.yul\":1111:1150   */\n      tag_69\n        /* \"#utility.yul\":1144:1149   */\n      dup3\n        /* \"#utility.yul\":1111:1150   */\n      tag_70\n      jump\t// in\n    tag_69:\n        /* \"#utility.yul\":1166:1237   */\n      tag_71\n        /* \"#utility.yul\":1230:1236   */\n      dup2\n        /* \"#utility.yul\":1225:1228   */\n      dup6\n        /* \"#utility.yul\":1166:1237   */\n      tag_72\n      jump\t// in\n    tag_71:\n        /* \"#utility.yul\":1159:1237   */\n      swap4\n      pop\n        /* \"#utility.yul\":1246:1298   */\n      tag_73\n        /* \"#utility.yul\":1291:1297   */\n      dup2\n        /* \"#utility.yul\":1286:1289   */\n      dup6\n        /* \"#utility.yul\":1279:1283   */\n      0x20\n        /* \"#utility.yul\":1272:1277   */\n      dup7\n        /* \"#utility.yul\":1268:1284   */\n      add\n        /* \"#utility.yul\":1246:1298   */\n      tag_74\n      jump\t// in\n    tag_73:\n        /* \"#utility.yul\":1323:1352   */\n      tag_75\n        /* \"#utility.yul\":1345:1351   */\n      dup2\n        /* \"#utility.yul\":1323:1352   */\n      tag_76\n      jump\t// in\n    tag_75:\n        /* \"#utility.yul\":1318:1321   */\n      dup5\n        /* \"#utility.yul\":1314:1353   */\n      add\n        /* \"#utility.yul\":1307:1353   */\n      swap2\n      pop\n        /* \"#utility.yul\":1087:1359   */\n      pop\n        /* \"#utility.yul\":995:1359   */\n      swap3\n      swap2\n      pop\n      pop\n      jump\t// out\n        /* \"#utility.yul\":1365:1483   */\n    tag_77:\n        /* \"#utility.yul\":1452:1476   */\n      tag_79\n        /* \"#utility.yul\":1470:1475   */\n      dup2\n        /* \"#utility.yul\":1452:1476   */\n      tag_80\n      jump\t// in\n    tag_79:\n        /* \"#utility.yul\":1447:1450   */\n      dup3\n        /* \"#utility.yul\":1440:1477   */\n      mstore\n        /* \"#utility.yul\":1365:1483   */\n      pop\n      pop\n      jump\t// out\n        /* \"#utility.yul\":1489:2474   */\n    tag_24:\n        /* \"#utility.yul\":1774:1778   */\n      0x00\n        /* \"#utility.yul\":1812:1815   */\n      0xe0\n        /* \"#utility.yul\":1801:1810   */\n      dup3\n        /* \"#utility.yul\":1797:1816   */\n      add\n        /* \"#utility.yul\":1789:1816   */\n      swap1\n      pop\n        /* \"#utility.yul\":1826:1901   */\n      tag_82\n        /* \"#utility.yul\":1898:1899   */\n      0x00\n        /* \"#utility.yul\":1887:1896   */\n      dup4\n        /* \"#utility.yul\":1883:1900   */\n      add\n        /* \"#utility.yul\":1874:1880   */\n      dup11\n        /* \"#utility.yul\":1826:1901   */\n      tag_63\n      jump\t// in\n    tag_82:\n        /* \"#utility.yul\":1948:1957   */\n      dup2\n        /* \"#utility.yul\":1942:1946   */\n      dup2\n        /* \"#utility.yul\":1938:1958   */\n      sub\n        /* \"#utility.yul\":1933:1935   */\n      0x20\n        /* \"#utility.yul\":1922:1931   */\n      dup4\n        /* \"#utility.yul\":1918:1936   */\n      add\n        /* \"#utility.yul\":1911:1959   */\n      mstore\n        /* \"#utility.yul\":1976:2054   */\n      tag_83\n        /* \"#utility.yul\":2049:2053   */\n      dup2\n        /* \"#utility.yul\":2040:2046   */\n      dup10\n        /* \"#utility.yul\":1976:2054   */\n      tag_67\n      jump\t// in\n    tag_83:\n        /* \"#utility.yul\":1968:2054   */\n      swap1\n      pop\n        /* \"#utility.yul\":2064:2136   */\n      tag_84\n        /* \"#utility.yul\":2132:2134   */\n      0x40\n        /* \"#utility.yul\":2121:2130   */\n      dup4\n        /* \"#utility.yul\":2117:2135   */\n      add\n        /* \"#utility.yul\":2108:2114   */\n      dup9\n        /* \"#utility.yul\":2064:2136   */\n      tag_59\n      jump\t// in\n    tag_84:\n        /* \"#utility.yul\":2146:2218   */\n      tag_85\n        /* \"#utility.yul\":2214:2216   */\n      0x60\n        /* \"#utility.yul\":2203:2212   */\n      dup4\n        /* \"#utility.yul\":2199:2217   */\n      add\n        /* \"#utility.yul\":2190:2196   */\n      dup8\n        /* \"#utility.yul\":2146:2218   */\n      tag_77\n      jump\t// in\n    tag_85:\n        /* \"#utility.yul\":2228:2301   */\n      tag_86\n        /* \"#utility.yul\":2296:2299   */\n      0x80\n        /* \"#utility.yul\":2285:2294   */\n      dup4\n        /* \"#utility.yul\":2281:2300   */\n      add\n        /* \"#utility.yul\":2272:2278   */\n      dup7\n        /* \"#utility.yul\":2228:2301   */\n      tag_77\n      jump\t// in\n    tag_86:\n        /* \"#utility.yul\":2311:2384   */\n      tag_87\n        /* \"#utility.yul\":2379:2382   */\n      0xa0\n        /* \"#utility.yul\":2368:2377   */\n      dup4\n        /* \"#utility.yul\":2364:2383   */\n      add\n        /* \"#utility.yul\":2355:2361   */\n      dup6\n        /* \"#utility.yul\":2311:2384   */\n      tag_77\n      jump\t// in\n    tag_87:\n        /* \"#utility.yul\":2394:2467   */\n      tag_88\n        /* \"#utility.yul\":2462:2465   */\n      0xc0\n        /* \"#utility.yul\":2451:2460   */\n      dup4\n        /* \"#utility.yul\":2447:2466   */\n      add\n        /* \"#utility.yul\":2438:2444   */\n      dup5\n        /* \"#utility.yul\":2394:2467   */\n      tag_77\n      jump\t// in\n    tag_88:\n        /* \"#utility.yul\":1489:2474   */\n      swap9\n      swap8\n      pop\n      pop\n      pop\n      pop\n      pop\n      pop\n      pop\n      pop\n      jump\t// out\n        /* \"#utility.yul\":2480:3302   */\n    tag_16:\n        /* \"#utility.yul\":2713:2717   */\n      0x00\n        /* \"#utility.yul\":2751:2754   */\n      0xa0\n        /* \"#utility.yul\":2740:2749   */\n      dup3\n        /* \"#utility.yul\":2736:2755   */\n      add\n        /* \"#utility.yul\":2728:2755   */\n      swap1\n      pop\n        /* \"#utility.yul\":2801:2810   */\n      dup2\n        /* \"#utility.yul\":2795:2799   */\n      dup2\n        /* \"#utility.yul\":2791:2811   */\n      sub\n        /* \"#utility.yul\":2787:2788   */\n      0x00\n        /* \"#utility.yul\":2776:2785   */\n      dup4\n        /* \"#utility.yul\":2772:2789   */\n      add\n        /* \"#utility.yul\":2765:2812   */\n      mstore\n        /* \"#utility.yul\":2829:2907   */\n      tag_90\n        /* \"#utility.yul\":2902:2906   */\n      dup2\n        /* \"#utility.yul\":2893:2899   */\n      dup9\n        /* \"#utility.yul\":2829:2907   */\n      tag_67\n      jump\t// in\n    tag_90:\n        /* \"#utility.yul\":2821:2907   */\n      swap1\n      pop\n        /* \"#utility.yul\":2954:2963   */\n      dup2\n        /* \"#utility.yul\":2948:2952   */\n      dup2\n        /* \"#utility.yul\":2944:2964   */\n      sub\n        /* \"#utility.yul\":2939:2941   */\n      0x20\n        /* \"#utility.yul\":2928:2937   */\n      dup4\n        /* \"#utility.yul\":2924:2942   */\n      add\n        /* \"#utility.yul\":2917:2965   */\n      mstore\n        /* \"#utility.yul\":2982:3060   */\n      tag_91\n        /* \"#utility.yul\":3055:3059   */\n      dup2\n        /* \"#utility.yul\":3046:3052   */\n      dup8\n        /* \"#utility.yul\":2982:3060   */\n      tag_67\n      jump\t// in\n    tag_91:\n        /* \"#utility.yul\":2974:3060   */\n      swap1\n      pop\n        /* \"#utility.yul\":3070:3142   */\n      tag_92\n        /* \"#utility.yul\":3138:3140   */\n      0x40\n        /* \"#utility.yul\":3127:3136   */\n      dup4\n        /* \"#utility.yul\":3123:3141   */\n      add\n        /* \"#utility.yul\":3114:3120   */\n      dup7\n        /* \"#utility.yul\":3070:3142   */\n      tag_51\n      jump\t// in\n    tag_92:\n        /* \"#utility.yul\":3152:3218   */\n      tag_93\n        /* \"#utility.yul\":3214:3216   */\n      0x60\n        /* \"#utility.yul\":3203:3212   */\n      dup4\n        /* \"#utility.yul\":3199:3217   */\n      add\n        /* \"#utility.yul\":3190:3196   */\n      dup6\n        /* \"#utility.yul\":3152:3218   */\n      tag_55\n      jump\t// in\n    tag_93:\n        /* \"#utility.yul\":3228:3295   */\n      tag_94\n        /* \"#utility.yul\":3290:3293   */\n      0x80\n        /* \"#utility.yul\":3279:3288   */\n      dup4\n        /* \"#utility.yul\":3275:3294   */\n      add\n        /* \"#utility.yul\":3266:3272   */\n      dup5\n        /* \"#utility.yul\":3228:3295   */\n      tag_55\n      jump\t// in\n    tag_94:\n        /* \"#utility.yul\":2480:3302   */\n      swap7\n      swap6\n      pop\n      pop\n      pop\n      pop\n      pop\n      pop\n      jump\t// out\n        /* \"#utility.yul\":3308:3530   */\n    tag_10:\n        /* \"#utility.yul\":3401:3405   */\n      0x00\n        /* \"#utility.yul\":3439:3441   */\n      0x20\n        /* \"#utility.yul\":3428:3437   */\n      dup3\n        /* \"#utility.yul\":3424:3442   */\n      add\n        /* \"#utility.yul\":3416:3442   */\n      swap1\n      pop\n        /* \"#utility.yul\":3452:3523   */\n      tag_96\n        /* \"#utility.yul\":3520:3521   */\n      0x00\n        /* \"#utility.yul\":3509:3518   */\n      dup4\n        /* \"#utility.yul\":3505:3522   */\n      add\n        /* \"#utility.yul\":3496:3502   */\n      dup5\n        /* \"#utility.yul\":3452:3523   */\n      tag_77\n      jump\t// in\n    tag_96:\n        /* \"#utility.yul\":3308:3530   */\n      swap3\n      swap2\n      pop\n      pop\n      jump\t// out\n        /* \"#utility.yul\":3617:3716   */\n    tag_70:\n        /* \"#utility.yul\":3669:3675   */\n      0x00\n        /* \"#utility.yul\":3703:3708   */\n      dup2\n        /* \"#utility.yul\":3697:3709   */\n      mload\n        /* \"#utility.yul\":3687:3709   */\n      swap1\n      pop\n        /* \"#utility.yul\":3617:3716   */\n      swap2\n      swap1\n      pop\n      jump\t// out\n        /* \"#utility.yul\":3722:3891   */\n    tag_72:\n        /* \"#utility.yul\":3806:3817   */\n      0x00\n        /* \"#utility.yul\":3840:3846   */\n      dup3\n        /* \"#utility.yul\":3835:3838   */\n      dup3\n        /* \"#utility.yul\":3828:3847   */\n      mstore\n        /* \"#utility.yul\":3880:3884   */\n      0x20\n        /* \"#utility.yul\":3875:3878   */\n      dup3\n        /* \"#utility.yul\":3871:3885   */\n      add\n        /* \"#utility.yul\":3856:3885   */\n      swap1\n      pop\n        /* \"#utility.yul\":3722:3891   */\n      swap3\n      swap2\n      pop\n      pop\n      jump\t// out\n        /* \"#utility.yul\":3897:3993   */\n    tag_54:\n        /* \"#utility.yul\":3934:3941   */\n      0x00\n        /* \"#utility.yul\":3963:3987   */\n      tag_102\n        /* \"#utility.yul\":3981:3986   */\n      dup3\n        /* \"#utility.yul\":3963:3987   */\n      tag_103\n      jump\t// in\n    tag_102:\n        /* \"#utility.yul\":3952:3987   */\n      swap1\n      pop\n        /* \"#utility.yul\":3897:3993   */\n      swap2\n      swap1\n      pop\n      jump\t// out\n        /* \"#utility.yul\":3999:4089   */\n    tag_58:\n        /* \"#utility.yul\":4033:4040   */\n      0x00\n        /* \"#utility.yul\":4076:4081   */\n      dup2\n        /* \"#utility.yul\":4069:4082   */\n      iszero\n        /* \"#utility.yul\":4062:4083   */\n      iszero\n        /* \"#utility.yul\":4051:4083   */\n      swap1\n      pop\n        /* \"#utility.yul\":3999:4089   */\n      swap2\n      swap1\n      pop\n      jump\t// out\n        /* \"#utility.yul\":4095:4172   */\n    tag_62:\n        /* \"#utility.yul\":4132:4139   */\n      0x00\n        /* \"#utility.yul\":4161:4166   */\n      dup2\n        /* \"#utility.yul\":4150:4166   */\n      swap1\n      pop\n        /* \"#utility.yul\":4095:4172   */\n      swap2\n      swap1\n      pop\n      jump\t// out\n        /* \"#utility.yul\":4178:4301   */\n    tag_106:\n        /* \"#utility.yul\":4221:4228   */\n      0x00\n        /* \"#utility.yul\":4250:4255   */\n      dup2\n        /* \"#utility.yul\":4239:4255   */\n      swap1\n      pop\n        /* \"#utility.yul\":4256:4295   */\n      tag_108\n        /* \"#utility.yul\":4289:4294   */\n      dup3\n        /* \"#utility.yul\":4256:4295   */\n      tag_109\n      jump\t// in\n    tag_108:\n        /* \"#utility.yul\":4178:4301   */\n      swap2\n      swap1\n      pop\n      jump\t// out\n        /* \"#utility.yul\":4307:4433   */\n    tag_103:\n        /* \"#utility.yul\":4344:4351   */\n      0x00\n        /* \"#utility.yul\":4384:4426   */\n      0xffffffffffffffffffffffffffffffffffffffff\n        /* \"#utility.yul\":4377:4382   */\n      dup3\n        /* \"#utility.yul\":4373:4427   */\n      and\n        /* \"#utility.yul\":4362:4427   */\n      swap1\n      pop\n        /* \"#utility.yul\":4307:4433   */\n      swap2\n      swap1\n      pop\n      jump\t// out\n        /* \"#utility.yul\":4439:4516   */\n    tag_80:\n        /* \"#utility.yul\":4476:4483   */\n      0x00\n        /* \"#utility.yul\":4505:4510   */\n      dup2\n        /* \"#utility.yul\":4494:4510   */\n      swap1\n      pop\n        /* \"#utility.yul\":4439:4516   */\n      swap2\n      swap1\n      pop\n      jump\t// out\n        /* \"#utility.yul\":4522:4645   */\n    tag_66:\n        /* \"#utility.yul\":4576:4585   */\n      0x00\n        /* \"#utility.yul\":4609:4639   */\n      tag_113\n        /* \"#utility.yul\":4633:4638   */\n      dup3\n        /* \"#utility.yul\":4609:4639   */\n      tag_106\n      jump\t// in\n    tag_113:\n        /* \"#utility.yul\":4596:4639   */\n      swap1\n      pop\n        /* \"#utility.yul\":4522:4645   */\n      swap2\n      swap1\n      pop\n      jump\t// out\n        /* \"#utility.yul\":4651:4958   */\n    tag_74:\n        /* \"#utility.yul\":4719:4720   */\n      0x00\n        /* \"#utility.yul\":4729:4842   */\n    tag_115:\n        /* \"#utility.yul\":4743:4749   */\n      dup4\n        /* \"#utility.yul\":4740:4741   */\n      dup2\n        /* \"#utility.yul\":4737:4750   */\n      lt\n        /* \"#utility.yul\":4729:4842   */\n      iszero\n      tag_117\n      jumpi\n        /* \"#utility.yul\":4828:4829   */\n      dup1\n        /* \"#utility.yul\":4823:4826   */\n      dup3\n        /* \"#utility.yul\":4819:4830   */\n      add\n        /* \"#utility.yul\":4813:4831   */\n      mload\n        /* \"#utility.yul\":4809:4810   */\n      dup2\n        /* \"#utility.yul\":4804:4807   */\n      dup5\n        /* \"#utility.yul\":4800:4811   */\n      add\n        /* \"#utility.yul\":4793:4832   */\n      mstore\n        /* \"#utility.yul\":4765:4767   */\n      0x20\n        /* \"#utility.yul\":4762:4763   */\n      dup2\n        /* \"#utility.yul\":4758:4768   */\n      add\n        /* \"#utility.yul\":4753:4768   */\n      swap1\n      pop\n        /* \"#utility.yul\":4729:4842   */\n      jump(tag_115)\n    tag_117:\n        /* \"#utility.yul\":4860:4866   */\n      dup4\n        /* \"#utility.yul\":4857:4858   */\n      dup2\n        /* \"#utility.yul\":4854:4867   */\n      gt\n        /* \"#utility.yul\":4851:4952   */\n      iszero\n      tag_118\n      jumpi\n        /* \"#utility.yul\":4940:4941   */\n      0x00\n        /* \"#utility.yul\":4931:4937   */\n      dup5\n        /* \"#utility.yul\":4926:4929   */\n      dup5\n        /* \"#utility.yul\":4922:4938   */\n      add\n        /* \"#utility.yul\":4915:4942   */\n      mstore\n        /* \"#utility.yul\":4851:4952   */\n    tag_118:\n        /* \"#utility.yul\":4700:4958   */\n      pop\n        /* \"#utility.yul\":4651:4958   */\n      pop\n      pop\n      pop\n      jump\t// out\n        /* \"#utility.yul\":4964:5284   */\n    tag_26:\n        /* \"#utility.yul\":5008:5014   */\n      0x00\n        /* \"#utility.yul\":5045:5046   */\n      0x02\n        /* \"#utility.yul\":5039:5043   */\n      dup3\n        /* \"#utility.yul\":5035:5047   */\n      div\n        /* \"#utility.yul\":5025:5047   */\n      swap1\n      pop\n        /* \"#utility.yul\":5092:5093   */\n      0x01\n        /* \"#utility.yul\":5086:5090   */\n      dup3\n        /* \"#utility.yul\":5082:5094   */\n      and\n        /* \"#utility.yul\":5113:5131   */\n      dup1\n        /* \"#utility.yul\":5103:5184   */\n      tag_120\n      jumpi\n        /* \"#utility.yul\":5169:5173   */\n      0x7f\n        /* \"#utility.yul\":5161:5167   */\n      dup3\n        /* \"#utility.yul\":5157:5174   */\n      and\n        /* \"#utility.yul\":5147:5174   */\n      swap2\n      pop\n        /* \"#utility.yul\":5103:5184   */\n    tag_120:\n        /* \"#utility.yul\":5231:5233   */\n      0x20\n        /* \"#utility.yul\":5223:5229   */\n      dup3\n        /* \"#utility.yul\":5220:5234   */\n      lt\n        /* \"#utility.yul\":5200:5218   */\n      dup2\n        /* \"#utility.yul\":5197:5235   */\n      eq\n        /* \"#utility.yul\":5194:5278   */\n      iszero\n      tag_121\n      jumpi\n        /* \"#utility.yul\":5250:5268   */\n      tag_122\n      tag_123\n      jump\t// in\n    tag_122:\n        /* \"#utility.yul\":5194:5278   */\n    tag_121:\n        /* \"#utility.yul\":5015:5284   */\n      pop\n        /* \"#utility.yul\":4964:5284   */\n      swap2\n      swap1\n      pop\n      jump\t// out\n        /* \"#utility.yul\":5290:5470   */\n    tag_124:\n        /* \"#utility.yul\":5338:5415   */\n      0x4e487b7100000000000000000000000000000000000000000000000000000000\n        /* \"#utility.yul\":5335:5336   */\n      0x00\n        /* \"#utility.yul\":5328:5416   */\n      mstore\n        /* \"#utility.yul\":5435:5439   */\n      0x21\n        /* \"#utility.yul\":5432:5433   */\n      0x04\n        /* \"#utility.yul\":5425:5440   */\n      mstore\n        /* \"#utility.yul\":5459:5463   */\n      0x24\n        /* \"#utility.yul\":5456:5457   */\n      0x00\n        /* \"#utility.yul\":5449:5464   */\n      revert\n        /* \"#utility.yul\":5476:5656   */\n    tag_123:\n        /* \"#utility.yul\":5524:5601   */\n      0x4e487b7100000000000000000000000000000000000000000000000000000000\n        /* \"#utility.yul\":5521:5522   */\n      0x00\n        /* \"#utility.yul\":5514:5602   */\n      mstore\n        /* \"#utility.yul\":5621:5625   */\n      0x22\n        /* \"#utility.yul\":5618:5619   */\n      0x04\n        /* \"#utility.yul\":5611:5626   */\n      mstore\n        /* \"#utility.yul\":5645:5649   */\n      0x24\n        /* \"#utility.yul\":5642:5643   */\n      0x00\n        /* \"#utility.yul\":5635:5650   */\n      revert\n        /* \"#utility.yul\":5785:5902   */\n    tag_49:\n        /* \"#utility.yul\":5894:5895   */\n      0x00\n        /* \"#utility.yul\":5891:5892   */\n      dup1\n        /* \"#utility.yul\":5884:5896   */\n      revert\n        /* \"#utility.yul\":5908:6010   */\n    tag_76:\n        /* \"#utility.yul\":5949:5955   */\n      0x00\n        /* \"#utility.yul\":6000:6002   */\n      0x1f\n        /* \"#utility.yul\":5996:6003   */\n      not\n        /* \"#utility.yul\":5991:5993   */\n      0x1f\n        /* \"#utility.yul\":5984:5989   */\n      dup4\n        /* \"#utility.yul\":5980:5994   */\n      add\n        /* \"#utility.yul\":5976:6004   */\n      and\n        /* \"#utility.yul\":5966:6004   */\n      swap1\n      pop\n        /* \"#utility.yul\":5908:6010   */\n      swap2\n      swap1\n      pop\n      jump\t// out\n        /* \"#utility.yul\":6016:6127   */\n    tag_109:\n        /* \"#utility.yul\":6095:6096   */\n      0x05\n        /* \"#utility.yul\":6088:6093   */\n      dup2\n        /* \"#utility.yul\":6085:6097   */\n      lt\n        /* \"#utility.yul\":6075:6121   */\n      tag_132\n      jumpi\n        /* \"#utility.yul\":6101:6119   */\n      tag_133\n      tag_124\n      jump\t// in\n    tag_133:\n        /* \"#utility.yul\":6075:6121   */\n    tag_132:\n        /* \"#utility.yul\":6016:6127   */\n      pop\n      jump\t// out\n        /* \"#utility.yul\":6133:6255   */\n    tag_45:\n        /* \"#utility.yul\":6206:6230   */\n      tag_135\n        /* \"#utility.yul\":6224:6229   */\n      dup2\n        /* \"#utility.yul\":6206:6230   */\n      tag_54\n      jump\t// in\n    tag_135:\n        /* \"#utility.yul\":6199:6204   */\n      dup2\n        /* \"#utility.yul\":6196:6231   */\n      eq\n        /* \"#utility.yul\":6186:6249   */\n      tag_136\n      jumpi\n        /* \"#utility.yul\":6245:6246   */\n      0x00\n        /* \"#utility.yul\":6242:6243   */\n      dup1\n        /* \"#utility.yul\":6235:6247   */\n      revert\n        /* \"#utility.yul\":6186:6249   */\n    tag_136:\n        /* \"#utility.yul\":6133:6255   */\n      pop\n      jump\t// out\n\n    auxdata: 0xa2646970667358221220175a5ff71f6ad4d3f80f674478d4a2176b199c1c405a3e445a2b198c38641f6c64736f6c63430008070033\n}\n",
				"bytecode": {
					"linkReferences": {},
					"object": "6080604052632cb41780600255620186a060035534801561001f57600080fd5b506106df8061002f6000396000f3fe608060405234801561001057600080fd5b506004361061004c5760003560e01c80630761c8b91461005157806323b2265f1461006f578063948942ad146100a3578063fc837259146100c1575b600080fd5b6100596100f7565b60405161006691906104f7565b60405180910390f35b6100896004803603810190610084919061036f565b6100fd565b60405161009a959493929190610496565b60405180910390f35b6100ab61027d565b6040516100b891906104f7565b60405180910390f35b6100db60048036038101906100d6919061036f565b610283565b6040516100ee9796959493929190610420565b60405180910390f35b60025481565b6005602052806000526040600020600091509050806000018054610120906105d8565b80601f016020809104026020016040519081016040528092919081815260200182805461014c906105d8565b80156101995780601f1061016e57610100808354040283529160200191610199565b820191906000526020600020905b81548152906001019060200180831161017c57829003601f168201915b5050505050908060010180546101ae906105d8565b80601f01602080910402602001604051908101604052809291908181526020018280546101da906105d8565b80156102275780601f106101fc57610100808354040283529160200191610227565b820191906000526020600020905b81548152906001019060200180831161020a57829003601f168201915b5050505050908060020160009054906101000a900473ffffffffffffffffffffffffffffffffffffffff16908060020160149054906101000a900460ff16908060020160159054906101000a900460ff16905085565b60035481565b60006020528060005260406000206000915090508060000160009054906101000a900460ff16908060010180546102b9906105d8565b80601f01602080910402602001604051908101604052809291908181526020018280546102e5906105d8565b80156103325780601f1061030757610100808354040283529160200191610332565b820191906000526020600020905b81548152906001019060200180831161031557829003601f168201915b5050505050908060020154908060030154908060040154908060050154908060060154905087565b60008135905061036981610692565b92915050565b60006020828403121561038557610384610668565b5b60006103938482850161035a565b91505092915050565b6103a58161052e565b82525050565b6103b481610540565b82525050565b6103c38161054c565b82525050565b6103d281610593565b82525050565b60006103e382610512565b6103ed818561051d565b93506103fd8185602086016105a5565b6104068161066d565b840191505092915050565b61041a81610589565b82525050565b600060e082019050610435600083018a6103c9565b818103602083015261044781896103d8565b905061045660408301886103ba565b6104636060830187610411565b6104706080830186610411565b61047d60a0830185610411565b61048a60c0830184610411565b98975050505050505050565b600060a08201905081810360008301526104b081886103d8565b905081810360208301526104c481876103d8565b90506104d3604083018661039c565b6104e060608301856103ab565b6104ed60808301846103ab565b9695505050505050565b600060208201905061050c6000830184610411565b92915050565b600081519050919050565b600082825260208201905092915050565b600061053982610569565b9050919050565b60008115159050919050565b6000819050919050565b60008190506105648261067e565b919050565b600073ffffffffffffffffffffffffffffffffffffffff82169050919050565b6000819050919050565b600061059e82610556565b9050919050565b60005b838110156105c35780820151818401526020810190506105a8565b838111156105d2576000848401525b50505050565b600060028204905060018216806105f057607f821691505b6020821081141561060457610603610639565b5b50919050565b7f4e487b7100000000000000000000000000000000000000000000000000000000600052602160045260246000fd5b7f4e487b7100000000000000000000000000000000000000000000000000000000600052602260045260246000fd5b600080fd5b6000601f19601f8301169050919050565b6005811061068f5761068e61060a565b5b50565b61069b8161052e565b81146106a657600080fd5b5056fea2646970667358221220175a5ff71f6ad4d3f80f674478d4a2176b199c1c405a3e445a2b198c38641f6c64736f6c63430008070033",
					"opcodes": "PUSH1 0x80 PUSH1 0x40 MSTORE PUSH4 0x2CB41780 PUSH1 0x2 SSTORE PUSH3 0x186A0 PUSH1 0x3 SSTORE CALLVALUE DUP1 ISZERO PUSH2 0x1F JUMPI PUSH1 0x0 DUP1 REVERT JUMPDEST POP PUSH2 0x6DF DUP1 PUSH2 0x2F PUSH1 0x0 CODECOPY PUSH1 0x0 RETURN INVALID PUSH1 0x80 PUSH1 0x40 MSTORE CALLVALUE DUP1 ISZERO PUSH2 0x10 JUMPI PUSH1 0x0 DUP1 REVERT JUMPDEST POP PUSH1 0x4 CALLDATASIZE LT PUSH2 0x4C JUMPI PUSH1 0x0 CALLDATALOAD PUSH1 0xE0 SHR DUP1 PUSH4 0x761C8B9 EQ PUSH2 0x51 JUMPI DUP1 PUSH4 0x23B2265F EQ PUSH2 0x6F JUMPI DUP1 PUSH4 0x948942AD EQ PUSH2 0xA3 JUMPI DUP1 PUSH4 0xFC837259 EQ PUSH2 0xC1 JUMPI JUMPDEST PUSH1 0x0 DUP1 REVERT JUMPDEST PUSH2 0x59 PUSH2 0xF7 JUMP JUMPDEST PUSH1 0x40 MLOAD PUSH2 0x66 SWAP2 SWAP1 PUSH2 0x4F7 JUMP JUMPDEST PUSH1 0x40 MLOAD DUP1 SWAP2 SUB SWAP1 RETURN JUMPDEST PUSH2 0x89 PUSH1 0x4 DUP1 CALLDATASIZE SUB DUP2 ADD SWAP1 PUSH2 0x84 SWAP2 SWAP1 PUSH2 0x36F JUMP JUMPDEST PUSH2 0xFD JUMP JUMPDEST PUSH1 0x40 MLOAD PUSH2 0x9A SWAP6 SWAP5 SWAP4 SWAP3 SWAP2 SWAP1 PUSH2 0x496 JUMP JUMPDEST PUSH1 0x40 MLOAD DUP1 SWAP2 SUB SWAP1 RETURN JUMPDEST PUSH2 0xAB PUSH2 0x27D JUMP JUMPDEST PUSH1 0x40 MLOAD PUSH2 0xB8 SWAP2 SWAP1 PUSH2 0x4F7 JUMP JUMPDEST PUSH1 0x40 MLOAD DUP1 SWAP2 SUB SWAP1 RETURN JUMPDEST PUSH2 0xDB PUSH1 0x4 DUP1 CALLDATASIZE SUB DUP2 ADD SWAP1 PUSH2 0xD6 SWAP2 SWAP1 PUSH2 0x36F JUMP JUMPDEST PUSH2 0x283 JUMP JUMPDEST PUSH1 0x40 MLOAD PUSH2 0xEE SWAP8 SWAP7 SWAP6 SWAP5 SWAP4 SWAP3 SWAP2 SWAP1 PUSH2 0x420 JUMP JUMPDEST PUSH1 0x40 MLOAD DUP1 SWAP2 SUB SWAP1 RETURN JUMPDEST PUSH1 0x2 SLOAD DUP2 JUMP JUMPDEST PUSH1 0x5 PUSH1 0x20 MSTORE DUP1 PUSH1 0x0 MSTORE PUSH1 0x40 PUSH1 0x0 KECCAK256 PUSH1 0x0 SWAP2 POP SWAP1 POP DUP1 PUSH1 0x0 ADD DUP1 SLOAD PUSH2 0x120 SWAP1 PUSH2 0x5D8 JUMP JUMPDEST DUP1 PUSH1 0x1F ADD PUSH1 0x20 DUP1 SWAP2 DIV MUL PUSH1 0x20 ADD PUSH1 0x40 MLOAD SWAP1 DUP2 ADD PUSH1 0x40 MSTORE DUP1 SWAP3 SWAP2 SWAP1 DUP2 DUP2 MSTORE PUSH1 0x20 ADD DUP3 DUP1 SLOAD PUSH2 0x14C SWAP1 PUSH2 0x5D8 JUMP JUMPDEST DUP1 ISZERO PUSH2 0x199 JUMPI DUP1 PUSH1 0x1F LT PUSH2 0x16E JUMPI PUSH2 0x100 DUP1 DUP4 SLOAD DIV MUL DUP4 MSTORE SWAP2 PUSH1 0x20 ADD SWAP2 PUSH2 0x199 JUMP JUMPDEST DUP3 ADD SWAP2 SWAP1 PUSH1 0x0 MSTORE PUSH1 0x20 PUSH1 0x0 KECCAK256 SWAP1 JUMPDEST DUP2 SLOAD DUP2 MSTORE SWAP1 PUSH1 0x1 ADD SWAP1 PUSH1 0x20 ADD DUP1 DUP4 GT PUSH2 0x17C JUMPI DUP3 SWAP1 SUB PUSH1 0x1F AND DUP3 ADD SWAP2 JUMPDEST POP POP POP POP POP SWAP1 DUP1 PUSH1 0x1 ADD DUP1 SLOAD PUSH2 0x1AE SWAP1 PUSH2 0x5D8 JUMP JUMPDEST DUP1 PUSH1 0x1F ADD PUSH1 0x20 DUP1 SWAP2 DIV MUL PUSH1 0x20 ADD PUSH1 0x40 MLOAD SWAP1 DUP2 ADD PUSH1 0x40 MSTORE DUP1 SWAP3 SWAP2 SWAP1 DUP2 DUP2 MSTORE PUSH1 0x20 ADD DUP3 DUP1 SLOAD PUSH2 0x1DA SWAP1 PUSH2 0x5D8 JUMP JUMPDEST DUP1 ISZERO PUSH2 0x227 JUMPI DUP1 PUSH1 0x1F LT PUSH2 0x1FC JUMPI PUSH2 0x100 DUP1 DUP4 SLOAD DIV MUL DUP4 MSTORE SWAP2 PUSH1 0x20 ADD SWAP2 PUSH2 0x227 JUMP JUMPDEST DUP3 ADD SWAP2 SWAP1 PUSH1 0x0 MSTORE PUSH1 0x20 PUSH1 0x0 KECCAK256 SWAP1 JUMPDEST DUP2 SLOAD DUP2 MSTORE SWAP1 PUSH1 0x1 ADD SWAP1 PUSH1 0x20 ADD DUP1 DUP4 GT PUSH2 0x20A JUMPI DUP3 SWAP1 SUB PUSH1 0x1F AND DUP3 ADD SWAP2 JUMPDEST POP POP POP POP POP SWAP1 DUP1 PUSH1 0x2 ADD PUSH1 0x0 SWAP1 SLOAD SWAP1 PUSH2 0x100 EXP SWAP1 DIV PUSH20 0xFFFFFFFFFFFFFFFFFFFFFFFFFFFFFFFFFFFFFFFF AND SWAP1 DUP1 PUSH1 0x2 ADD PUSH1 0x14 SWAP1 SLOAD SWAP1 PUSH2 0x100 EXP SWAP1 DIV PUSH1 0xFF AND SWAP1 DUP1 PUSH1 0x2 ADD PUSH1 0x15 SWAP1 SLOAD SWAP1 PUSH2 0x100 EXP SWAP1 DIV PUSH1 0xFF AND SWAP1 POP DUP6 JUMP JUMPDEST PUSH1 0x3 SLOAD DUP2 JUMP JUMPDEST PUSH1 0x0 PUSH1 0x20 MSTORE DUP1 PUSH1 0x0 MSTORE PUSH1 0x40 PUSH1 0x0 KECCAK256 PUSH1 0x0 SWAP2 POP SWAP1 POP DUP1 PUSH1 0x0 ADD PUSH1 0x0 SWAP1 SLOAD SWAP1 PUSH2 0x100 EXP SWAP1 DIV PUSH1 0xFF AND SWAP1 DUP1 PUSH1 0x1 ADD DUP1 SLOAD PUSH2 0x2B9 SWAP1 PUSH2 0x5D8 JUMP JUMPDEST DUP1 PUSH1 0x1F ADD PUSH1 0x20 DUP1 SWAP2 DIV MUL PUSH1 0x20 ADD PUSH1 0x40 MLOAD SWAP1 DUP2 ADD PUSH1 0x40 MSTORE DUP1 SWAP3 SWAP2 SWAP1 DUP2 DUP2 MSTORE PUSH1 0x20 ADD DUP3 DUP1 SLOAD PUSH2 0x2E5 SWAP1 PUSH2 0x5D8 JUMP JUMPDEST DUP1 ISZERO PUSH2 0x332 JUMPI DUP1 PUSH1 0x1F LT PUSH2 0x307 JUMPI PUSH2 0x100 DUP1 DUP4 SLOAD DIV MUL DUP4 MSTORE SWAP2 PUSH1 0x20 ADD SWAP2 PUSH2 0x332 JUMP JUMPDEST DUP3 ADD SWAP2 SWAP1 PUSH1 0x0 MSTORE PUSH1 0x20 PUSH1 0x0 KECCAK256 SWAP1 JUMPDEST DUP2 SLOAD DUP2 MSTORE SWAP1 PUSH1 0x1 ADD SWAP1 PUSH1 0x20 ADD DUP1 DUP4 GT PUSH2 0x315 JUMPI DUP3 SWAP1 SUB PUSH1 0x1F AND DUP3 ADD SWAP2 JUMPDEST POP POP POP POP POP SWAP1 DUP1 PUSH1 0x2 ADD SLOAD SWAP1 DUP1 PUSH1 0x3 ADD SLOAD SWAP1 DUP1 PUSH1 0x4 ADD SLOAD SWAP1 DUP1 PUSH1 0x5 ADD SLOAD SWAP1 DUP1 PUSH1 0x6 ADD SLOAD SWAP1 POP DUP8 JUMP JUMPDEST PUSH1 0x0 DUP2 CALLDATALOAD SWAP1 POP PUSH2 0x369 DUP2 PUSH2 0x692 JUMP JUMPDEST SWAP3 SWAP2 POP POP JUMP JUMPDEST PUSH1 0x0 PUSH1 0x20 DUP3 DUP5 SUB SLT ISZERO PUSH2 0x385 JUMPI PUSH2 0x384 PUSH2 0x668 JUMP JUMPDEST JUMPDEST PUSH1 0x0 PUSH2 0x393 DUP5 DUP3 DUP6 ADD PUSH2 0x35A JUMP JUMPDEST SWAP2 POP POP SWAP3 SWAP2 POP POP JUMP JUMPDEST PUSH2 0x3A5 DUP2 PUSH2 0x52E JUMP JUMPDEST DUP3 MSTORE POP POP JUMP JUMPDEST PUSH2 0x3B4 DUP2 PUSH2 0x540 JUMP JUMPDEST DUP3 MSTORE POP POP JUMP JUMPDEST PUSH2 0x3C3 DUP2 PUSH2 0x54C JUMP JUMPDEST DUP3 MSTORE POP POP JUMP JUMPDEST PUSH2 0x3D2 DUP2 PUSH2 0x593 JUMP JUMPDEST DUP3 MSTORE POP POP JUMP JUMPDEST PUSH1 0x0 PUSH2 0x3E3 DUP3 PUSH2 0x512 JUMP JUMPDEST PUSH2 0x3ED DUP2 DUP6 PUSH2 0x51D JUMP JUMPDEST SWAP4 POP PUSH2 0x3FD DUP2 DUP6 PUSH1 0x20 DUP7 ADD PUSH2 0x5A5 JUMP JUMPDEST PUSH2 0x406 DUP2 PUSH2 0x66D JUMP JUMPDEST DUP5 ADD SWAP2 POP POP SWAP3 SWAP2 POP POP JUMP JUMPDEST PUSH2 0x41A DUP2 PUSH2 0x589 JUMP JUMPDEST DUP3 MSTORE POP POP JUMP JUMPDEST PUSH1 0x0 PUSH1 0xE0 DUP3 ADD SWAP1 POP PUSH2 0x435 PUSH1 0x0 DUP4 ADD DUP11 PUSH2 0x3C9 JUMP JUMPDEST DUP2 DUP2 SUB PUSH1 0x20 DUP4 ADD MSTORE PUSH2 0x447 DUP2 DUP10 PUSH2 0x3D8 JUMP JUMPDEST SWAP1 POP PUSH2 0x456 PUSH1 0x40 DUP4 ADD DUP9 PUSH2 0x3BA JUMP JUMPDEST PUSH2 0x463 PUSH1 0x60 DUP4 ADD DUP8 PUSH2 0x411 JUMP JUMPDEST PUSH2 0x470 PUSH1 0x80 DUP4 ADD DUP7 PUSH2 0x411 JUMP JUMPDEST PUSH2 0x47D PUSH1 0xA0 DUP4 ADD DUP6 PUSH2 0x411 JUMP JUMPDEST PUSH2 0x48A PUSH1 0xC0 DUP4 ADD DUP5 PUSH2 0x411 JUMP JUMPDEST SWAP9 SWAP8 POP POP POP POP POP POP POP POP JUMP JUMPDEST PUSH1 0x0 PUSH1 0xA0 DUP3 ADD SWAP1 POP DUP2 DUP2 SUB PUSH1 0x0 DUP4 ADD MSTORE PUSH2 0x4B0 DUP2 DUP9 PUSH2 0x3D8 JUMP JUMPDEST SWAP1 POP DUP2 DUP2 SUB PUSH1 0x20 DUP4 ADD MSTORE PUSH2 0x4C4 DUP2 DUP8 PUSH2 0x3D8 JUMP JUMPDEST SWAP1 POP PUSH2 0x4D3 PUSH1 0x40 DUP4 ADD DUP7 PUSH2 0x39C JUMP JUMPDEST PUSH2 0x4E0 PUSH1 0x60 DUP4 ADD DUP6 PUSH2 0x3AB JUMP JUMPDEST PUSH2 0x4ED PUSH1 0x80 DUP4 ADD DUP5 PUSH2 0x3AB JUMP JUMPDEST SWAP7 SWAP6 POP POP POP POP POP POP JUMP JUMPDEST PUSH1 0x0 PUSH1 0x20 DUP3 ADD SWAP1 POP PUSH2 0x50C PUSH1 0x0 DUP4 ADD DUP5 PUSH2 0x411 JUMP JUMPDEST SWAP3 SWAP2 POP POP JUMP JUMPDEST PUSH1 0x0 DUP2 MLOAD SWAP1 POP SWAP2 SWAP1 POP JUMP JUMPDEST PUSH1 0x0 DUP3 DUP3 MSTORE PUSH1 0x20 DUP3 ADD SWAP1 POP SWAP3 SWAP2 POP POP JUMP JUMPDEST PUSH1 0x0 PUSH2 0x539 DUP3 PUSH2 0x569 JUMP JUMPDEST SWAP1 POP SWAP2 SWAP1 POP JUMP JUMPDEST PUSH1 0x0 DUP2 ISZERO ISZERO SWAP1 POP SWAP2 SWAP1 POP JUMP JUMPDEST PUSH1 0x0 DUP2 SWAP1 POP SWAP2 SWAP1 POP JUMP JUMPDEST PUSH1 0x0 DUP2 SWAP1 POP PUSH2 0x564 DUP3 PUSH2 0x67E JUMP JUMPDEST SWAP2 SWAP1 POP JUMP JUMPDEST PUSH1 0x0 PUSH20 0xFFFFFFFFFFFFFFFFFFFFFFFFFFFFFFFFFFFFFFFF DUP3 AND SWAP1 POP SWAP2 SWAP1 POP JUMP JUMPDEST PUSH1 0x0 DUP2 SWAP1 POP SWAP2 SWAP1 POP JUMP JUMPDEST PUSH1 0x0 PUSH2 0x59E DUP3 PUSH2 0x556 JUMP JUMPDEST SWAP1 POP SWAP2 SWAP1 POP JUMP JUMPDEST PUSH1 0x0 JUMPDEST DUP4 DUP2 LT ISZERO PUSH2 0x5C3 JUMPI DUP1 DUP3 ADD MLOAD DUP2 DUP5 ADD MSTORE PUSH1 0x20 DUP2 ADD SWAP1 POP PUSH2 0x5A8 JUMP JUMPDEST DUP4 DUP2 GT ISZERO PUSH2 0x5D2 JUMPI PUSH1 0x0 DUP5 DUP5 ADD MSTORE JUMPDEST POP POP POP POP JUMP JUMPDEST PUSH1 0x0 PUSH1 0x2 DUP3 DIV SWAP1 POP PUSH1 0x1 DUP3 AND DUP1 PUSH2 0x5F0 JUMPI PUSH1 0x7F DUP3 AND SWAP2 POP JUMPDEST PUSH1 0x20 DUP3 LT DUP2 EQ ISZERO PUSH2 0x604 JUMPI PUSH2 0x603 PUSH2 0x639 JUMP JUMPDEST JUMPDEST POP SWAP2 SWAP1 POP JUMP JUMPDEST PUSH32 0x4E487B7100000000000000000000000000000000000000000000000000000000 PUSH1 0x0 MSTORE PUSH1 0x21 PUSH1 0x4 MSTORE PUSH1 0x24 PUSH1 0x0 REVERT JUMPDEST PUSH32 0x4E487B7100000000000000000000000000000000000000000000000000000000 PUSH1 0x0 MSTORE PUSH1 0x22 PUSH1 0x4 MSTORE PUSH1 0x24 PUSH1 0x0 REVERT JUMPDEST PUSH1 0x0 DUP1 REVERT JUMPDEST PUSH1 0x0 PUSH1 0x1F NOT PUSH1 0x1F DUP4 ADD AND SWAP1 POP SWAP2 SWAP1 POP JUMP JUMPDEST PUSH1 0x5 DUP2 LT PUSH2 0x68F JUMPI PUSH2 0x68E PUSH2 0x60A JUMP JUMPDEST JUMPDEST POP JUMP JUMPDEST PUSH2 0x69B DUP2 PUSH2 0x52E JUMP JUMPDEST DUP2 EQ PUSH2 0x6A6 JUMPI PUSH1 0x0 DUP1 REVERT JUMPDEST POP JUMP INVALID LOG2 PUSH5 0x6970667358 0x22 SLT KECCAK256 OR GAS 0x5F 0xF7 0x1F PUSH11 0xD4D3F80F674478D4A2176B NOT SWAP13 SHR BLOCKHASH GAS RETURNDATACOPY DIFFICULTY GAS 0x2B NOT DUP13 CODESIZE PUSH5 0x1F6C64736F PUSH13 0x63430008070033000000000000 "
				},
				"gasEstimates": {
					"creation": {
						"codeDepositCost": "351800",
						"executionCost": "44598",
						"totalCost": "396398"
					},
					"external": {
						"strucApplications_(address)": "infinite",
						"structUsers_(address)": "infinite",
						"tokenAmount_()": "2451",
						"tokenPrice_()": "2407"
					}
				},
				"methodIdentifiers": {
					"strucApplications_(address)": "23b2265f",
					"structUsers_(address)": "fc837259",
					"tokenAmount_()": "948942ad",
					"tokenPrice_()": "0761c8b9"
				}
			},
			"storageLayout": {
				"storage": [
					{
						"astId": 28,
						"contract": "GitHub/contract-token-cryptoMonster/backend/shared/lib/structures.sol:structures",
						"label": "structUsers_",
						"offset": 0,
						"slot": "0",
						"type": "t_mapping(t_address,t_struct(structUser)23_storage)"
					},
					{
						"astId": 34,
						"contract": "GitHub/contract-token-cryptoMonster/backend/shared/lib/structures.sol:structures",
						"label": "allowed",
						"offset": 0,
						"slot": "1",
						"type": "t_mapping(t_address,t_mapping(t_address,t_uint256))"
					},
					{
						"astId": 37,
						"contract": "GitHub/contract-token-cryptoMonster/backend/shared/lib/structures.sol:structures",
						"label": "tokenPrice_",
						"offset": 0,
						"slot": "2",
						"type": "t_uint256"
					},
					{
						"astId": 40,
						"contract": "GitHub/contract-token-cryptoMonster/backend/shared/lib/structures.sol:structures",
						"label": "tokenAmount_",
						"offset": 0,
						"slot": "3",
						"type": "t_uint256"
					},
					{
						"astId": 59,
						"contract": "GitHub/contract-token-cryptoMonster/backend/shared/lib/structures.sol:structures",
						"label": "structPhases_",
						"offset": 0,
						"slot": "4",
						"type": "t_mapping(t_address,t_struct(structPhase)54_storage)"
					},
					{
						"astId": 75,
						"contract": "GitHub/contract-token-cryptoMonster/backend/shared/lib/structures.sol:structures",
						"label": "strucApplications_",
						"offset": 0,
						"slot": "5",
						"type": "t_mapping(t_address,t_struct(structApplication)70_storage)"
					},
					{
						"astId": 78,
						"contract": "GitHub/contract-token-cryptoMonster/backend/shared/lib/structures.sol:structures",
						"label": "structApplicationsAmountAdr",
						"offset": 0,
						"slot": "6",
						"type": "t_array(t_address)dyn_storage"
					},
					{
						"astId": 81,
						"contract": "GitHub/contract-token-cryptoMonster/backend/shared/lib/structures.sol:structures",
						"label": "whiteList",
						"offset": 0,
						"slot": "7",
						"type": "t_array(t_address)dyn_storage"
					},
					{
						"astId": 84,
						"contract": "GitHub/contract-token-cryptoMonster/backend/shared/lib/structures.sol:structures",
						"label": "blackList",
						"offset": 0,
						"slot": "8",
						"type": "t_array(t_address)dyn_storage"
					}
				],
				"types": {
					"t_address": {
						"encoding": "inplace",
						"label": "address",
						"numberOfBytes": "20"
					},
					"t_array(t_address)dyn_storage": {
						"base": "t_address",
						"encoding": "dynamic_array",
						"label": "address[]",
						"numberOfBytes": "32"
					},
					"t_bool": {
						"encoding": "inplace",
						"label": "bool",
						"numberOfBytes": "1"
					},
					"t_bytes32": {
						"encoding": "inplace",
						"label": "bytes32",
						"numberOfBytes": "32"
					},
					"t_enum(Role)7": {
						"encoding": "inplace",
						"label": "enum structures.Role",
						"numberOfBytes": "1"
					},
					"t_mapping(t_address,t_mapping(t_address,t_uint256))": {
						"encoding": "mapping",
						"key": "t_address",
						"label": "mapping(address => mapping(address => uint256))",
						"numberOfBytes": "32",
						"value": "t_mapping(t_address,t_uint256)"
					},
					"t_mapping(t_address,t_struct(structApplication)70_storage)": {
						"encoding": "mapping",
						"key": "t_address",
						"label": "mapping(address => struct structures.structApplication)",
						"numberOfBytes": "32",
						"value": "t_struct(structApplication)70_storage"
					},
					"t_mapping(t_address,t_struct(structPhase)54_storage)": {
						"encoding": "mapping",
						"key": "t_address",
						"label": "mapping(address => struct structures.structPhase)",
						"numberOfBytes": "32",
						"value": "t_struct(structPhase)54_storage"
					},
					"t_mapping(t_address,t_struct(structUser)23_storage)": {
						"encoding": "mapping",
						"key": "t_address",
						"label": "mapping(address => struct structures.structUser)",
						"numberOfBytes": "32",
						"value": "t_struct(structUser)23_storage"
					},
					"t_mapping(t_address,t_uint256)": {
						"encoding": "mapping",
						"key": "t_address",
						"label": "mapping(address => uint256)",
						"numberOfBytes": "32",
						"value": "t_uint256"
					},
					"t_string_storage": {
						"encoding": "bytes",
						"label": "string",
						"numberOfBytes": "32"
					},
					"t_struct(structApplication)70_storage": {
						"encoding": "inplace",
						"label": "struct structures.structApplication",
						"members": [
							{
								"astId": 61,
								"contract": "GitHub/contract-token-cryptoMonster/backend/shared/lib/structures.sol:structures",
								"label": "name",
								"offset": 0,
								"slot": "0",
								"type": "t_string_storage"
							},
							{
								"astId": 63,
								"contract": "GitHub/contract-token-cryptoMonster/backend/shared/lib/structures.sol:structures",
								"label": "contactForCommunication",
								"offset": 0,
								"slot": "1",
								"type": "t_string_storage"
							},
							{
								"astId": 65,
								"contract": "GitHub/contract-token-cryptoMonster/backend/shared/lib/structures.sol:structures",
								"label": "userAdr",
								"offset": 0,
								"slot": "2",
								"type": "t_address"
							},
							{
								"astId": 67,
								"contract": "GitHub/contract-token-cryptoMonster/backend/shared/lib/structures.sol:structures",
								"label": "status",
								"offset": 20,
								"slot": "2",
								"type": "t_bool"
							},
							{
								"astId": 69,
								"contract": "GitHub/contract-token-cryptoMonster/backend/shared/lib/structures.sol:structures",
								"label": "exist",
								"offset": 21,
								"slot": "2",
								"type": "t_bool"
							}
						],
						"numberOfBytes": "96"
					},
					"t_struct(structPhase)54_storage": {
						"encoding": "inplace",
						"label": "struct structures.structPhase",
						"members": [
							{
								"astId": 51,
								"contract": "GitHub/contract-token-cryptoMonster/backend/shared/lib/structures.sol:structures",
								"label": "statusPhase",
								"offset": 0,
								"slot": "0",
								"type": "t_bool"
							},
							{
								"astId": 53,
								"contract": "GitHub/contract-token-cryptoMonster/backend/shared/lib/structures.sol:structures",
								"label": "reviewed",
								"offset": 1,
								"slot": "0",
								"type": "t_bool"
							}
						],
						"numberOfBytes": "32"
					},
					"t_struct(structUser)23_storage": {
						"encoding": "inplace",
						"label": "struct structures.structUser",
						"members": [
							{
								"astId": 10,
								"contract": "GitHub/contract-token-cryptoMonster/backend/shared/lib/structures.sol:structures",
								"label": "role",
								"offset": 0,
								"slot": "0",
								"type": "t_enum(Role)7"
							},
							{
								"astId": 12,
								"contract": "GitHub/contract-token-cryptoMonster/backend/shared/lib/structures.sol:structures",
								"label": "login",
								"offset": 0,
								"slot": "1",
								"type": "t_string_storage"
							},
							{
								"astId": 14,
								"contract": "GitHub/contract-token-cryptoMonster/backend/shared/lib/structures.sol:structures",
								"label": "password",
								"offset": 0,
								"slot": "2",
								"type": "t_bytes32"
							},
							{
								"astId": 16,
								"contract": "GitHub/contract-token-cryptoMonster/backend/shared/lib/structures.sol:structures",
								"label": "balance_overall",
								"offset": 0,
								"slot": "3",
								"type": "t_uint256"
							},
							{
								"astId": 18,
								"contract": "GitHub/contract-token-cryptoMonster/backend/shared/lib/structures.sol:structures",
								"label": "balance_seed",
								"offset": 0,
								"slot": "4",
								"type": "t_uint256"
							},
							{
								"astId": 20,
								"contract": "GitHub/contract-token-cryptoMonster/backend/shared/lib/structures.sol:structures",
								"label": "balance_private",
								"offset": 0,
								"slot": "5",
								"type": "t_uint256"
							},
							{
								"astId": 22,
								"contract": "GitHub/contract-token-cryptoMonster/backend/shared/lib/structures.sol:structures",
								"label": "balance_public",
								"offset": 0,
								"slot": "6",
								"type": "t_uint256"
							}
						],
						"numberOfBytes": "224"
					},
					"t_uint256": {
						"encoding": "inplace",
						"label": "uint256",
						"numberOfBytes": "32"
					}
				}
			},
			"userdoc": {
				"kind": "user",
				"methods": {},
				"version": 1
			}
		}
	}
}